{
  "address": "0x9DaB335ff830F40Fe7E8232DF5cA4cFDa8BbEefB",
  "abi": [
    {
      "inputs": [
        {
          "internalType": "string",
          "name": "name_",
          "type": "string"
        },
        {
          "internalType": "string",
          "name": "symbol_",
          "type": "string"
        },
        {
          "internalType": "string",
          "name": "tokenURI_",
          "type": "string"
        },
        {
          "internalType": "contract IERC20",
          "name": "underlying_",
          "type": "address"
        }
      ],
      "stateMutability": "nonpayable",
      "type": "constructor"
    },
    {
      "inputs": [
        {
          "internalType": "uint256",
          "name": "requestId",
          "type": "uint256"
        }
      ],
      "name": "ERC7984InvalidGatewayRequest",
      "type": "error"
    },
    {
      "inputs": [
        {
          "internalType": "address",
          "name": "receiver",
          "type": "address"
        }
      ],
      "name": "ERC7984InvalidReceiver",
      "type": "error"
    },
    {
      "inputs": [
        {
          "internalType": "address",
          "name": "sender",
          "type": "address"
        }
      ],
      "name": "ERC7984InvalidSender",
      "type": "error"
    },
    {
      "inputs": [
        {
          "internalType": "address",
          "name": "caller",
          "type": "address"
        }
      ],
      "name": "ERC7984UnauthorizedCaller",
      "type": "error"
    },
    {
      "inputs": [
        {
          "internalType": "address",
          "name": "holder",
          "type": "address"
        },
        {
          "internalType": "address",
          "name": "spender",
          "type": "address"
        }
      ],
      "name": "ERC7984UnauthorizedSpender",
      "type": "error"
    },
    {
      "inputs": [
        {
          "internalType": "euint64",
          "name": "amount",
          "type": "bytes32"
        },
        {
          "internalType": "address",
          "name": "user",
          "type": "address"
        }
      ],
      "name": "ERC7984UnauthorizedUseOfEncryptedAmount",
      "type": "error"
    },
    {
      "inputs": [
        {
          "internalType": "address",
          "name": "holder",
          "type": "address"
        }
      ],
      "name": "ERC7984ZeroBalance",
      "type": "error"
    },
    {
      "inputs": [],
      "name": "InvalidKMSSignatures",
      "type": "error"
    },
    {
      "inputs": [
        {
          "internalType": "euint64",
          "name": "amount",
          "type": "bytes32"
        }
      ],
      "name": "InvalidUnwrapRequest",
      "type": "error"
    },
    {
      "inputs": [
        {
          "internalType": "uint8",
          "name": "bits",
          "type": "uint8"
        },
        {
          "internalType": "uint256",
          "name": "value",
          "type": "uint256"
        }
      ],
      "name": "SafeCastOverflowedUintDowncast",
      "type": "error"
    },
    {
      "inputs": [
        {
          "internalType": "address",
          "name": "token",
          "type": "address"
        }
      ],
      "name": "SafeERC20FailedOperation",
      "type": "error"
    },
    {
      "inputs": [],
      "name": "ZamaProtocolUnsupported",
      "type": "error"
    },
    {
      "anonymous": false,
      "inputs": [
        {
          "indexed": true,
          "internalType": "euint64",
          "name": "encryptedAmount",
          "type": "bytes32"
        },
        {
          "indexed": true,
          "internalType": "address",
          "name": "requester",
          "type": "address"
        }
      ],
      "name": "AmountDiscloseRequested",
      "type": "event"
    },
    {
      "anonymous": false,
      "inputs": [
        {
          "indexed": true,
          "internalType": "euint64",
          "name": "encryptedAmount",
          "type": "bytes32"
        },
        {
          "indexed": false,
          "internalType": "uint64",
          "name": "amount",
          "type": "uint64"
        }
      ],
      "name": "AmountDisclosed",
      "type": "event"
    },
    {
      "anonymous": false,
      "inputs": [
        {
          "indexed": true,
          "internalType": "address",
          "name": "from",
          "type": "address"
        },
        {
          "indexed": true,
          "internalType": "address",
          "name": "to",
          "type": "address"
        },
        {
          "indexed": true,
          "internalType": "euint64",
          "name": "amount",
          "type": "bytes32"
        }
      ],
      "name": "ConfidentialTransfer",
      "type": "event"
    },
    {
      "anonymous": false,
      "inputs": [
        {
          "indexed": true,
          "internalType": "address",
          "name": "holder",
          "type": "address"
        },
        {
          "indexed": true,
          "internalType": "address",
          "name": "operator",
          "type": "address"
        },
        {
          "indexed": false,
          "internalType": "uint48",
          "name": "until",
          "type": "uint48"
        }
      ],
      "name": "OperatorSet",
      "type": "event"
    },
    {
      "anonymous": false,
      "inputs": [
        {
          "indexed": false,
          "internalType": "bytes32[]",
          "name": "handlesList",
          "type": "bytes32[]"
        },
        {
          "indexed": false,
          "internalType": "bytes",
          "name": "abiEncodedCleartexts",
          "type": "bytes"
        }
      ],
      "name": "PublicDecryptionVerified",
      "type": "event"
    },
    {
      "anonymous": false,
      "inputs": [
        {
          "indexed": true,
          "internalType": "address",
          "name": "receiver",
          "type": "address"
        },
        {
          "indexed": false,
          "internalType": "euint64",
          "name": "encryptedAmount",
          "type": "bytes32"
        },
        {
          "indexed": false,
          "internalType": "uint64",
          "name": "cleartextAmount",
          "type": "uint64"
        }
      ],
      "name": "UnwrapFinalized",
      "type": "event"
    },
    {
      "anonymous": false,
      "inputs": [
        {
          "indexed": true,
          "internalType": "address",
          "name": "receiver",
          "type": "address"
        },
        {
          "indexed": false,
          "internalType": "euint64",
          "name": "amount",
          "type": "bytes32"
        }
      ],
      "name": "UnwrapRequested",
      "type": "event"
    },
    {
      "inputs": [
        {
          "internalType": "address",
          "name": "account",
          "type": "address"
        }
      ],
      "name": "confidentialBalanceOf",
      "outputs": [
        {
          "internalType": "euint64",
          "name": "",
          "type": "bytes32"
        }
      ],
      "stateMutability": "view",
      "type": "function"
    },
    {
      "inputs": [],
      "name": "confidentialProtocolId",
      "outputs": [
        {
          "internalType": "uint256",
          "name": "",
          "type": "uint256"
        }
      ],
      "stateMutability": "view",
      "type": "function"
    },
    {
      "inputs": [],
      "name": "confidentialTotalSupply",
      "outputs": [
        {
          "internalType": "euint64",
          "name": "",
          "type": "bytes32"
        }
      ],
      "stateMutability": "view",
      "type": "function"
    },
    {
      "inputs": [
        {
          "internalType": "address",
          "name": "to",
          "type": "address"
        },
        {
          "internalType": "externalEuint64",
          "name": "encryptedAmount",
          "type": "bytes32"
        },
        {
          "internalType": "bytes",
          "name": "inputProof",
          "type": "bytes"
        }
      ],
      "name": "confidentialTransfer",
      "outputs": [
        {
          "internalType": "euint64",
          "name": "",
          "type": "bytes32"
        }
      ],
      "stateMutability": "nonpayable",
      "type": "function"
    },
    {
      "inputs": [
        {
          "internalType": "address",
          "name": "to",
          "type": "address"
        },
        {
          "internalType": "euint64",
          "name": "amount",
          "type": "bytes32"
        }
      ],
      "name": "confidentialTransfer",
      "outputs": [
        {
          "internalType": "euint64",
          "name": "",
          "type": "bytes32"
        }
      ],
      "stateMutability": "nonpayable",
      "type": "function"
    },
    {
      "inputs": [
        {
          "internalType": "address",
          "name": "to",
          "type": "address"
        },
        {
          "internalType": "euint64",
          "name": "amount",
          "type": "bytes32"
        },
        {
          "internalType": "bytes",
          "name": "data",
          "type": "bytes"
        }
      ],
      "name": "confidentialTransferAndCall",
      "outputs": [
        {
          "internalType": "euint64",
          "name": "transferred",
          "type": "bytes32"
        }
      ],
      "stateMutability": "nonpayable",
      "type": "function"
    },
    {
      "inputs": [
        {
          "internalType": "address",
          "name": "to",
          "type": "address"
        },
        {
          "internalType": "externalEuint64",
          "name": "encryptedAmount",
          "type": "bytes32"
        },
        {
          "internalType": "bytes",
          "name": "inputProof",
          "type": "bytes"
        },
        {
          "internalType": "bytes",
          "name": "data",
          "type": "bytes"
        }
      ],
      "name": "confidentialTransferAndCall",
      "outputs": [
        {
          "internalType": "euint64",
          "name": "transferred",
          "type": "bytes32"
        }
      ],
      "stateMutability": "nonpayable",
      "type": "function"
    },
    {
      "inputs": [
        {
          "internalType": "address",
          "name": "from",
          "type": "address"
        },
        {
          "internalType": "address",
          "name": "to",
          "type": "address"
        },
        {
          "internalType": "externalEuint64",
          "name": "encryptedAmount",
          "type": "bytes32"
        },
        {
          "internalType": "bytes",
          "name": "inputProof",
          "type": "bytes"
        }
      ],
      "name": "confidentialTransferFrom",
      "outputs": [
        {
          "internalType": "euint64",
          "name": "transferred",
          "type": "bytes32"
        }
      ],
      "stateMutability": "nonpayable",
      "type": "function"
    },
    {
      "inputs": [
        {
          "internalType": "address",
          "name": "from",
          "type": "address"
        },
        {
          "internalType": "address",
          "name": "to",
          "type": "address"
        },
        {
          "internalType": "euint64",
          "name": "amount",
          "type": "bytes32"
        }
      ],
      "name": "confidentialTransferFrom",
      "outputs": [
        {
          "internalType": "euint64",
          "name": "transferred",
          "type": "bytes32"
        }
      ],
      "stateMutability": "nonpayable",
      "type": "function"
    },
    {
      "inputs": [
        {
          "internalType": "address",
          "name": "from",
          "type": "address"
        },
        {
          "internalType": "address",
          "name": "to",
          "type": "address"
        },
        {
          "internalType": "externalEuint64",
          "name": "encryptedAmount",
          "type": "bytes32"
        },
        {
          "internalType": "bytes",
          "name": "inputProof",
          "type": "bytes"
        },
        {
          "internalType": "bytes",
          "name": "data",
          "type": "bytes"
        }
      ],
      "name": "confidentialTransferFromAndCall",
      "outputs": [
        {
          "internalType": "euint64",
          "name": "transferred",
          "type": "bytes32"
        }
      ],
      "stateMutability": "nonpayable",
      "type": "function"
    },
    {
      "inputs": [
        {
          "internalType": "address",
          "name": "from",
          "type": "address"
        },
        {
          "internalType": "address",
          "name": "to",
          "type": "address"
        },
        {
          "internalType": "euint64",
          "name": "amount",
          "type": "bytes32"
        },
        {
          "internalType": "bytes",
          "name": "data",
          "type": "bytes"
        }
      ],
      "name": "confidentialTransferFromAndCall",
      "outputs": [
        {
          "internalType": "euint64",
          "name": "transferred",
          "type": "bytes32"
        }
      ],
      "stateMutability": "nonpayable",
      "type": "function"
    },
    {
      "inputs": [],
      "name": "contractURI",
      "outputs": [
        {
          "internalType": "string",
          "name": "",
          "type": "string"
        }
      ],
      "stateMutability": "view",
      "type": "function"
    },
    {
      "inputs": [],
      "name": "decimals",
      "outputs": [
        {
          "internalType": "uint8",
          "name": "",
          "type": "uint8"
        }
      ],
      "stateMutability": "view",
      "type": "function"
    },
    {
      "inputs": [
        {
          "internalType": "euint64",
          "name": "encryptedAmount",
          "type": "bytes32"
        },
        {
          "internalType": "uint64",
          "name": "cleartextAmount",
          "type": "uint64"
        },
        {
          "internalType": "bytes",
          "name": "decryptionProof",
          "type": "bytes"
        }
      ],
      "name": "discloseEncryptedAmount",
      "outputs": [],
      "stateMutability": "nonpayable",
      "type": "function"
    },
    {
      "inputs": [
        {
          "internalType": "euint64",
          "name": "burntAmount",
          "type": "bytes32"
        },
        {
          "internalType": "uint64",
          "name": "burntAmountCleartext",
          "type": "uint64"
        },
        {
          "internalType": "bytes",
          "name": "decryptionProof",
          "type": "bytes"
        }
      ],
      "name": "finalizeUnwrap",
      "outputs": [],
      "stateMutability": "nonpayable",
      "type": "function"
    },
    {
      "inputs": [
        {
          "internalType": "address",
          "name": "holder",
          "type": "address"
        },
        {
          "internalType": "address",
          "name": "spender",
          "type": "address"
        }
      ],
      "name": "isOperator",
      "outputs": [
        {
          "internalType": "bool",
          "name": "",
          "type": "bool"
        }
      ],
      "stateMutability": "view",
      "type": "function"
    },
    {
      "inputs": [],
      "name": "name",
      "outputs": [
        {
          "internalType": "string",
          "name": "",
          "type": "string"
        }
      ],
      "stateMutability": "view",
      "type": "function"
    },
    {
      "inputs": [
        {
          "internalType": "address",
          "name": "",
          "type": "address"
        },
        {
          "internalType": "address",
          "name": "from",
          "type": "address"
        },
        {
          "internalType": "uint256",
          "name": "amount",
          "type": "uint256"
        },
        {
          "internalType": "bytes",
          "name": "data",
          "type": "bytes"
        }
      ],
      "name": "onTransferReceived",
      "outputs": [
        {
          "internalType": "bytes4",
          "name": "",
          "type": "bytes4"
        }
      ],
      "stateMutability": "nonpayable",
      "type": "function"
    },
    {
      "inputs": [],
      "name": "rate",
      "outputs": [
        {
          "internalType": "uint256",
          "name": "",
          "type": "uint256"
        }
      ],
      "stateMutability": "view",
      "type": "function"
    },
    {
      "inputs": [
        {
          "internalType": "euint64",
          "name": "encryptedAmount",
          "type": "bytes32"
        }
      ],
      "name": "requestDiscloseEncryptedAmount",
      "outputs": [],
      "stateMutability": "nonpayable",
      "type": "function"
    },
    {
      "inputs": [
        {
          "internalType": "address",
          "name": "operator",
          "type": "address"
        },
        {
          "internalType": "uint48",
          "name": "until",
          "type": "uint48"
        }
      ],
      "name": "setOperator",
      "outputs": [],
      "stateMutability": "nonpayable",
      "type": "function"
    },
    {
      "inputs": [
        {
          "internalType": "bytes4",
          "name": "interfaceId",
          "type": "bytes4"
        }
      ],
      "name": "supportsInterface",
      "outputs": [
        {
          "internalType": "bool",
          "name": "",
          "type": "bool"
        }
      ],
      "stateMutability": "view",
      "type": "function"
    },
    {
      "inputs": [],
      "name": "symbol",
      "outputs": [
        {
          "internalType": "string",
          "name": "",
          "type": "string"
        }
      ],
      "stateMutability": "view",
      "type": "function"
    },
    {
      "inputs": [],
      "name": "underlying",
      "outputs": [
        {
          "internalType": "contract IERC20",
          "name": "",
          "type": "address"
        }
      ],
      "stateMutability": "view",
      "type": "function"
    },
    {
      "inputs": [
        {
          "internalType": "address",
          "name": "from",
          "type": "address"
        },
        {
          "internalType": "address",
          "name": "to",
          "type": "address"
        },
        {
          "internalType": "externalEuint64",
          "name": "encryptedAmount",
          "type": "bytes32"
        },
        {
          "internalType": "bytes",
          "name": "inputProof",
          "type": "bytes"
        }
      ],
      "name": "unwrap",
      "outputs": [],
      "stateMutability": "nonpayable",
      "type": "function"
    },
    {
      "inputs": [
        {
          "internalType": "address",
          "name": "from",
          "type": "address"
        },
        {
          "internalType": "address",
          "name": "to",
          "type": "address"
        },
        {
          "internalType": "euint64",
          "name": "amount",
          "type": "bytes32"
        }
      ],
      "name": "unwrap",
      "outputs": [],
      "stateMutability": "nonpayable",
      "type": "function"
    },
    {
      "inputs": [
        {
          "internalType": "address",
          "name": "to",
          "type": "address"
        },
        {
          "internalType": "uint256",
          "name": "amount",
          "type": "uint256"
        }
      ],
      "name": "wrap",
      "outputs": [],
      "stateMutability": "nonpayable",
      "type": "function"
    }
  ],
  "transactionHash": "0x6fdc6bb59cdef19781b0b2dd794e20b92c29ef1a560f097221fcc1fcd8d929ad",
  "args": [
    "Confidential Token",
    "CTKN",
    "ipfs://cwtt",
    "0x9b5cb09814D1146Aa03CDf39C7C968660dFAE3A3"
  ],
  "numDeployments": 1,
  "solcInputHash": "64ce730a6ded6d6c9d27860ee07c056a",
  "bytecode": "0x60e060405234801561000f575f5ffd5b50604051612ea2380380612ea283398101604081905261002e9161043c565b808484846100e661003d610173565b80517f9e7b61f58c47dc699ac88507c4f5bb9f121c03808c5676a8078fe583e464970080546001600160a01b03199081166001600160a01b039384161790915560208301517f9e7b61f58c47dc699ac88507c4f5bb9f121c03808c5676a8078fe583e46497018054831691841691909117905560408301517f9e7b61f58c47dc699ac88507c4f5bb9f121c03808c5676a8078fe583e46497028054909216921691909117905550565b60036100f2848261056f565b5060046100ff838261056f565b50600561010c828261056f565b5050506001600160a01b038216608052505f610127826102e2565b9050600660ff821681101561015a5760ff811660a052610147818361063d565b61015290600a61073f565b60c052610167565b60ff821660a052600160c0525b5050505050505061078a565b604080516060810182525f8082526020820181905291810191909152466001036101cc575060408051606080820183525f8083526020808401829052928401819052835191820184528082529181018290529182015290565b4662aa36a70361024b575060408051606080820183525f8083526020808401829052928401528251908101835273f0ffdc93b7e186bc2f8cb3daa75d86d1930a433d81527392c920834ec8941d2c77d188936e1f7a6f49c1279181019190915273be0e383937d564d7ff0bc3b46c51f0bf8d5c311a9181019190915290565b46617a69036102c9575060408051606080820183525f8083526020808401829052928401528251908101835273f0ffdc93b7e186bc2f8cb3daa75d86d1930a433d81527392c920834ec8941d2c77d188936e1f7a6f49c1279181019190915273be0e383937d564d7ff0bc3b46c51f0bf8d5c311a9181019190915290565b6040516373cac13b60e01b815260040160405180910390fd5b60408051600481526024810182526020810180516001600160e01b031663313ce56760e01b17905290515f91829182916001600160a01b038616916103279190610754565b5f60405180830381855afa9150503d805f811461035f576040519150601f19603f3d011682016040523d82523d5f602084013e610364565b606091505b5091509150818015610377575080516020145b156103985780806020019051810190610390919061076a565b949350505050565b6012610390565b634e487b7160e01b5f52604160045260245ffd5b5f82601f8301126103c2575f5ffd5b81516001600160401b038111156103db576103db61039f565b604051601f8201601f19908116603f011681016001600160401b03811182821017156104095761040961039f565b604052818152838201602001851015610420575f5ffd5b8160208501602083015e5f918101602001919091529392505050565b5f5f5f5f6080858703121561044f575f5ffd5b84516001600160401b03811115610464575f5ffd5b610470878288016103b3565b602087015190955090506001600160401b0381111561048d575f5ffd5b610499878288016103b3565b604087015190945090506001600160401b038111156104b6575f5ffd5b6104c2878288016103b3565b606087015190935090506001600160a01b03811681146104e0575f5ffd5b939692955090935050565b600181811c908216806104ff57607f821691505b60208210810361051d57634e487b7160e01b5f52602260045260245ffd5b50919050565b601f82111561056a57805f5260205f20601f840160051c810160208510156105485750805b601f840160051c820191505b81811015610567575f8155600101610554565b50505b505050565b81516001600160401b038111156105885761058861039f565b61059c8161059684546104eb565b84610523565b6020601f8211600181146105ce575f83156105b75750848201515b5f19600385901b1c1916600184901b178455610567565b5f84815260208120601f198516915b828110156105fd57878501518255602094850194600190920191016105dd565b508482101561061a57868401515f19600387901b60f8161c191681555b50505050600190811b01905550565b634e487b7160e01b5f52601160045260245ffd5b60ff828116828216039081111561065657610656610629565b92915050565b6001815b60018411156106975780850481111561067b5761067b610629565b600184161561068957908102905b60019390931c928002610660565b935093915050565b5f826106ad57506001610656565b816106b957505f610656565b81600181146106cf57600281146106d9576106f5565b6001915050610656565b60ff8411156106ea576106ea610629565b50506001821b610656565b5060208310610133831016604e8410600b8410161715610718575081810a610656565b6107245f19848461065c565b805f190482111561073757610737610629565b029392505050565b5f61074d60ff84168361069f565b9392505050565b5f82518060208501845e5f920191825250919050565b5f6020828403121561077a575f5ffd5b815160ff8116811461074d575f5ffd5b60805160a05160c0516126af6107f35f395f81816101f30152818161078d0152818161093f0152818161097a01528181610b750152610bb801525f61023b01525f818161030301528181610768015281816108c5015281816109ac0152610b4f01526126af5ff3fe608060405234801561000f575f5ffd5b50600436106101b0575f3560e01c806388a7ca5c116100f3578063d4febb9611610093578063e064b9bb1161006e578063e064b9bb146103ee578063e8a3d48514610401578063e8c15fd414610409578063eb3155b51461041c575f5ffd5b8063d4febb96146103b5578063d8061806146103c8578063de642119146103db575f5ffd5b8063b1af281e116100ce578063b1af281e14610369578063b6363cf21461037c578063bf376c7a1461038f578063c7b8a75e146103a2575f5ffd5b806388a7ca5c1461032d5780638927b0301461035957806395d89b4114610361575f5ffd5b806334c457431161015e5780635bb67a05116101395780635bb67a05146102bb5780635bebed7e146102d05780635bf4ef06146102e35780636f307dc3146102f6575f5ffd5b806334c457431461028d578063537d3c50146102a057806354095227146102b3575f5ffd5b80632fb74e621161018e5780632fb74e6214610221578063313ce56714610234578063344ff10114610265575f5ffd5b806301ffc9a7146101b457806306fdde03146101dc5780632c4e722e146101f1575b5f5ffd5b6101c76101c2366004611fd9565b61042f565b60405190151581526020015b60405180910390f35b6101e4610465565b6040516101d3919061202e565b7f00000000000000000000000000000000000000000000000000000000000000005b6040519081526020016101d3565b61021361022f366004612099565b6104f5565b60405160ff7f00000000000000000000000000000000000000000000000000000000000000001681526020016101d3565b6102136102733660046120ef565b6001600160a01b03165f9081526020819052604090205490565b61021361029b366004612108565b610548565b6102136102ae366004612099565b6105f1565b600254610213565b6102ce6102c93660046121a1565b610653565b005b6102136102de3660046121ed565b610817565b6102ce6102f1366004612215565b610869565b6040516001600160a01b037f00000000000000000000000000000000000000000000000000000000000000001681526020016101d3565b61034061033b366004612215565b6108b9565b6040516001600160e01b031990911681526020016101d3565b6102136109e6565b6101e46109f4565b6102ce6103773660046121a1565b610a03565b6101c761038a36600461227f565b610af8565b6102ce61039d3660046121ed565b610b4a565b6102136103b0366004612215565b610be2565b6102ce6103c33660046122a7565b610c85565b6102ce6103d63660046122e6565b610c94565b6102136103e93660046122fd565b610d0c565b6102136103fc366004612215565b610d68565b6101e4610ded565b6102ce610417366004612386565b610dfc565b61021361042a366004612386565b610e46565b5f6001600160e01b031982166312563ca960e21b148061045f57506301ffc9a760e01b6001600160e01b03198316145b92915050565b606060038054610474906123c0565b80601f01602080910402602001604051908101604052809291908181526020018280546104a0906123c0565b80156104eb5780601f106104c2576101008083540402835291602001916104eb565b820191905f5260205f20905b8154815290600101906020018083116104ce57829003601f168201915b5050505050905090565b5f61053f338661053a8787878080601f0160208091040260200160405190810160405280939291908181526020018383808284375f92019190915250610ee592505050565b610ef2565b95945050505050565b5f6105538833610af8565b8833909161058c57604051630f3e596760e31b81526001600160a01b039283166004820152911660248201526044015b60405180910390fd5b50506105d988886105d28989898080601f0160208091040260200160405190810160405280939291908181526020018383808284375f92019190915250610ee592505050565b8686610f70565b90506105e58133610fc7565b50979650505050505050565b5f6105fc8433610fd9565b8433909161062f576040516367cfe80560e01b815260048101929092526001600160a01b03166024820152604401610583565b505061063e3386868686610f70565b905061064a8133610fc7565b50949350505050565b5f848152600660205260409020546001600160a01b0316848161068c576040516368b187c760e11b815260040161058391815260200190565b505f85815260066020526040808220805473ffffffffffffffffffffffffffffffffffffffff19169055805160018082528183019092529081602001602082028036833701905050905085815f815181106106e9576106e96123f8565b6020026020010181815250505f85604051602001610717919067ffffffffffffffff91909116815260200190565b60408051601f198184030181526020601f8801819004810284018101909252868352925061076391849184919089908990819084018382808284375f92019190915250610fe492505050565b6107c17f0000000000000000000000000000000000000000000000000000000000000000846107bc7f000000000000000000000000000000000000000000000000000000000000000067ffffffffffffffff8b16612420565b61104f565b6040805188815267ffffffffffffffff881660208201526001600160a01b038516917f2d4edf3c2943002120f53dab3f8940043f34799f4a92ab90f2f81f7dd004a49e910160405180910390a250505050505050565b5f6108228233610fd9565b82339091610855576040516367cfe80560e01b815260048101929092526001600160a01b03166024820152604401610583565b5050610862338484610ef2565b9392505050565b6108b285856108ad8686868080601f0160208091040260200160405190810160405280939291908181526020018383808284375f92019190915250610ee592505050565b6110c3565b5050505050565b5f336001600160a01b037f00000000000000000000000000000000000000000000000000000000000000001681146109105760405163782c6ffd60e01b81526001600160a01b039091166004820152602401610583565b505f6014831061092c576109248385612437565b60601c61092e565b855b90506109738161096e6109696109647f00000000000000000000000000000000000000000000000000000000000000008a612498565b6111f5565b61122f565b611245565b505f61099f7f0000000000000000000000000000000000000000000000000000000000000000876124ab565b905080156109d2576109d27f0000000000000000000000000000000000000000000000000000000000000000888361104f565b50632229f29760e21b979650505050505050565b5f6109ef611286565b905090565b606060048054610474906123c0565b6040805160018082528183019092525f916020808301908036833701905050905084815f81518110610a3757610a376123f8565b6020026020010181815250505f84604051602001610a65919067ffffffffffffffff91909116815260200190565b60408051601f198184030181526020601f87018190048102840181019092528583529250610ab191849184919088908890819084018382808284375f92019190915250610fe492505050565b60405167ffffffffffffffff8616815286907f83bbbc07896439e5d950a6cead04cbc676180af7a61cecf43f5296475057f5719060200160405180910390a2505050505050565b5f816001600160a01b0316836001600160a01b031614806108625750506001600160a01b039182165f90815260016020908152604080832093909416825291909152205465ffffffffffff1642111590565b610ba97f00000000000000000000000000000000000000000000000000000000000000003330610b9a7f0000000000000000000000000000000000000000000000000000000000000000866124ab565b610ba490866124be565b6112ba565b610bdd8261096e6109696109647f000000000000000000000000000000000000000000000000000000000000000086612498565b505050565b5f610bed8433610fd9565b84339091610c20576040516367cfe80560e01b815260048101929092526001600160a01b03166024820152604401610583565b5050610c2c8633610af8565b86339091610c6057604051630f3e596760e31b81526001600160a01b03928316600482015291166024820152604401610583565b5050610c6f8686868686610f70565b9050610c7b8133610fc7565b5095945050505050565b610c903383836112f9565b5050565b610c9e8133610fd9565b81339091610cd1576040516367cfe80560e01b815260048101929092526001600160a01b03166024820152604401610583565b5050610cdc81611370565b50604051339082907f189c3bfae2e5ce7726b29d57bb6ed0f1a7ebcd153a863ff5ecb6cd998064c98c905f90a350565b5f610d5133886105d28989898080601f0160208091040260200160405190810160405280939291908181526020018383808284375f92019190915250610ee592505050565b9050610d5d8133610fc7565b509695505050505050565b5f610d738633610af8565b86339091610da757604051630f3e596760e31b81526001600160a01b03928316600482015291166024820152604401610583565b5050610c6f868661053a8787878080601f0160208091040260200160405190810160405280939291908181526020018383808284375f92019190915250610ee592505050565b606060058054610474906123c0565b610e068133610fd9565b81339091610e39576040516367cfe80560e01b815260048101929092526001600160a01b03166024820152604401610583565b5050610bdd8383836110c3565b5f610e518233610fd9565b82339091610e84576040516367cfe80560e01b815260048101929092526001600160a01b03166024820152604401610583565b5050610e908433610af8565b84339091610ec457604051630f3e596760e31b81526001600160a01b03928316600482015291166024820152604401610583565b5050610ed1848484610ef2565b9050610edd8133610fc7565b509392505050565b5f6108628383600561137a565b5f806001600160a01b038516610f275760405163ee457ebf60e01b81526001600160a01b039091166004820152602401610583565b505f6001600160a01b038416610f5c57604051638d51880160e01b81526001600160a01b039091166004820152602401610583565b50610f68848484611487565b949350505050565b5f5f610f7d878787610ef2565b90505f610f8e338989858989611664565b90505f610fae888a610fa985610fa35f61122f565b88611768565b611487565b9050610fba83826117a7565b9998505050505050505050565b5f610fd283836117d5565b5090919050565b5f6108628383611849565b5f610ff08484846118cd565b9050806110105760405163cf6c44e960e01b815260040160405180910390fd5b7fc6366bab028b8d033cb362cfd1f2f3457ef4e92fc738b6788b90d5a7846367a0848460405161104192919061250b565b60405180910390a150505050565b6040516001600160a01b03838116602483015260448201839052610bdd91859182169063a9059cbb906064015b604051602081830303815290604052915060e01b6020820180517bffffffffffffffffffffffffffffffffffffffffffffffffffffffff8381831617835250505050611971565b816001600160a01b0381166110f757604051638d51880160e01b81526001600160a01b039091166004820152602401610583565b506001600160a01b03831633148061111457506111148333610af8565b8333909161114857604051630f3e596760e31b81526001600160a01b03928316600482015291166024820152604401610583565b50505f61115584836119dd565b905061116081611370565b505f818152600660205260409020546001600160a01b0316156111855761118561252f565b5f81815260066020908152604091829020805473ffffffffffffffffffffffffffffffffffffffff19166001600160a01b03871690811790915591518381527f77d02d353c5629272875d11f1b34ec4c65d7430b075575b78cd2502034c469ee910160405180910390a250505050565b5f67ffffffffffffffff82111561122b57604080516306dfcc6560e41b8152600481019190915260248101839052604401610583565b5090565b5f61045f8267ffffffffffffffff166005611a1e565b5f806001600160a01b03841661127a57604051638d51880160e01b81526001600160a01b039091166004820152602401610583565b506108625f8484611487565b5f466001036112955750600190565b4662aa36a7036112a6575061271190565b46617a69036112b557505f1990565b505f90565b6040516001600160a01b0384811660248301528381166044830152606482018390526112f39186918216906323b872dd9060840161107c565b50505050565b6001600160a01b038381165f81815260016020908152604080832094871680845294825291829020805465ffffffffffff191665ffffffffffff871690811790915591519182527f921a218a75d18e8ec5704851e6b234a85725b21a2521ce889622c35dedc1fa12910160405180910390a3505050565b5f61122b82611ac0565b7f9e7b61f58c47dc699ac88507c4f5bb9f121c03808c5676a8078fe583e46497015460405163045fc19560e11b81525f915f5160206126835f395f51905f52916001600160a01b03909116906308bf832a906113e0908890339089908990600401612563565b6020604051808303815f875af11580156113fc573d5f5f3e3d5ffd5b505050506040513d601f19601f820116820180604052508101906114209190612599565b8154604051630f8e573b60e21b8152600481018390523360248201529193506001600160a01b031690633e395cec906044015f604051808303815f87803b158015611469575f5ffd5b505af115801561147b573d5f5f3e3d5ffd5b50505050509392505050565b5f80806001600160a01b0386166114bd576114a460025485611b3e565b90925090506114b281611b88565b506002819055611541565b6001600160a01b0386165f908152602081905260409020548681611500576040516317fe473760e21b81526001600160a01b039091166004820152602401610583565b5061150b8186611b93565b909350915061151982611b88565b506115248288611bf8565b50506001600160a01b0386165f9081526020819052604090208190555b611554828561154f5f61122f565b611768565b92506001600160a01b03851661158657611570600254846117a7565b905061157b81611b88565b5060028190556115da565b6001600160a01b0385165f908152602081905260409020546115a89084611c03565b90506115b381611b88565b506115be8186611bf8565b506001600160a01b0385165f9081526020819052604090208190555b6001600160a01b038616156115f5576115f38387611bf8565b505b6001600160a01b038516156116105761160e8386611bf8565b505b61161983611b88565b5082856001600160a01b0316876001600160a01b03167f67500e8d0ed826d2194f514dd0d8124f35648ab6e3fb5e6ed867134cffe661e960405160405180910390a450509392505050565b5f6001600160a01b0385163b15611751576040516346083bfd60e01b81526001600160a01b038616906346083bfd906116a9908a908a908990899089906004016125b0565b6020604051808303815f875af19250505080156116e3575060408051601f3d908101601f191682019092526116e091810190612599565b60015b61174a573d808015611710576040519150601f19603f3d011682016040523d82523d5f602084013e611715565b606091505b5080515f0361174257604051638d51880160e01b81526001600160a01b0387166004820152602401610583565b805181602001fd5b905061175e565b61175b6001611c31565b90505b9695505050505050565b5f8361177a576117775f611c31565b93505b8261178b576117885f61122f565b92505b8161179c576117995f61122f565b91505b610f68848484611c4c565b5f826117b9576117b65f61122f565b92505b816117ca576117c75f61122f565b91505b61086283835f611cd9565b5f5160206126835f395f51905f528054604051630f8e573b60e21b8152600481018590526001600160a01b03848116602483015290911690633e395cec906044015b5f604051808303815f87803b15801561182e575f5ffd5b505af1158015611840573d5f5f3e3d5ffd5b50505050505050565b5f805f5160206126835f395f51905f5280546040516382027b6d60e01b8152600481018790526001600160a01b0386811660248301529293509116906382027b6d90604401602060405180830381865afa1580156118a9573d5f5f3e3d5ffd5b505050506040513d601f19601f82011682018060405250810190610f689190612605565b7f9e7b61f58c47dc699ac88507c4f5bb9f121c03808c5676a8078fe583e4649702546040516378542ead60e01b81525f915f5160206126835f395f51905f52916001600160a01b03909116906378542ead9061193190889088908890600401612624565b6020604051808303815f875af115801561194d573d5f5f3e3d5ffd5b505050506040513d601f19601f8201168201806040525081019061053f9190612605565b5f5f60205f8451602086015f885af180611990576040513d5f823e3d81fd5b50505f513d915081156119a75780600114156119b4565b6001600160a01b0384163b155b156112f357604051635274afe760e01b81526001600160a01b0385166004820152602401610583565b5f806001600160a01b038416611a125760405163ee457ebf60e01b81526001600160a01b039091166004820152602401610583565b50610862835f84611487565b7f9e7b61f58c47dc699ac88507c4f5bb9f121c03808c5676a8078fe583e464970154604051639cd07acb60e01b81525f915f5160206126835f395f51905f52916001600160a01b0390911690639cd07acb90611a80908790879060040161265c565b6020604051808303815f875af1158015611a9c573d5f5f3e3d5ffd5b505050506040513d601f19601f82011682018060405250810190610f689190612599565b6040805160018082528183019092525f5160206126835f395f51905f52915f91906020808301908036833701905050905082815f81518110611b0457611b046123f8565b60209081029190910101528154604051637d6e912360e11b81526001600160a01b039091169063fadd224690611817908490600401612670565b5f8083611b5957611b4f6001611c31565b8391509150611b81565b5f611b648585611c03565b9050611b708186611d9f565b9250611b7d838287611768565b9150505b9250929050565b5f61122b8230611dcd565b5f8083611bcf5782611bb357611ba96001611c31565b8491509150611b81565b611bbd835f611e13565b611bc65f61122f565b91509150611b81565b611bd98484611d9f565b9150611bef82611be986866117a7565b86611768565b90509250929050565b5f610fd28383611dcd565b5f82611c1557611c125f61122f565b92505b81611c2657611c235f61122f565b91505b61086283835f611e3b565b5f61045f82611c40575f611c43565b60015b60ff165f611a1e565b5f805f5160206126835f395f51905f526001810154604051637702dcff60e01b81526004810188905260248101879052604481018690529192506001600160a01b031690637702dcff906064016020604051808303815f875af1158015611cb5573d5f5f3e3d5ffd5b505050506040513d601f19601f8201168201806040525081019061053f9190612599565b5f5f8215611cec5750600160f81b611cef565b505f5b7f9e7b61f58c47dc699ac88507c4f5bb9f121c03808c5676a8078fe583e4649701546040516303056db360e31b815260048101879052602481018690526001600160f81b0319831660448201525f5160206126835f395f51905f52916001600160a01b03169063182b6d98906064015b6020604051808303815f875af1158015611d7b573d5f5f3e3d5ffd5b505050506040513d601f19601f8201168201806040525081019061175e9190612599565b5f82611db157611dae5f61122f565b92505b81611dc257611dbf5f61122f565b91505b61086283835f611ec5565b5f5160206126835f395f51905f528054604051635ca4b5b160e11b8152600481018590526001600160a01b0384811660248301529091169063b9496b6290604401611817565b5f82611e2557611e225f61122f565b92505b6108628367ffffffffffffffff84166001611f4f565b5f5f8215611e4e5750600160f81b611e51565b505f5b7f9e7b61f58c47dc699ac88507c4f5bb9f121c03808c5676a8078fe583e46497015460405163022f65e760e31b815260048101879052602481018690526001600160f81b0319831660448201525f5160206126835f395f51905f52916001600160a01b03169063117b2f3890606401611d5f565b5f5f8215611ed85750600160f81b611edb565b505f5b7f9e7b61f58c47dc699ac88507c4f5bb9f121c03808c5676a8078fe583e464970154604051631391547f60e01b815260048101879052602481018690526001600160f81b0319831660448201525f5160206126835f395f51905f52916001600160a01b031690631391547f90606401611d5f565b5f5f8215611f625750600160f81b611f65565b505f5b7f9e7b61f58c47dc699ac88507c4f5bb9f121c03808c5676a8078fe583e46497015460405163f77f3f1d60e01b815260048101879052602481018690526001600160f81b0319831660448201525f5160206126835f395f51905f52916001600160a01b03169063f77f3f1d90606401611d5f565b5f60208284031215611fe9575f5ffd5b81356001600160e01b031981168114610862575f5ffd5b5f81518084528060208401602086015e5f602082860101526020601f19601f83011685010191505092915050565b602081525f6108626020830184612000565b80356001600160a01b0381168114612056575f5ffd5b919050565b5f5f83601f84011261206b575f5ffd5b50813567ffffffffffffffff811115612082575f5ffd5b602083019150836020828501011115611b81575f5ffd5b5f5f5f5f606085870312156120ac575f5ffd5b6120b585612040565b935060208501359250604085013567ffffffffffffffff8111156120d7575f5ffd5b6120e38782880161205b565b95989497509550505050565b5f602082840312156120ff575f5ffd5b61086282612040565b5f5f5f5f5f5f5f60a0888a03121561211e575f5ffd5b61212788612040565b965061213560208901612040565b955060408801359450606088013567ffffffffffffffff811115612157575f5ffd5b6121638a828b0161205b565b909550935050608088013567ffffffffffffffff811115612182575f5ffd5b61218e8a828b0161205b565b989b979a50959850939692959293505050565b5f5f5f5f606085870312156121b4575f5ffd5b84359350602085013567ffffffffffffffff811681146121d2575f5ffd5b9250604085013567ffffffffffffffff8111156120d7575f5ffd5b5f5f604083850312156121fe575f5ffd5b61220783612040565b946020939093013593505050565b5f5f5f5f5f60808688031215612229575f5ffd5b61223286612040565b945061224060208701612040565b935060408601359250606086013567ffffffffffffffff811115612262575f5ffd5b61226e8882890161205b565b969995985093965092949392505050565b5f5f60408385031215612290575f5ffd5b61229983612040565b9150611bef60208401612040565b5f5f604083850312156122b8575f5ffd5b6122c183612040565b9150602083013565ffffffffffff811681146122db575f5ffd5b809150509250929050565b5f602082840312156122f6575f5ffd5b5035919050565b5f5f5f5f5f5f60808789031215612312575f5ffd5b61231b87612040565b955060208701359450604087013567ffffffffffffffff81111561233d575f5ffd5b61234989828a0161205b565b909550935050606087013567ffffffffffffffff811115612368575f5ffd5b61237489828a0161205b565b979a9699509497509295939492505050565b5f5f5f60608486031215612398575f5ffd5b6123a184612040565b92506123af60208501612040565b929592945050506040919091013590565b600181811c908216806123d457607f821691505b6020821081036123f257634e487b7160e01b5f52602260045260245ffd5b50919050565b634e487b7160e01b5f52603260045260245ffd5b634e487b7160e01b5f52601160045260245ffd5b808202811582820484141761045f5761045f61240c565b80356bffffffffffffffffffffffff19811690601484101561247d576bffffffffffffffffffffffff196bffffffffffffffffffffffff198560140360031b1b82161691505b5092915050565b634e487b7160e01b5f52601260045260245ffd5b5f826124a6576124a6612484565b500490565b5f826124b9576124b9612484565b500690565b8181038181111561045f5761045f61240c565b5f8151808452602084019350602083015f5b828110156125015781518652602095860195909101906001016124e3565b5093949350505050565b604081525f61251d60408301856124d1565b828103602084015261053f8185612000565b634e487b7160e01b5f52600160045260245ffd5b6054811061255f57634e487b7160e01b5f52602160045260245ffd5b9052565b8481526001600160a01b0384166020820152608060408201525f61258a6080830185612000565b905061053f6060830184612543565b5f602082840312156125a9575f5ffd5b5051919050565b6001600160a01b03861681526001600160a01b038516602082015283604082015260806060820152816080820152818360a08301375f81830160a090810191909152601f909201601f19160101949350505050565b5f60208284031215612615575f5ffd5b81518015158114610862575f5ffd5b606081525f61263660608301866124d1565b82810360208401526126488186612000565b9050828103604084015261175e8185612000565b828152604081016108626020830184612543565b602081525f61086260208301846124d156fe9e7b61f58c47dc699ac88507c4f5bb9f121c03808c5676a8078fe583e4649700a164736f6c634300081b000a",
  "devdoc": {
    "errors": {
      "ERC7984InvalidGatewayRequest(uint256)": [
        {
          "details": "The given gateway request ID `requestId` is invalid."
        }
      ],
      "ERC7984InvalidReceiver(address)": [
        {
          "details": "The given receiver `receiver` is invalid for transfers."
        }
      ],
      "ERC7984InvalidSender(address)": [
        {
          "details": "The given sender `sender` is invalid for transfers."
        }
      ],
      "ERC7984UnauthorizedCaller(address)": [
        {
          "details": "The given caller `caller` is not authorized for the current operation."
        }
      ],
      "ERC7984UnauthorizedSpender(address,address)": [
        {
          "details": "The given holder `holder` is not authorized to spend on behalf of `spender`."
        }
      ],
      "ERC7984UnauthorizedUseOfEncryptedAmount(bytes32,address)": [
        {
          "details": "The caller `user` does not have access to the encrypted amount `amount`. NOTE: Try using the equivalent transfer function with an input proof."
        }
      ],
      "ERC7984ZeroBalance(address)": [
        {
          "details": "The holder `holder` is trying to send tokens but has a balance of 0."
        }
      ],
      "SafeCastOverflowedUintDowncast(uint8,uint256)": [
        {
          "details": "Value doesn't fit in an uint of `bits` size."
        }
      ],
      "SafeERC20FailedOperation(address)": [
        {
          "details": "An operation with an ERC-20 token failed."
        }
      ]
    },
    "events": {
      "AmountDiscloseRequested(bytes32,address)": {
        "details": "Emitted when an encrypted amount `encryptedAmount` is requested for disclosure by `requester`."
      },
      "AmountDisclosed(bytes32,uint64)": {
        "details": "Emitted when an encrypted amount is disclosed. Accounts with access to the encrypted amount `encryptedAmount` that is also accessible to this contract should be able to disclose the amount. This functionality is implementation specific."
      },
      "ConfidentialTransfer(address,address,bytes32)": {
        "details": "Emitted when a confidential transfer is made from `from` to `to` of encrypted amount `amount`."
      },
      "OperatorSet(address,address,uint48)": {
        "details": "Emitted when the expiration timestamp for an operator `operator` is updated for a given `holder`. The operator may move any amount of tokens on behalf of the holder until the timestamp `until`."
      }
    },
    "kind": "dev",
    "methods": {
      "confidentialBalanceOf(address)": {
        "details": "Returns the confidential balance of the account `account`."
      },
      "confidentialTotalSupply()": {
        "details": "Returns the confidential total supply of the token."
      },
      "confidentialTransfer(address,bytes32)": {
        "details": "Similar to {confidentialTransfer-address-externalEuint64-bytes} but without an input proof. The caller *must* already be allowed by ACL for the given `amount`."
      },
      "confidentialTransfer(address,bytes32,bytes)": {
        "details": "Transfers the encrypted amount `encryptedAmount` to `to` with the given input proof `inputProof`. Returns the encrypted amount that was actually transferred."
      },
      "confidentialTransferAndCall(address,bytes32,bytes)": {
        "details": "Similar to {confidentialTransfer-address-euint64} but with a callback to `to` after the transfer."
      },
      "confidentialTransferAndCall(address,bytes32,bytes,bytes)": {
        "details": "Similar to {confidentialTransfer-address-externalEuint64-bytes} but with a callback to `to` after the transfer. The callback is made to the {IERC7984Receiver-onConfidentialTransferReceived} function on the to address with the actual transferred amount (may differ from the given `encryptedAmount`) and the given data `data`."
      },
      "confidentialTransferFrom(address,address,bytes32)": {
        "details": "Similar to {confidentialTransferFrom-address-address-externalEuint64-bytes} but without an input proof. The caller *must* be already allowed by ACL for the given `amount`."
      },
      "confidentialTransferFrom(address,address,bytes32,bytes)": {
        "details": "Transfers the encrypted amount `encryptedAmount` from `from` to `to` with the given input proof `inputProof`. `msg.sender` must be either `from` or an operator for `from`. Returns the encrypted amount that was actually transferred."
      },
      "confidentialTransferFromAndCall(address,address,bytes32,bytes)": {
        "details": "Similar to {confidentialTransferFrom-address-address-euint64} but with a callback to `to` after the transfer."
      },
      "confidentialTransferFromAndCall(address,address,bytes32,bytes,bytes)": {
        "details": "Similar to {confidentialTransferFrom-address-address-externalEuint64-bytes} but with a callback to `to` after the transfer."
      },
      "contractURI()": {
        "details": "Returns the contract URI. See https://eips.ethereum.org/EIPS/eip-7572[ERC-7572] for details."
      },
      "decimals()": {
        "details": "Returns the number of decimals of the token. Recommended to be 6."
      },
      "discloseEncryptedAmount(bytes32,uint64,bytes)": {
        "details": "Publicly discloses an encrypted value with a given decryption proof. Emits the {AmountDisclosed} event. NOTE: May not be tied to a prior request via {requestDiscloseEncryptedAmount}."
      },
      "finalizeUnwrap(bytes32,uint64,bytes)": {
        "details": "Fills an unwrap request for a given cipher-text `burntAmount` with the `cleartextAmount` and `decryptionProof`."
      },
      "isOperator(address,address)": {
        "details": "Returns true if `spender` is currently an operator for `holder`."
      },
      "name()": {
        "details": "Returns the name of the token."
      },
      "onTransferReceived(address,address,uint256,bytes)": {
        "details": "`ERC1363` callback function which wraps tokens to the address specified in `data` or the address `from` (if no address is specified in `data`). This function refunds any excess tokens sent beyond the nearest multiple of {rate}. See {wrap} from more details on wrapping tokens."
      },
      "rate()": {
        "details": "Returns the rate at which the underlying token is converted to the wrapped token. For example, if the `rate` is 1000, then 1000 units of the underlying token equal 1 unit of the wrapped token."
      },
      "requestDiscloseEncryptedAmount(bytes32)": {
        "details": "Starts the process to disclose an encrypted amount `encryptedAmount` publicly by making it publicly decryptable. Emits the {AmountDiscloseRequested} event. NOTE: Both `msg.sender` and `address(this)` must have permission to access the encrypted amount `encryptedAmount` to request disclosure of the encrypted amount `encryptedAmount`."
      },
      "setOperator(address,uint48)": {
        "details": "Sets `operator` as an operator for `holder` until the timestamp `until`. NOTE: An operator may transfer any amount of tokens on behalf of a holder while approved."
      },
      "supportsInterface(bytes4)": {
        "details": "Returns true if this contract implements the interface defined by `interfaceId`. See the corresponding https://eips.ethereum.org/EIPS/eip-165#how-interfaces-are-identified[ERC section] to learn more about how these ids are created. This function call must use less than 30 000 gas."
      },
      "symbol()": {
        "details": "Returns the symbol of the token."
      },
      "underlying()": {
        "details": "Returns the address of the underlying ERC-20 token that is being wrapped."
      },
      "unwrap(address,address,bytes32)": {
        "details": "Unwraps tokens from `from` and sends the underlying tokens to `to`. The caller must be `from` or be an approved operator for `from`. `amount * rate()` underlying tokens are sent to `to`. NOTE: The unwrap request created by this function must be finalized by calling {finalizeUnwrap}. NOTE: The caller *must* already be approved by ACL for the given `amount`."
      },
      "unwrap(address,address,bytes32,bytes)": {
        "details": "Variant of {unwrap} that passes an `inputProof` which approves the caller for the `encryptedAmount` in the ACL."
      },
      "wrap(address,uint256)": {
        "details": "Wraps amount `amount` of the underlying token into a confidential token and sends it to `to`. Tokens are exchanged at a fixed rate specified by {rate} such that `amount / rate()` confidential tokens are sent. Amount transferred in is rounded down to the nearest multiple of {rate}."
      }
    },
    "version": 1
  },
  "userdoc": {
    "errors": {
      "InvalidKMSSignatures()": [
        {
          "notice": "Returned if the returned KMS signatures are not valid."
        }
      ],
      "ZamaProtocolUnsupported()": [
        {
          "notice": "Returned if the Zama protocol is not supported on the current chain"
        }
      ]
    },
    "events": {
      "PublicDecryptionVerified(bytes32[],bytes)": {
        "notice": "This event is emitted when public decryption has been successfully verified."
      }
    },
    "kind": "user",
    "methods": {},
    "version": 1
  },
  "storageLayout": {
    "storage": [
      {
        "astId": 39437,
        "contract": "contracts/FHEToken.sol:FHEToken",
        "label": "_balances",
        "offset": 0,
        "slot": "0",
        "type": "t_mapping(t_address,t_userDefinedValueType(euint64)44055)"
      },
      {
        "astId": 39443,
        "contract": "contracts/FHEToken.sol:FHEToken",
        "label": "_operators",
        "offset": 0,
        "slot": "1",
        "type": "t_mapping(t_address,t_mapping(t_address,t_uint48))"
      },
      {
        "astId": 39446,
        "contract": "contracts/FHEToken.sol:FHEToken",
        "label": "_totalSupply",
        "offset": 0,
        "slot": "2",
        "type": "t_userDefinedValueType(euint64)44055"
      },
      {
        "astId": 39448,
        "contract": "contracts/FHEToken.sol:FHEToken",
        "label": "_name",
        "offset": 0,
        "slot": "3",
        "type": "t_string_storage"
      },
      {
        "astId": 39450,
        "contract": "contracts/FHEToken.sol:FHEToken",
        "label": "_symbol",
        "offset": 0,
        "slot": "4",
        "type": "t_string_storage"
      },
      {
        "astId": 39452,
        "contract": "contracts/FHEToken.sol:FHEToken",
        "label": "_contractURI",
        "offset": 0,
        "slot": "5",
        "type": "t_string_storage"
      },
      {
        "astId": 40550,
        "contract": "contracts/FHEToken.sol:FHEToken",
        "label": "_unwrapRequests",
        "offset": 0,
        "slot": "6",
        "type": "t_mapping(t_userDefinedValueType(euint64)44055,t_address)"
      }
    ],
    "types": {
      "t_address": {
        "encoding": "inplace",
        "label": "address",
        "numberOfBytes": "20"
      },
      "t_mapping(t_address,t_mapping(t_address,t_uint48))": {
        "encoding": "mapping",
        "key": "t_address",
        "label": "mapping(address => mapping(address => uint48))",
        "numberOfBytes": "32",
        "value": "t_mapping(t_address,t_uint48)"
      },
      "t_mapping(t_address,t_uint48)": {
        "encoding": "mapping",
        "key": "t_address",
        "label": "mapping(address => uint48)",
        "numberOfBytes": "32",
        "value": "t_uint48"
      },
      "t_mapping(t_address,t_userDefinedValueType(euint64)44055)": {
        "encoding": "mapping",
        "key": "t_address",
        "label": "mapping(address => euint64)",
        "numberOfBytes": "32",
        "value": "t_userDefinedValueType(euint64)44055"
      },
      "t_mapping(t_userDefinedValueType(euint64)44055,t_address)": {
        "encoding": "mapping",
        "key": "t_userDefinedValueType(euint64)44055",
        "label": "mapping(euint64 => address)",
        "numberOfBytes": "32",
        "value": "t_address"
      },
      "t_string_storage": {
        "encoding": "bytes",
        "label": "string",
        "numberOfBytes": "32"
      },
      "t_uint48": {
        "encoding": "inplace",
        "label": "uint48",
        "numberOfBytes": "6"
      },
      "t_userDefinedValueType(euint64)44055": {
        "encoding": "inplace",
        "label": "euint64",
        "numberOfBytes": "32"
      }
    }
  }
}