{
  "address": "0xe6Cc30d0933880315bB615046B129484E98Ab95e",
  "abi": [
    {
      "inputs": [
        {
          "internalType": "string",
          "name": "name_",
          "type": "string"
        },
        {
          "internalType": "string",
          "name": "symbol_",
          "type": "string"
        },
        {
          "internalType": "string",
          "name": "contractURI_",
          "type": "string"
        },
        {
          "internalType": "contract IERC20",
          "name": "underlying_",
          "type": "address"
        }
      ],
      "stateMutability": "nonpayable",
      "type": "constructor"
    },
    {
      "inputs": [],
      "name": "AuthorizationExpired",
      "type": "error"
    },
    {
      "inputs": [],
      "name": "ECDSAInvalidSignature",
      "type": "error"
    },
    {
      "inputs": [
        {
          "internalType": "uint256",
          "name": "length",
          "type": "uint256"
        }
      ],
      "name": "ECDSAInvalidSignatureLength",
      "type": "error"
    },
    {
      "inputs": [
        {
          "internalType": "bytes32",
          "name": "s",
          "type": "bytes32"
        }
      ],
      "name": "ECDSAInvalidSignatureS",
      "type": "error"
    },
    {
      "inputs": [
        {
          "internalType": "uint256",
          "name": "requestId",
          "type": "uint256"
        }
      ],
      "name": "ERC7984InvalidGatewayRequest",
      "type": "error"
    },
    {
      "inputs": [
        {
          "internalType": "address",
          "name": "receiver",
          "type": "address"
        }
      ],
      "name": "ERC7984InvalidReceiver",
      "type": "error"
    },
    {
      "inputs": [
        {
          "internalType": "address",
          "name": "sender",
          "type": "address"
        }
      ],
      "name": "ERC7984InvalidSender",
      "type": "error"
    },
    {
      "inputs": [],
      "name": "ERC7984TotalSupplyOverflow",
      "type": "error"
    },
    {
      "inputs": [
        {
          "internalType": "address",
          "name": "caller",
          "type": "address"
        }
      ],
      "name": "ERC7984UnauthorizedCaller",
      "type": "error"
    },
    {
      "inputs": [
        {
          "internalType": "address",
          "name": "holder",
          "type": "address"
        },
        {
          "internalType": "address",
          "name": "spender",
          "type": "address"
        }
      ],
      "name": "ERC7984UnauthorizedSpender",
      "type": "error"
    },
    {
      "inputs": [
        {
          "internalType": "euint64",
          "name": "amount",
          "type": "bytes32"
        },
        {
          "internalType": "address",
          "name": "user",
          "type": "address"
        }
      ],
      "name": "ERC7984UnauthorizedUseOfEncryptedAmount",
      "type": "error"
    },
    {
      "inputs": [
        {
          "internalType": "address",
          "name": "holder",
          "type": "address"
        }
      ],
      "name": "ERC7984ZeroBalance",
      "type": "error"
    },
    {
      "inputs": [],
      "name": "EncryptedAmountMismatch",
      "type": "error"
    },
    {
      "inputs": [],
      "name": "InvalidHolder",
      "type": "error"
    },
    {
      "inputs": [],
      "name": "InvalidKMSSignatures",
      "type": "error"
    },
    {
      "inputs": [],
      "name": "InvalidPayee",
      "type": "error"
    },
    {
      "inputs": [],
      "name": "InvalidRecipient",
      "type": "error"
    },
    {
      "inputs": [],
      "name": "InvalidShortString",
      "type": "error"
    },
    {
      "inputs": [],
      "name": "InvalidSignature",
      "type": "error"
    },
    {
      "inputs": [
        {
          "internalType": "euint64",
          "name": "amount",
          "type": "bytes32"
        }
      ],
      "name": "InvalidUnwrapRequest",
      "type": "error"
    },
    {
      "inputs": [],
      "name": "NonceAlreadyUsed",
      "type": "error"
    },
    {
      "inputs": [],
      "name": "NotYetValid",
      "type": "error"
    },
    {
      "inputs": [
        {
          "internalType": "uint8",
          "name": "bits",
          "type": "uint8"
        },
        {
          "internalType": "uint256",
          "name": "value",
          "type": "uint256"
        }
      ],
      "name": "SafeCastOverflowedUintDowncast",
      "type": "error"
    },
    {
      "inputs": [
        {
          "internalType": "address",
          "name": "token",
          "type": "address"
        }
      ],
      "name": "SafeERC20FailedOperation",
      "type": "error"
    },
    {
      "inputs": [
        {
          "internalType": "bytes32",
          "name": "handle",
          "type": "bytes32"
        },
        {
          "internalType": "address",
          "name": "sender",
          "type": "address"
        }
      ],
      "name": "SenderNotAllowedToUseHandle",
      "type": "error"
    },
    {
      "inputs": [
        {
          "internalType": "string",
          "name": "str",
          "type": "string"
        }
      ],
      "name": "StringTooLong",
      "type": "error"
    },
    {
      "inputs": [],
      "name": "Unauthorized",
      "type": "error"
    },
    {
      "inputs": [],
      "name": "ZamaProtocolUnsupported",
      "type": "error"
    },
    {
      "anonymous": false,
      "inputs": [
        {
          "indexed": true,
          "internalType": "euint64",
          "name": "encryptedAmount",
          "type": "bytes32"
        },
        {
          "indexed": true,
          "internalType": "address",
          "name": "requester",
          "type": "address"
        }
      ],
      "name": "AmountDiscloseRequested",
      "type": "event"
    },
    {
      "anonymous": false,
      "inputs": [
        {
          "indexed": true,
          "internalType": "euint64",
          "name": "encryptedAmount",
          "type": "bytes32"
        },
        {
          "indexed": false,
          "internalType": "uint64",
          "name": "amount",
          "type": "uint64"
        }
      ],
      "name": "AmountDisclosed",
      "type": "event"
    },
    {
      "anonymous": false,
      "inputs": [
        {
          "indexed": true,
          "internalType": "address",
          "name": "holder",
          "type": "address"
        },
        {
          "indexed": true,
          "internalType": "address",
          "name": "payee",
          "type": "address"
        },
        {
          "indexed": false,
          "internalType": "uint256",
          "name": "maxClearAmount",
          "type": "uint256"
        },
        {
          "indexed": true,
          "internalType": "bytes32",
          "name": "resourceHash",
          "type": "bytes32"
        },
        {
          "indexed": false,
          "internalType": "bytes32",
          "name": "nonce",
          "type": "bytes32"
        },
        {
          "indexed": false,
          "internalType": "euint64",
          "name": "transferredAmount",
          "type": "bytes32"
        }
      ],
      "name": "ConfidentialPaymentExecuted",
      "type": "event"
    },
    {
      "anonymous": false,
      "inputs": [
        {
          "indexed": true,
          "internalType": "address",
          "name": "from",
          "type": "address"
        },
        {
          "indexed": true,
          "internalType": "address",
          "name": "to",
          "type": "address"
        },
        {
          "indexed": true,
          "internalType": "euint64",
          "name": "amount",
          "type": "bytes32"
        }
      ],
      "name": "ConfidentialTransfer",
      "type": "event"
    },
    {
      "anonymous": false,
      "inputs": [],
      "name": "EIP712DomainChanged",
      "type": "event"
    },
    {
      "anonymous": false,
      "inputs": [
        {
          "indexed": false,
          "internalType": "address",
          "name": "account",
          "type": "address"
        },
        {
          "indexed": false,
          "internalType": "address",
          "name": "oldObserver",
          "type": "address"
        },
        {
          "indexed": false,
          "internalType": "address",
          "name": "newObserver",
          "type": "address"
        }
      ],
      "name": "ERC7984ObserverAccessObserverSet",
      "type": "event"
    },
    {
      "anonymous": false,
      "inputs": [
        {
          "indexed": true,
          "internalType": "address",
          "name": "holder",
          "type": "address"
        },
        {
          "indexed": true,
          "internalType": "address",
          "name": "operator",
          "type": "address"
        },
        {
          "indexed": false,
          "internalType": "uint48",
          "name": "until",
          "type": "uint48"
        }
      ],
      "name": "OperatorSet",
      "type": "event"
    },
    {
      "anonymous": false,
      "inputs": [
        {
          "indexed": false,
          "internalType": "bytes32[]",
          "name": "handlesList",
          "type": "bytes32[]"
        },
        {
          "indexed": false,
          "internalType": "bytes",
          "name": "abiEncodedCleartexts",
          "type": "bytes"
        }
      ],
      "name": "PublicDecryptionVerified",
      "type": "event"
    },
    {
      "anonymous": false,
      "inputs": [
        {
          "indexed": true,
          "internalType": "address",
          "name": "receiver",
          "type": "address"
        },
        {
          "indexed": false,
          "internalType": "euint64",
          "name": "encryptedAmount",
          "type": "bytes32"
        },
        {
          "indexed": false,
          "internalType": "uint64",
          "name": "cleartextAmount",
          "type": "uint64"
        }
      ],
      "name": "UnwrapFinalized",
      "type": "event"
    },
    {
      "anonymous": false,
      "inputs": [
        {
          "indexed": true,
          "internalType": "address",
          "name": "receiver",
          "type": "address"
        },
        {
          "indexed": false,
          "internalType": "euint64",
          "name": "amount",
          "type": "bytes32"
        }
      ],
      "name": "UnwrapRequested",
      "type": "event"
    },
    {
      "anonymous": false,
      "inputs": [
        {
          "indexed": true,
          "internalType": "address",
          "name": "holder",
          "type": "address"
        },
        {
          "indexed": true,
          "internalType": "address",
          "name": "to",
          "type": "address"
        },
        {
          "indexed": false,
          "internalType": "bytes32",
          "name": "nonce",
          "type": "bytes32"
        },
        {
          "indexed": false,
          "internalType": "bytes32",
          "name": "encryptedAmountHandle",
          "type": "bytes32"
        }
      ],
      "name": "UnwrapWithAuthorizationExecuted",
      "type": "event"
    },
    {
      "inputs": [],
      "name": "CONFIDENTIAL_PAYMENT_TYPEHASH",
      "outputs": [
        {
          "internalType": "bytes32",
          "name": "",
          "type": "bytes32"
        }
      ],
      "stateMutability": "view",
      "type": "function"
    },
    {
      "inputs": [],
      "name": "UNWRAP_AUTHORIZATION_TYPEHASH",
      "outputs": [
        {
          "internalType": "bytes32",
          "name": "",
          "type": "bytes32"
        }
      ],
      "stateMutability": "view",
      "type": "function"
    },
    {
      "inputs": [
        {
          "internalType": "address",
          "name": "account",
          "type": "address"
        }
      ],
      "name": "confidentialBalanceOf",
      "outputs": [
        {
          "internalType": "euint64",
          "name": "",
          "type": "bytes32"
        }
      ],
      "stateMutability": "view",
      "type": "function"
    },
    {
      "inputs": [],
      "name": "confidentialProtocolId",
      "outputs": [
        {
          "internalType": "uint256",
          "name": "",
          "type": "uint256"
        }
      ],
      "stateMutability": "view",
      "type": "function"
    },
    {
      "inputs": [],
      "name": "confidentialTotalSupply",
      "outputs": [
        {
          "internalType": "euint64",
          "name": "",
          "type": "bytes32"
        }
      ],
      "stateMutability": "view",
      "type": "function"
    },
    {
      "inputs": [
        {
          "internalType": "address",
          "name": "to",
          "type": "address"
        },
        {
          "internalType": "externalEuint64",
          "name": "encryptedAmount",
          "type": "bytes32"
        },
        {
          "internalType": "bytes",
          "name": "inputProof",
          "type": "bytes"
        }
      ],
      "name": "confidentialTransfer",
      "outputs": [
        {
          "internalType": "euint64",
          "name": "",
          "type": "bytes32"
        }
      ],
      "stateMutability": "nonpayable",
      "type": "function"
    },
    {
      "inputs": [
        {
          "internalType": "address",
          "name": "to",
          "type": "address"
        },
        {
          "internalType": "euint64",
          "name": "amount",
          "type": "bytes32"
        }
      ],
      "name": "confidentialTransfer",
      "outputs": [
        {
          "internalType": "euint64",
          "name": "",
          "type": "bytes32"
        }
      ],
      "stateMutability": "nonpayable",
      "type": "function"
    },
    {
      "inputs": [
        {
          "internalType": "address",
          "name": "to",
          "type": "address"
        },
        {
          "internalType": "euint64",
          "name": "amount",
          "type": "bytes32"
        },
        {
          "internalType": "bytes",
          "name": "data",
          "type": "bytes"
        }
      ],
      "name": "confidentialTransferAndCall",
      "outputs": [
        {
          "internalType": "euint64",
          "name": "transferred",
          "type": "bytes32"
        }
      ],
      "stateMutability": "nonpayable",
      "type": "function"
    },
    {
      "inputs": [
        {
          "internalType": "address",
          "name": "to",
          "type": "address"
        },
        {
          "internalType": "externalEuint64",
          "name": "encryptedAmount",
          "type": "bytes32"
        },
        {
          "internalType": "bytes",
          "name": "inputProof",
          "type": "bytes"
        },
        {
          "internalType": "bytes",
          "name": "data",
          "type": "bytes"
        }
      ],
      "name": "confidentialTransferAndCall",
      "outputs": [
        {
          "internalType": "euint64",
          "name": "transferred",
          "type": "bytes32"
        }
      ],
      "stateMutability": "nonpayable",
      "type": "function"
    },
    {
      "inputs": [
        {
          "internalType": "address",
          "name": "from",
          "type": "address"
        },
        {
          "internalType": "address",
          "name": "to",
          "type": "address"
        },
        {
          "internalType": "externalEuint64",
          "name": "encryptedAmount",
          "type": "bytes32"
        },
        {
          "internalType": "bytes",
          "name": "inputProof",
          "type": "bytes"
        }
      ],
      "name": "confidentialTransferFrom",
      "outputs": [
        {
          "internalType": "euint64",
          "name": "transferred",
          "type": "bytes32"
        }
      ],
      "stateMutability": "nonpayable",
      "type": "function"
    },
    {
      "inputs": [
        {
          "internalType": "address",
          "name": "from",
          "type": "address"
        },
        {
          "internalType": "address",
          "name": "to",
          "type": "address"
        },
        {
          "internalType": "euint64",
          "name": "amount",
          "type": "bytes32"
        }
      ],
      "name": "confidentialTransferFrom",
      "outputs": [
        {
          "internalType": "euint64",
          "name": "transferred",
          "type": "bytes32"
        }
      ],
      "stateMutability": "nonpayable",
      "type": "function"
    },
    {
      "inputs": [
        {
          "internalType": "address",
          "name": "from",
          "type": "address"
        },
        {
          "internalType": "address",
          "name": "to",
          "type": "address"
        },
        {
          "internalType": "externalEuint64",
          "name": "encryptedAmount",
          "type": "bytes32"
        },
        {
          "internalType": "bytes",
          "name": "inputProof",
          "type": "bytes"
        },
        {
          "internalType": "bytes",
          "name": "data",
          "type": "bytes"
        }
      ],
      "name": "confidentialTransferFromAndCall",
      "outputs": [
        {
          "internalType": "euint64",
          "name": "transferred",
          "type": "bytes32"
        }
      ],
      "stateMutability": "nonpayable",
      "type": "function"
    },
    {
      "inputs": [
        {
          "internalType": "address",
          "name": "from",
          "type": "address"
        },
        {
          "internalType": "address",
          "name": "to",
          "type": "address"
        },
        {
          "internalType": "euint64",
          "name": "amount",
          "type": "bytes32"
        },
        {
          "internalType": "bytes",
          "name": "data",
          "type": "bytes"
        }
      ],
      "name": "confidentialTransferFromAndCall",
      "outputs": [
        {
          "internalType": "euint64",
          "name": "transferred",
          "type": "bytes32"
        }
      ],
      "stateMutability": "nonpayable",
      "type": "function"
    },
    {
      "inputs": [
        {
          "components": [
            {
              "internalType": "address",
              "name": "holder",
              "type": "address"
            },
            {
              "internalType": "address",
              "name": "payee",
              "type": "address"
            },
            {
              "internalType": "uint256",
              "name": "maxClearAmount",
              "type": "uint256"
            },
            {
              "internalType": "bytes32",
              "name": "resourceHash",
              "type": "bytes32"
            },
            {
              "internalType": "uint48",
              "name": "validAfter",
              "type": "uint48"
            },
            {
              "internalType": "uint48",
              "name": "validBefore",
              "type": "uint48"
            },
            {
              "internalType": "bytes32",
              "name": "nonce",
              "type": "bytes32"
            },
            {
              "internalType": "bytes32",
              "name": "encryptedAmountHash",
              "type": "bytes32"
            }
          ],
          "internalType": "struct FHEToken.ConfidentialPayment",
          "name": "p",
          "type": "tuple"
        },
        {
          "internalType": "externalEuint64",
          "name": "encryptedAmountInput",
          "type": "bytes32"
        },
        {
          "internalType": "bytes",
          "name": "inputProof",
          "type": "bytes"
        },
        {
          "internalType": "bytes",
          "name": "sig",
          "type": "bytes"
        }
      ],
      "name": "confidentialTransferWithAuthorization",
      "outputs": [
        {
          "internalType": "euint64",
          "name": "transferred",
          "type": "bytes32"
        }
      ],
      "stateMutability": "nonpayable",
      "type": "function"
    },
    {
      "inputs": [],
      "name": "contractURI",
      "outputs": [
        {
          "internalType": "string",
          "name": "",
          "type": "string"
        }
      ],
      "stateMutability": "view",
      "type": "function"
    },
    {
      "inputs": [],
      "name": "decimals",
      "outputs": [
        {
          "internalType": "uint8",
          "name": "",
          "type": "uint8"
        }
      ],
      "stateMutability": "view",
      "type": "function"
    },
    {
      "inputs": [
        {
          "internalType": "euint64",
          "name": "encryptedAmount",
          "type": "bytes32"
        },
        {
          "internalType": "uint64",
          "name": "cleartextAmount",
          "type": "uint64"
        },
        {
          "internalType": "bytes",
          "name": "decryptionProof",
          "type": "bytes"
        }
      ],
      "name": "discloseEncryptedAmount",
      "outputs": [],
      "stateMutability": "nonpayable",
      "type": "function"
    },
    {
      "inputs": [],
      "name": "eip712Domain",
      "outputs": [
        {
          "internalType": "bytes1",
          "name": "fields",
          "type": "bytes1"
        },
        {
          "internalType": "string",
          "name": "name",
          "type": "string"
        },
        {
          "internalType": "string",
          "name": "version",
          "type": "string"
        },
        {
          "internalType": "uint256",
          "name": "chainId",
          "type": "uint256"
        },
        {
          "internalType": "address",
          "name": "verifyingContract",
          "type": "address"
        },
        {
          "internalType": "bytes32",
          "name": "salt",
          "type": "bytes32"
        },
        {
          "internalType": "uint256[]",
          "name": "extensions",
          "type": "uint256[]"
        }
      ],
      "stateMutability": "view",
      "type": "function"
    },
    {
      "inputs": [
        {
          "internalType": "euint64",
          "name": "burntAmount",
          "type": "bytes32"
        },
        {
          "internalType": "uint64",
          "name": "burntAmountCleartext",
          "type": "uint64"
        },
        {
          "internalType": "bytes",
          "name": "decryptionProof",
          "type": "bytes"
        }
      ],
      "name": "finalizeUnwrap",
      "outputs": [],
      "stateMutability": "nonpayable",
      "type": "function"
    },
    {
      "inputs": [],
      "name": "inferredTotalSupply",
      "outputs": [
        {
          "internalType": "uint256",
          "name": "",
          "type": "uint256"
        }
      ],
      "stateMutability": "view",
      "type": "function"
    },
    {
      "inputs": [
        {
          "internalType": "address",
          "name": "holder",
          "type": "address"
        },
        {
          "internalType": "address",
          "name": "spender",
          "type": "address"
        }
      ],
      "name": "isOperator",
      "outputs": [
        {
          "internalType": "bool",
          "name": "",
          "type": "bool"
        }
      ],
      "stateMutability": "view",
      "type": "function"
    },
    {
      "inputs": [],
      "name": "maxTotalSupply",
      "outputs": [
        {
          "internalType": "uint256",
          "name": "",
          "type": "uint256"
        }
      ],
      "stateMutability": "view",
      "type": "function"
    },
    {
      "inputs": [],
      "name": "name",
      "outputs": [
        {
          "internalType": "string",
          "name": "",
          "type": "string"
        }
      ],
      "stateMutability": "view",
      "type": "function"
    },
    {
      "inputs": [
        {
          "internalType": "address",
          "name": "account",
          "type": "address"
        }
      ],
      "name": "observer",
      "outputs": [
        {
          "internalType": "address",
          "name": "",
          "type": "address"
        }
      ],
      "stateMutability": "view",
      "type": "function"
    },
    {
      "inputs": [
        {
          "internalType": "address",
          "name": "",
          "type": "address"
        },
        {
          "internalType": "address",
          "name": "from",
          "type": "address"
        },
        {
          "internalType": "uint256",
          "name": "amount",
          "type": "uint256"
        },
        {
          "internalType": "bytes",
          "name": "data",
          "type": "bytes"
        }
      ],
      "name": "onTransferReceived",
      "outputs": [
        {
          "internalType": "bytes4",
          "name": "",
          "type": "bytes4"
        }
      ],
      "stateMutability": "nonpayable",
      "type": "function"
    },
    {
      "inputs": [],
      "name": "rate",
      "outputs": [
        {
          "internalType": "uint256",
          "name": "",
          "type": "uint256"
        }
      ],
      "stateMutability": "view",
      "type": "function"
    },
    {
      "inputs": [
        {
          "internalType": "euint64",
          "name": "encryptedAmount",
          "type": "bytes32"
        }
      ],
      "name": "requestDiscloseEncryptedAmount",
      "outputs": [],
      "stateMutability": "nonpayable",
      "type": "function"
    },
    {
      "inputs": [
        {
          "internalType": "address",
          "name": "account",
          "type": "address"
        },
        {
          "internalType": "address",
          "name": "newObserver",
          "type": "address"
        }
      ],
      "name": "setObserver",
      "outputs": [],
      "stateMutability": "nonpayable",
      "type": "function"
    },
    {
      "inputs": [
        {
          "internalType": "address",
          "name": "operator",
          "type": "address"
        },
        {
          "internalType": "uint48",
          "name": "until",
          "type": "uint48"
        }
      ],
      "name": "setOperator",
      "outputs": [],
      "stateMutability": "nonpayable",
      "type": "function"
    },
    {
      "inputs": [
        {
          "internalType": "bytes4",
          "name": "interfaceId",
          "type": "bytes4"
        }
      ],
      "name": "supportsInterface",
      "outputs": [
        {
          "internalType": "bool",
          "name": "",
          "type": "bool"
        }
      ],
      "stateMutability": "view",
      "type": "function"
    },
    {
      "inputs": [],
      "name": "symbol",
      "outputs": [
        {
          "internalType": "string",
          "name": "",
          "type": "string"
        }
      ],
      "stateMutability": "view",
      "type": "function"
    },
    {
      "inputs": [],
      "name": "underlying",
      "outputs": [
        {
          "internalType": "contract IERC20",
          "name": "",
          "type": "address"
        }
      ],
      "stateMutability": "view",
      "type": "function"
    },
    {
      "inputs": [
        {
          "internalType": "address",
          "name": "from",
          "type": "address"
        },
        {
          "internalType": "address",
          "name": "to",
          "type": "address"
        },
        {
          "internalType": "externalEuint64",
          "name": "encryptedAmount",
          "type": "bytes32"
        },
        {
          "internalType": "bytes",
          "name": "inputProof",
          "type": "bytes"
        }
      ],
      "name": "unwrap",
      "outputs": [],
      "stateMutability": "nonpayable",
      "type": "function"
    },
    {
      "inputs": [
        {
          "internalType": "address",
          "name": "from",
          "type": "address"
        },
        {
          "internalType": "address",
          "name": "to",
          "type": "address"
        },
        {
          "internalType": "euint64",
          "name": "amount",
          "type": "bytes32"
        }
      ],
      "name": "unwrap",
      "outputs": [],
      "stateMutability": "nonpayable",
      "type": "function"
    },
    {
      "inputs": [
        {
          "components": [
            {
              "internalType": "address",
              "name": "holder",
              "type": "address"
            },
            {
              "internalType": "address",
              "name": "to",
              "type": "address"
            },
            {
              "internalType": "uint48",
              "name": "validAfter",
              "type": "uint48"
            },
            {
              "internalType": "uint48",
              "name": "validBefore",
              "type": "uint48"
            },
            {
              "internalType": "bytes32",
              "name": "nonce",
              "type": "bytes32"
            },
            {
              "internalType": "bytes32",
              "name": "encryptedAmountHash",
              "type": "bytes32"
            }
          ],
          "internalType": "struct FHEToken.UnwrapAuthorization",
          "name": "p",
          "type": "tuple"
        },
        {
          "internalType": "externalEuint64",
          "name": "encryptedAmountInput",
          "type": "bytes32"
        },
        {
          "internalType": "bytes",
          "name": "inputProof",
          "type": "bytes"
        },
        {
          "internalType": "bytes",
          "name": "sig",
          "type": "bytes"
        }
      ],
      "name": "unwrapWithAuthorization",
      "outputs": [],
      "stateMutability": "nonpayable",
      "type": "function"
    },
    {
      "inputs": [
        {
          "internalType": "address",
          "name": "",
          "type": "address"
        },
        {
          "internalType": "bytes32",
          "name": "",
          "type": "bytes32"
        }
      ],
      "name": "usedNonces",
      "outputs": [
        {
          "internalType": "bool",
          "name": "",
          "type": "bool"
        }
      ],
      "stateMutability": "view",
      "type": "function"
    },
    {
      "inputs": [
        {
          "internalType": "address",
          "name": "to",
          "type": "address"
        },
        {
          "internalType": "uint256",
          "name": "amount",
          "type": "uint256"
        }
      ],
      "name": "wrap",
      "outputs": [],
      "stateMutability": "nonpayable",
      "type": "function"
    }
  ],
  "transactionHash": "0x8788e50564f946f022be8860d52c3dd1d098c791d6feddb3a77f74e5cc64bd10",
  "args": [
    "Confidential USDC",
    "confUSDC",
    "https://docs.mindnetwork.xyz/minddocs/product/x402z",
    "0x24AD8c259865b26570d0743254bDAdCaCb7F7D61"
  ],
  "numDeployments": 8,
  "solcInputHash": "76c4c6aef39959f8bf422fbb2a618cbf",
  "bytecode": "0x6101c0604052348015610010575f5ffd5b5060405161451638038061451683398101604081905261002f916105c5565b6040805180820190915260018152603160f81b6020820152849082828686610101610058610244565b80517f9e7b61f58c47dc699ac88507c4f5bb9f121c03808c5676a8078fe583e464970080546001600160a01b03199081166001600160a01b039384161790915560208301517f9e7b61f58c47dc699ac88507c4f5bb9f121c03808c5676a8078fe583e46497018054831691841691909117905560408301517f9e7b61f58c47dc699ac88507c4f5bb9f121c03808c5676a8078fe583e46497028054909216921691909117905550565b600361010d84826106f8565b50600461011a83826106f8565b50600561012782826106f8565b5050506001600160a01b038216608052505f610142826103f3565b9050600660ff82168110156101755760ff811660a05261016281836107c6565b61016d90600a6108c2565b60c052610182565b60ff821660a052600160c0525b50610192915083905060086104b0565b610180526101a18160096104b0565b6101a0528151602080840191909120610140528151908201206101605246610100526102306101405161016051604080517f8b73c3c69bb8fe3d512ecc4cf759cc79239f7b179b0ffacaa9a75d522b39400f60208201529081019290925260608201524660808201523060a08201525f9060c00160405160208183030381529060405280519060200120905090565b60e052505030610120525061096592505050565b604080516060810182525f8082526020820181905291810191909152466001036102dd575060408051606080820183525f8083526020808401829052928401528251908101835273ca2e8f1f656cd25c01f05d0b243ab1ecd4a8ffb6815273d82385dada1ae3e969447f20a3164f6213100e75918101919091527377627828a55156b04ac0dc0eb30467f1a552bb039181019190915290565b4662aa36a70361035c575060408051606080820183525f8083526020808401829052928401528251908101835273f0ffdc93b7e186bc2f8cb3daa75d86d1930a433d81527392c920834ec8941d2c77d188936e1f7a6f49c1279181019190915273be0e383937d564d7ff0bc3b46c51f0bf8d5c311a9181019190915290565b46617a69036103da575060408051606080820183525f808352602080840182905292840152825190810183527350157cffd6bbfa2dece204a89ec419c23ef5755d815273e3a9105a3a932253a70f126eb1e3b589c643dd249181019190915273901f8942346f7ab3a01f6d7613119bca447bb0309181019190915290565b6040516373cac13b60e01b815260040160405180910390fd5b60408051600481526024810182526020810180516001600160e01b031663313ce56760e01b17905290515f91829182916001600160a01b0386169161043891906108d7565b5f60405180830381855afa9150503d805f8114610470576040519150601f19603f3d011682016040523d82523d5f602084013e610475565b606091505b5091509150818015610488575080516020145b156104a957808060200190518101906104a191906108ed565b949350505050565b60126104a1565b5f6020835110156104cb576104c4836104e2565b90506104dc565b816104d684826106f8565b5060ff90505b92915050565b5f5f829050601f81511115610515578260405163305a27a960e01b815260040161050c919061090d565b60405180910390fd5b805161052082610942565b179392505050565b634e487b7160e01b5f52604160045260245ffd5b5f82601f83011261054b575f5ffd5b81516001600160401b0381111561056457610564610528565b604051601f8201601f19908116603f011681016001600160401b038111828210171561059257610592610528565b6040528181528382016020018510156105a9575f5ffd5b8160208501602083015e5f918101602001919091529392505050565b5f5f5f5f608085870312156105d8575f5ffd5b84516001600160401b038111156105ed575f5ffd5b6105f98782880161053c565b602087015190955090506001600160401b03811115610616575f5ffd5b6106228782880161053c565b604087015190945090506001600160401b0381111561063f575f5ffd5b61064b8782880161053c565b606087015190935090506001600160a01b0381168114610669575f5ffd5b939692955090935050565b600181811c9082168061068857607f821691505b6020821081036106a657634e487b7160e01b5f52602260045260245ffd5b50919050565b601f8211156106f357805f5260205f20601f840160051c810160208510156106d15750805b601f840160051c820191505b818110156106f0575f81556001016106dd565b50505b505050565b81516001600160401b0381111561071157610711610528565b6107258161071f8454610674565b846106ac565b6020601f821160018114610757575f83156107405750848201515b5f19600385901b1c1916600184901b1784556106f0565b5f84815260208120601f198516915b828110156107865787850151825560209485019460019092019101610766565b50848210156107a357868401515f19600387901b60f8161c191681555b50505050600190811b01905550565b634e487b7160e01b5f52601160045260245ffd5b60ff82811682821603908111156104dc576104dc6107b2565b6001815b600184111561081a578085048111156107fe576107fe6107b2565b600184161561080c57908102905b60019390931c9280026107e3565b935093915050565b5f82610830575060016104dc565b8161083c57505f6104dc565b8160018114610852576002811461085c57610878565b60019150506104dc565b60ff84111561086d5761086d6107b2565b50506001821b6104dc565b5060208310610133831016604e8410600b841016171561089b575081810a6104dc565b6108a75f1984846107df565b805f19048211156108ba576108ba6107b2565b029392505050565b5f6108d060ff841683610822565b9392505050565b5f82518060208501845e5f920191825250919050565b5f602082840312156108fd575f5ffd5b815160ff811681146108d0575f5ffd5b602081525f82518060208401528060208501604085015e5f604082850101526040601f19601f83011684010191505092915050565b805160208083015191908110156106a6575f1960209190910360031b1b16919050565b60805160a05160c05160e05161010051610120516101405161016051610180516101a051613af5610a215f395f611d1201525f611ce501525f61286c01525f61284401525f61279f01525f6127c901525f6127f301525f818161030401528181610a8101528181610c7601528181610cb101528181611178015281816111bb015261186001525f61034201525f818161042a01528181610a5c01528181610bfc01528181610ce30152818161115201526118810152613af55ff3fe608060405234801561000f575f5ffd5b5060043610610269575f3560e01c806388a7ca5c11610157578063ca423a44116100d2578063e064b9bb11610088578063e8c15fd41161006e578063e8c15fd4146105d1578063eb3155b5146105e4578063f89d30b1146105f7575f5ffd5b8063e064b9bb146105b6578063e8a3d485146105c9575f5ffd5b8063d4febb96116100b8578063d4febb961461057d578063d806180614610590578063de642119146105a3575f5ffd5b8063ca423a441461053f578063cb2ca1cd14610552575f5ffd5b8063a29e955a11610127578063b6363cf21161010d578063b6363cf214610506578063bf376c7a14610519578063c7b8a75e1461052c575f5ffd5b8063a29e955a146104e0578063b1af281e146104f3575f5ffd5b806388a7ca5c1461047d5780638927b030146104a95780638e403682146104b157806395d89b41146104d8575f5ffd5b806334c45743116101e75780635bebed7e116101b75780635fda04c71161019d5780635fda04c7146103fb5780636f307dc31461042857806384b0196e14610462575f5ffd5b80635bebed7e146103d55780635bf4ef06146103e8575f5ffd5b806334c4574314610394578063537d3c50146103a757806354095227146103ba5780635bb67a05146103c2575f5ffd5b80632ab4d0521161023c5780632fb74e62116102225780632fb74e6214610328578063313ce5671461033b578063344ff1011461036c575f5ffd5b80632ab4d052146102f45780632c4e722e14610302575f5ffd5b806301ffc9a71461026d57806306fdde03146102955780631c29a51b146102aa57806329a87d18146102bf575b5f5ffd5b61028061027b366004613273565b6105ff565b60405190151581526020015b60405180910390f35b61029d610635565b60405161028c91906132c8565b6102bd6102b83660046132f5565b6106c5565b005b6102e67fbceef79abd64808802208eed9a3e076550213b3e68971ff109562bfeaa364ed981565b60405190815260200161028c565b67ffffffffffffffff6102e6565b7f00000000000000000000000000000000000000000000000000000000000000006102e6565b6102e661033636600461335b565b6107ef565b60405160ff7f000000000000000000000000000000000000000000000000000000000000000016815260200161028c565b6102e661037a3660046133b1565b6001600160a01b03165f9081526020819052604090205490565b6102e66103a23660046133ca565b610847565b6102e66103b536600461335b565b6108f0565b6002546102e6565b6102bd6103d0366004613463565b610952565b6102e66103e33660046134af565b610b0c565b6102bd6103f63660046134d7565b610b5e565b6102806104093660046134af565b600a60209081525f928352604080842090915290825290205460ff1681565b7f00000000000000000000000000000000000000000000000000000000000000005b6040516001600160a01b03909116815260200161028c565b61046a610bae565b60405161028c9796959493929190613541565b61049061048b3660046134d7565b610bf0565b6040516001600160e01b0319909116815260200161028c565b6102e6610d1d565b6102e67ff9d19b58c8ed207b8b48eac436b499af97cd9dcdf9b90507324501e1609f79a581565b61029d610d26565b6102e66104ee3660046135d7565b610d35565b6102bd610501366004613463565b611006565b6102806105143660046132f5565b6110fb565b6102bd6105273660046134af565b61114d565b6102e661053a3660046134d7565b6111e0565b6102bd61054d36600461366c565b611283565b61044a6105603660046133b1565b6001600160a01b039081165f908152600660205260409020541690565b6102bd61058b3660046136f5565b6115fd565b6102bd61059e36600461371d565b61160c565b6102e66105b1366004613734565b611684565b6102e66105c43660046134d7565b6116e0565b61029d611765565b6102bd6105df36600461379f565b611774565b6102e66105f236600461379f565b6117be565b6102e661185d565b5f6001600160e01b031982166312563ca960e21b148061062f57506301ffc9a760e01b6001600160e01b03198316145b92915050565b606060038054610644906137d9565b80601f0160208091040260200160405190810160405280929190818152602001828054610670906137d9565b80156106bb5780601f10610692576101008083540402835291602001916106bb565b820191905f5260205f20905b81548152906001019060200180831161069e57829003601f168201915b5050505050905090565b6001600160a01b038281165f81815260066020526040902054909116903314806107095750336001600160a01b03821614801561070957506001600160a01b038216155b610725576040516282b42960e81b815260040160405180910390fd5b816001600160a01b0316816001600160a01b0316146107ea576001600160a01b03821615610779576001600160a01b0383165f908152602081905260409020548015610777576107758184611912565b505b505b6001600160a01b038381165f8181526006602090815260409182902080546001600160a01b0319168786169081179091558251938452938516908301528101919091527fad4bc30e1189aef94c7b30a5e1268679357170a0797dccd08d578750ceee9b5a9060600160405180910390a15b505050565b5f61083933866108348787878080601f0160208091040260200160405190810160405280939291908181526020018383808284375f9201919091525061193592505050565b611982565b95945050505050565b905090565b5f61085288336110fb565b8833909161088b57604051630f3e596760e31b81526001600160a01b039283166004820152911660248201526044015b60405180910390fd5b50506108d888886108d18989898080601f0160208091040260200160405190810160405280939291908181526020018383808284375f9201919091525061193592505050565b8686611a00565b90506108e48133611a57565b50979650505050505050565b5f6108fb8433611a73565b8433909161092e576040516367cfe80560e01b815260048101929092526001600160a01b03166024820152604401610882565b505061093d3386868686611a00565b90506109498133611a57565b50949350505050565b5f848152600b60205260409020546001600160a01b0316806109805761097a85858585611a7e565b50610b06565b5f858152600b6020526040812080546001600160a01b031916905560015b6040519080825280602002602001820160405280156109c7578160200160208202803683370190505b50905085815f815181106109dd576109dd613811565b6020026020010181815250505f85604051602001610a0b919067ffffffffffffffff91909116815260200190565b60408051601f198184030181526020601f88018190048102840181019092528683529250610a5791849184919089908990819084018382808284375f92019190915250611ada92505050565b610ab57f000000000000000000000000000000000000000000000000000000000000000084610ab07f000000000000000000000000000000000000000000000000000000000000000067ffffffffffffffff8b16613839565b611b45565b6040805188815267ffffffffffffffff881660208201526001600160a01b038516917f2d4edf3c2943002120f53dab3f8940043f34799f4a92ab90f2f81f7dd004a49e910160405180910390a25050505b50505050565b5f610b178233611a73565b82339091610b4a576040516367cfe80560e01b815260048101929092526001600160a01b03166024820152604401610882565b5050610b57338484611982565b9392505050565b610ba78585610ba28686868080601f0160208091040260200160405190810160405280939291908181526020018383808284375f9201919091525061193592505050565b611bb9565b5050505050565b5f6060805f5f5f6060610bbf611cde565b610bc7611d0b565b604080515f80825260208201909252600f60f81b9b939a50919850469750309650945092509050565b5f336001600160a01b037f0000000000000000000000000000000000000000000000000000000000000000168114610c475760405163782c6ffd60e01b81526001600160a01b039091166004820152602401610882565b505f60148310610c6357610c5b8385613850565b60601c610c65565b855b9050610caa81610ca5610ca0610c9b7f00000000000000000000000000000000000000000000000000000000000000008a6138b1565b611d38565b611d72565b611d88565b505f610cd67f0000000000000000000000000000000000000000000000000000000000000000876138c4565b90508015610d0957610d097f00000000000000000000000000000000000000000000000000000000000000008883611b45565b50632229f29760e21b979650505050505050565b5f610842611dc9565b606060048054610644906137d9565b5f80610d4460208901896133b1565b6001600160a01b031603610d6b57604051634971ba2d60e01b815260040160405180910390fd5b5f610d7c6040890160208a016133b1565b6001600160a01b031603610da357604051631670f44760e31b815260040160405180910390fd5b42610db460a0890160808a016138d7565b65ffffffffffff168165ffffffffffff161015610de457604051633fb4e43f60e01b815260040160405180910390fd5b610df460c0890160a08a016138d7565b65ffffffffffff168165ffffffffffff161115610e2457604051630f05f5bf60e01b815260040160405180910390fd5b610e3e610e3460208a018a6133b1565b8960c00135611dfd565b8760e0013587604051602001610e5691815260200190565b6040516020818303038152906040528051906020012014610e8a5760405163cde7ac4160e01b815260040160405180910390fd5b5f610e9c610e978a611e6f565b611f5c565b9050610eab60208a018a6133b1565b6001600160a01b0316610ef38287878080601f0160208091040260200160405190810160405280939291908181526020018383808284375f92019190915250611f8892505050565b6001600160a01b031614610f1a57604051638baa579f60e01b815260040160405180910390fd5b610f79610f2a60208b018b6133b1565b610f3a60408c0160208d016133b1565b6108348b8b8b8080601f0160208091040260200160405190810160405280939291908181526020018383808284375f9201919091525061193592505050565b92506060890135610f9060408b0160208c016133b1565b6001600160a01b0316610fa660208c018c6133b1565b60408051818e0135815260c08e013560208201529081018790526001600160a01b0391909116907f89b05e4686afbee57493abedc5dead82e72c7590c3313b1ad90bf99403579efe9060600160405180910390a450509695505050505050565b6040805160018082528183019092525f916020808301908036833701905050905084815f8151811061103a5761103a613811565b6020026020010181815250505f84604051602001611068919067ffffffffffffffff91909116815260200190565b60408051601f198184030181526020601f870181900481028401810190925285835292506110b491849184919088908890819084018382808284375f92019190915250611ada92505050565b60405167ffffffffffffffff8616815286907f83bbbc07896439e5d950a6cead04cbc676180af7a61cecf43f5296475057f5719060200160405180910390a2505050505050565b5f816001600160a01b0316836001600160a01b03161480610b575750506001600160a01b039182165f90815260016020908152604080832093909416825291909152205465ffffffffffff1642111590565b6111ac7f0000000000000000000000000000000000000000000000000000000000000000333061119d7f0000000000000000000000000000000000000000000000000000000000000000866138c4565b6111a790866138f0565b611fb0565b6107ea82610ca5610ca0610c9b7f0000000000000000000000000000000000000000000000000000000000000000866138b1565b5f6111eb8433611a73565b8433909161121e576040516367cfe80560e01b815260048101929092526001600160a01b03166024820152604401610882565b505061122a86336110fb565b8633909161125e57604051630f3e596760e31b81526001600160a01b03928316600482015291166024820152604401610882565b505061126d8686868686611a00565b90506112798133611a57565b5095945050505050565b5f61129160208801886133b1565b6001600160a01b0316036112b857604051634971ba2d60e01b815260040160405180910390fd5b5f6112c960408801602089016133b1565b6001600160a01b0316036112f057604051634e46966960e11b815260040160405180910390fd5b4261130160608801604089016138d7565b65ffffffffffff168165ffffffffffff16101561133157604051633fb4e43f60e01b815260040160405180910390fd5b61134160808801606089016138d7565b65ffffffffffff168165ffffffffffff16111561137157604051630f05f5bf60e01b815260040160405180910390fd5b61138b61138160208901896133b1565b8860800135611dfd565b8660a00135866040516020016113a391815260200190565b60405160208183030381529060405280519060200120146113d75760405163cde7ac4160e01b815260040160405180910390fd5b5f6113e4610e9789611fe9565b90506113f360208901896133b1565b6001600160a01b031661143b8286868080601f0160208091040260200160405190810160405280939291908181526020018383808284375f92019190915250611f8892505050565b6001600160a01b03161461146257604051638baa579f60e01b815260040160405180910390fd5b5f6114a28888888080601f0160208091040260200160405190810160405280939291908181526020018383808284375f9201919091525061193592505050565b90505f6114bb6114b560208c018c6133b1565b836120a4565b90506114c6816120e5565b505f818152600b60205260409020546001600160a01b0316156114eb576114eb613903565b6114fb60408b0160208c016133b1565b5f828152600b602090815260409182902080546001600160a01b0319166001600160a01b03949094169390931790925561153a91908c01908c016133b1565b6001600160a01b03167f77d02d353c5629272875d11f1b34ec4c65d7430b075575b78cd2502034c469ee8260405161157491815260200190565b60405180910390a261158c60408b0160208c016133b1565b6001600160a01b03166115a260208c018c6133b1565b6001600160a01b03167f0f01bbf534ac3f56ecb3dab95173b91b371f5b817383a1fe2c4eade37a63b7c78c60800135846040516115e9929190918252602082015260400190565b60405180910390a350505050505050505050565b611608338383612100565b5050565b6116168133611a73565b81339091611649576040516367cfe80560e01b815260048101929092526001600160a01b03166024820152604401610882565b5050611654816120e5565b50604051339082907f189c3bfae2e5ce7726b29d57bb6ed0f1a7ebcd153a863ff5ecb6cd998064c98c905f90a350565b5f6116c933886108d18989898080601f0160208091040260200160405190810160405280939291908181526020018383808284375f9201919091525061193592505050565b90506116d58133611a57565b509695505050505050565b5f6116eb86336110fb565b8633909161171f57604051630f3e596760e31b81526001600160a01b03928316600482015291166024820152604401610882565b505061126d86866108348787878080601f0160208091040260200160405190810160405280939291908181526020018383808284375f9201919091525061193592505050565b606060058054610644906137d9565b61177e8133611a73565b813390916117b1576040516367cfe80560e01b815260048101929092526001600160a01b03166024820152604401610882565b50506107ea838383611bb9565b5f6117c98233611a73565b823390916117fc576040516367cfe80560e01b815260048101929092526001600160a01b03166024820152604401610882565b505061180884336110fb565b8433909161183c57604051630f3e596760e31b81526001600160a01b03928316600482015291166024820152604401610882565b5050611849848484611982565b90506118558133611a57565b509392505050565b5f7f00000000000000000000000000000000000000000000000000000000000000007f00000000000000000000000000000000000000000000000000000000000000006040516370a0823160e01b81523060048201526001600160a01b0391909116906370a0823190602401602060405180830381865afa1580156118e4573d5f5f3e3d5ffd5b505050506040513d601f19601f820116820180604052508101906119089190613917565b61084291906138b1565b5f82611924576119215f611d72565b92505b61192e8383612177565b5090919050565b5f81515f146119515761194a838360056121eb565b905061062f565b8261195c81336122f8565b61194a57604051630276b5d960e01b815260048101829052336024820152604401610882565b5f806001600160a01b0385166119b75760405163ee457ebf60e01b81526001600160a01b039091166004820152602401610882565b505f6001600160a01b0384166119ec57604051638d51880160e01b81526001600160a01b039091166004820152602401610882565b506119f884848461237c565b949350505050565b5f5f611a0d878787611982565b90505f611a1e338989858989612388565b90505f611a3e888a611a3985611a335f611d72565b8861248c565b61237c565b9050611a4a83826124cb565b9998505050505050505050565b5f82611a6957611a665f611d72565b92505b61192e83836124f9565b5f610b5783836122f8565b5f848152600760205260409020546001600160a01b03168481611ab7576040516368b187c760e11b815260040161088291815260200190565b505f85815260076020526040812080546001600160a01b0319169055600161099e565b5f611ae684848461253f565b905080611b065760405163cf6c44e960e01b815260040160405180910390fd5b7fc6366bab028b8d033cb362cfd1f2f3457ef4e92fc738b6788b90d5a7846367a08484604051611b37929190613968565b60405180910390a150505050565b6040516001600160a01b038381166024830152604482018390526107ea91859182169063a9059cbb906064015b604051602081830303815290604052915060e01b6020820180517bffffffffffffffffffffffffffffffffffffffffffffffffffffffff83818316178352505050506125e3565b816001600160a01b038116611bed57604051638d51880160e01b81526001600160a01b039091166004820152602401610882565b506001600160a01b038316331480611c0a5750611c0a83336110fb565b83339091611c3e57604051630f3e596760e31b81526001600160a01b03928316600482015291166024820152604401610882565b50505f611c4b84836120a4565b9050611c56816120e5565b505f818152600760205260409020546001600160a01b031615611c7b57611c7b613903565b5f8181526007602090815260409182902080546001600160a01b0319166001600160a01b03871690811790915591518381527f77d02d353c5629272875d11f1b34ec4c65d7430b075575b78cd2502034c469ee910160405180910390a250505050565b60606108427f0000000000000000000000000000000000000000000000000000000000000000600861264f565b60606108427f0000000000000000000000000000000000000000000000000000000000000000600961264f565b5f67ffffffffffffffff821115611d6e57604080516306dfcc6560e41b8152600481019190915260248101839052604401610882565b5090565b5f61062f8267ffffffffffffffff1660056126f1565b5f806001600160a01b038416611dbd57604051638d51880160e01b81526001600160a01b039091166004820152602401610882565b50610b575f848461237c565b5f46600103611dd85750600190565b4662aa36a703611de9575061271190565b46617a6903611df857505f1990565b505f90565b6001600160a01b0382165f908152600a6020908152604080832084845290915290205460ff1615611e4057604051623f613760e71b815260040160405180910390fd5b6001600160a01b039091165f908152600a6020908152604080832093835292905220805460ff19166001179055565b5f7fbceef79abd64808802208eed9a3e076550213b3e68971ff109562bfeaa364ed9611e9e60208401846133b1565b611eae60408501602086016133b1565b60408501356060860135611ec860a08801608089016138d7565b611ed860c0890160a08a016138d7565b6040805160208101989098526001600160a01b0396871690880152949093166060860152608085019190915260a084015265ffffffffffff90811660c084810191909152911660e08381019190915290840135610100830152830135610120820152610140015b604051602081830303815290604052805190602001209050919050565b5f61062f611f68612793565b8360405161190160f01b8152600281019290925260228201526042902090565b5f5f5f5f611f9686866128bc565b925092509250611fa68282612905565b5090949350505050565b6040516001600160a01b038481166024830152838116604483015260648201839052610b069186918216906323b872dd90608401611b72565b5f7ff9d19b58c8ed207b8b48eac436b499af97cd9dcdf9b90507324501e1609f79a561201860208401846133b1565b61202860408501602086016133b1565b61203860608601604087016138d7565b61204860808701606088016138d7565b6040805160208101969096526001600160a01b039485169086015292909116606084015265ffffffffffff908116608084810191909152911660a0838101919091529084013560c083015283013560e082015261010001611f3f565b5f806001600160a01b0384166120d95760405163ee457ebf60e01b81526001600160a01b039091166004820152602401610882565b50610b57835f8461237c565b5f816120f7576120f45f611d72565b91505b611d6e826129bd565b6001600160a01b038381165f81815260016020908152604080832094871680845294825291829020805465ffffffffffff191665ffffffffffff871690811790915591519182527f921a218a75d18e8ec5704851e6b234a85725b21a2521ce889622c35dedc1fa12910160405180910390a3505050565b5f516020613ac95f395f51905f528054604051635ca4b5b160e11b8152600481018590526001600160a01b0384811660248301529091169063b9496b62906044015b5f604051808303815f87803b1580156121d0575f5ffd5b505af11580156121e2573d5f5f3e3d5ffd5b50505050505050565b7f9e7b61f58c47dc699ac88507c4f5bb9f121c03808c5676a8078fe583e46497015460405163045fc19560e11b81525f915f516020613ac95f395f51905f52916001600160a01b03909116906308bf832a906122519088903390899089906004016139c0565b6020604051808303815f875af115801561226d573d5f5f3e3d5ffd5b505050506040513d601f19601f820116820180604052508101906122919190613917565b8154604051630f8e573b60e21b8152600481018390523360248201529193506001600160a01b031690633e395cec906044015f604051808303815f87803b1580156122da575f5ffd5b505af11580156122ec573d5f5f3e3d5ffd5b50505050509392505050565b5f805f516020613ac95f395f51905f5280546040516382027b6d60e01b8152600481018790526001600160a01b0386811660248301529293509116906382027b6d90604401602060405180830381865afa158015612358573d5f5f3e3d5ffd5b505050506040513d601f19601f820116820180604052508101906119f891906139f6565b5f6119f8848484612a3b565b5f6001600160a01b0385163b15612475576040516346083bfd60e01b81526001600160a01b038616906346083bfd906123cd908a908a90899089908990600401613a15565b6020604051808303815f875af1925050508015612407575060408051601f3d908101601f1916820190925261240491810190613917565b60015b61246e573d808015612434576040519150601f19603f3d011682016040523d82523d5f602084013e612439565b606091505b5080515f0361246657604051638d51880160e01b81526001600160a01b0387166004820152602401610882565b805181602001fd5b9050612482565b61247f6001612b0f565b90505b9695505050505050565b5f8361249e5761249b5f612b0f565b93505b826124af576124ac5f611d72565b92505b816124c0576124bd5f611d72565b91505b6119f8848484612b2a565b5f826124dd576124da5f611d72565b92505b816124ee576124eb5f611d72565b91505b610b5783835f612bb7565b5f516020613ac95f395f51905f528054604051630f8e573b60e21b8152600481018590526001600160a01b03848116602483015290911690633e395cec906044016121b9565b7f9e7b61f58c47dc699ac88507c4f5bb9f121c03808c5676a8078fe583e4649702546040516378542ead60e01b81525f915f516020613ac95f395f51905f52916001600160a01b03909116906378542ead906125a390889088908890600401613a6a565b6020604051808303815f875af11580156125bf573d5f5f3e3d5ffd5b505050506040513d601f19601f8201168201806040525081019061083991906139f6565b5f5f60205f8451602086015f885af180612602576040513d5f823e3d81fd5b50505f513d91508115612619578060011415612626565b6001600160a01b0384163b155b15610b0657604051635274afe760e01b81526001600160a01b0385166004820152602401610882565b606060ff83146126625761194a83612c7d565b81805461266e906137d9565b80601f016020809104026020016040519081016040528092919081815260200182805461269a906137d9565b80156126e55780601f106126bc576101008083540402835291602001916126e5565b820191905f5260205f20905b8154815290600101906020018083116126c857829003601f168201915b5050505050905061062f565b7f9e7b61f58c47dc699ac88507c4f5bb9f121c03808c5676a8078fe583e464970154604051639cd07acb60e01b81525f915f516020613ac95f395f51905f52916001600160a01b0390911690639cd07acb906127539087908790600401613aa2565b6020604051808303815f875af115801561276f573d5f5f3e3d5ffd5b505050506040513d601f19601f820116820180604052508101906119f89190613917565b5f306001600160a01b037f0000000000000000000000000000000000000000000000000000000000000000161480156127eb57507f000000000000000000000000000000000000000000000000000000000000000046145b1561281557507f000000000000000000000000000000000000000000000000000000000000000090565b610842604080517f8b73c3c69bb8fe3d512ecc4cf759cc79239f7b179b0ffacaa9a75d522b39400f60208201527f0000000000000000000000000000000000000000000000000000000000000000918101919091527f000000000000000000000000000000000000000000000000000000000000000060608201524660808201523060a08201525f9060c00160405160208183030381529060405280519060200120905090565b5f5f5f83516041036128f3576020840151604085015160608601515f1a6128e588828585612cba565b9550955095505050506128fe565b505081515f91506002905b9250925092565b5f8260038111156129185761291861398c565b03612921575050565b60018260038111156129355761293561398c565b036129535760405163f645eedf60e01b815260040160405180910390fd5b60028260038111156129675761296761398c565b036129885760405163fce698f760e01b815260048101829052602401610882565b600382600381111561299c5761299c61398c565b03611608576040516335e2f38360e21b815260048101829052602401610882565b6040805160018082528183019092525f516020613ac95f395f51905f52915f91906020808301908036833701905050905082815f81518110612a0157612a01613811565b60209081029190910101528154604051637d6e912360e11b81526001600160a01b039091169063fadd2246906121b9908490600401613ab6565b5f612a47848484612d82565b6001600160a01b038581165f90815260066020526040808220548784168352912054929350811691168115612aaa57612a9d612a97876001600160a01b03165f9081526020819052604090205490565b83611912565b50612aa88383611912565b505b6001600160a01b03811615612b0657612ae0612ada866001600160a01b03165f9081526020819052604090205490565b82611912565b50816001600160a01b0316816001600160a01b031614612b0657612b048382611912565b505b50509392505050565b5f61062f82612b1e575f612b21565b60015b60ff165f6126f1565b5f805f516020613ac95f395f51905f526001810154604051637702dcff60e01b81526004810188905260248101879052604481018690529192506001600160a01b031690637702dcff906064016020604051808303815f875af1158015612b93573d5f5f3e3d5ffd5b505050506040513d601f19601f820116820180604052508101906108399190613917565b5f5f8215612bca5750600160f81b612bcd565b505f5b7f9e7b61f58c47dc699ac88507c4f5bb9f121c03808c5676a8078fe583e4649701546040516303056db360e31b815260048101879052602481018690526001600160f81b0319831660448201525f516020613ac95f395f51905f52916001600160a01b03169063182b6d98906064015b6020604051808303815f875af1158015612c59573d5f5f3e3d5ffd5b505050506040513d601f19601f820116820180604052508101906124829190613917565b60605f612c8983612f5f565b6040805160208082528183019092529192505f91906020820181803683375050509182525060208101929092525090565b5f80807f7fffffffffffffffffffffffffffffff5d576e7357a4501ddfe92f46681b20a0841115612cf357505f91506003905082612d78565b604080515f808252602082018084528a905260ff891692820192909252606081018790526080810186905260019060a0016020604051602081039080840390855afa158015612d44573d5f5f3e3d5ffd5b5050604051601f1901519150506001600160a01b038116612d6f57505f925060019150829050612d78565b92505f91508190505b9450945094915050565b5f80806001600160a01b038616612db857612d9f60025485612f86565b9092509050612dad81612fd0565b506002819055612e3c565b6001600160a01b0386165f908152602081905260409020548681612dfb576040516317fe473760e21b81526001600160a01b039091166004820152602401610882565b50612e068186612fec565b9093509150612e1482612fd0565b50612e1f8288611912565b50506001600160a01b0386165f9081526020819052604090208190555b612e4f8285612e4a5f611d72565b61248c565b92506001600160a01b038516612e8157612e6b600254846124cb565b9050612e7681612fd0565b506002819055612ed5565b6001600160a01b0385165f90815260208190526040902054612ea39084613051565b9050612eae81612fd0565b50612eb98186611912565b506001600160a01b0385165f9081526020819052604090208190555b6001600160a01b03861615612ef057612eee8387611912565b505b6001600160a01b03851615612f0b57612f098386611912565b505b612f1483612fd0565b5082856001600160a01b0316876001600160a01b03167f67500e8d0ed826d2194f514dd0d8124f35648ab6e3fb5e6ed867134cffe661e960405160405180910390a450509392505050565b5f60ff8216601f81111561062f57604051632cd44ac360e21b815260040160405180910390fd5b5f8083612fa157612f976001612b0f565b8391509150612fc9565b5f612fac8585613051565b9050612fb8818661307f565b9250612fc583828761248c565b9150505b9250929050565b5f81612fe257612fdf5f611d72565b91505b611d6e8230612177565b5f8083613028578261300c576130026001612b0f565b8491509150612fc9565b613016835f6130ad565b61301f5f611d72565b91509150612fc9565b613032848461307f565b91506130488261304286866124cb565b8661248c565b90509250929050565b5f82613063576130605f611d72565b92505b81613074576130715f611d72565b91505b610b5783835f6130d5565b5f826130915761308e5f611d72565b92505b816130a25761309f5f611d72565b91505b610b5783835f61315f565b5f826130bf576130bc5f611d72565b92505b610b578367ffffffffffffffff841660016131e9565b5f5f82156130e85750600160f81b6130eb565b505f5b7f9e7b61f58c47dc699ac88507c4f5bb9f121c03808c5676a8078fe583e46497015460405163022f65e760e31b815260048101879052602481018690526001600160f81b0319831660448201525f516020613ac95f395f51905f52916001600160a01b03169063117b2f3890606401612c3d565b5f5f82156131725750600160f81b613175565b505f5b7f9e7b61f58c47dc699ac88507c4f5bb9f121c03808c5676a8078fe583e464970154604051631391547f60e01b815260048101879052602481018690526001600160f81b0319831660448201525f516020613ac95f395f51905f52916001600160a01b031690631391547f90606401612c3d565b5f5f82156131fc5750600160f81b6131ff565b505f5b7f9e7b61f58c47dc699ac88507c4f5bb9f121c03808c5676a8078fe583e46497015460405163f77f3f1d60e01b815260048101879052602481018690526001600160f81b0319831660448201525f516020613ac95f395f51905f52916001600160a01b03169063f77f3f1d90606401612c3d565b5f60208284031215613283575f5ffd5b81356001600160e01b031981168114610b57575f5ffd5b5f81518084528060208401602086015e5f602082860101526020601f19601f83011685010191505092915050565b602081525f610b57602083018461329a565b80356001600160a01b03811681146132f0575f5ffd5b919050565b5f5f60408385031215613306575f5ffd5b61330f836132da565b9150613048602084016132da565b5f5f83601f84011261332d575f5ffd5b50813567ffffffffffffffff811115613344575f5ffd5b602083019150836020828501011115612fc9575f5ffd5b5f5f5f5f6060858703121561336e575f5ffd5b613377856132da565b935060208501359250604085013567ffffffffffffffff811115613399575f5ffd5b6133a58782880161331d565b95989497509550505050565b5f602082840312156133c1575f5ffd5b610b57826132da565b5f5f5f5f5f5f5f60a0888a0312156133e0575f5ffd5b6133e9886132da565b96506133f7602089016132da565b955060408801359450606088013567ffffffffffffffff811115613419575f5ffd5b6134258a828b0161331d565b909550935050608088013567ffffffffffffffff811115613444575f5ffd5b6134508a828b0161331d565b989b979a50959850939692959293505050565b5f5f5f5f60608587031215613476575f5ffd5b84359350602085013567ffffffffffffffff81168114613494575f5ffd5b9250604085013567ffffffffffffffff811115613399575f5ffd5b5f5f604083850312156134c0575f5ffd5b6134c9836132da565b946020939093013593505050565b5f5f5f5f5f608086880312156134eb575f5ffd5b6134f4866132da565b9450613502602087016132da565b935060408601359250606086013567ffffffffffffffff811115613524575f5ffd5b6135308882890161331d565b969995985093965092949392505050565b60ff60f81b8816815260e060208201525f61355f60e083018961329a565b8281036040840152613571818961329a565b606084018890526001600160a01b038716608085015260a0840186905283810360c0850152845180825260208087019350909101905f5b818110156135c65783518352602093840193909201916001016135a8565b50909b9a5050505050505050505050565b5f5f5f5f5f5f8688036101608112156135ee575f5ffd5b6101008112156135fc575f5ffd5b50869550610100860135945061012086013567ffffffffffffffff811115613622575f5ffd5b61362e89828a0161331d565b90955093505061014087013567ffffffffffffffff81111561364e575f5ffd5b61365a89828a0161331d565b979a9699509497509295939492505050565b5f5f5f5f5f5f868803610120811215613683575f5ffd5b60c0811215613690575f5ffd5b5086955060c0860135945060e086013567ffffffffffffffff8111156136b4575f5ffd5b6136c089828a0161331d565b90955093505061010087013567ffffffffffffffff81111561364e575f5ffd5b803565ffffffffffff811681146132f0575f5ffd5b5f5f60408385031215613706575f5ffd5b61370f836132da565b9150613048602084016136e0565b5f6020828403121561372d575f5ffd5b5035919050565b5f5f5f5f5f5f60808789031215613749575f5ffd5b613752876132da565b955060208701359450604087013567ffffffffffffffff811115613774575f5ffd5b61378089828a0161331d565b909550935050606087013567ffffffffffffffff81111561364e575f5ffd5b5f5f5f606084860312156137b1575f5ffd5b6137ba846132da565b92506137c8602085016132da565b929592945050506040919091013590565b600181811c908216806137ed57607f821691505b60208210810361380b57634e487b7160e01b5f52602260045260245ffd5b50919050565b634e487b7160e01b5f52603260045260245ffd5b634e487b7160e01b5f52601160045260245ffd5b808202811582820484141761062f5761062f613825565b80356bffffffffffffffffffffffff198116906014841015613896576bffffffffffffffffffffffff196bffffffffffffffffffffffff198560140360031b1b82161691505b5092915050565b634e487b7160e01b5f52601260045260245ffd5b5f826138bf576138bf61389d565b500490565b5f826138d2576138d261389d565b500690565b5f602082840312156138e7575f5ffd5b610b57826136e0565b8181038181111561062f5761062f613825565b634e487b7160e01b5f52600160045260245ffd5b5f60208284031215613927575f5ffd5b5051919050565b5f8151808452602084019350602083015f5b8281101561395e578151865260209586019590910190600101613940565b5093949350505050565b604081525f61397a604083018561392e565b8281036020840152610839818561329a565b634e487b7160e01b5f52602160045260245ffd5b605481106139bc57634e487b7160e01b5f52602160045260245ffd5b9052565b8481526001600160a01b0384166020820152608060408201525f6139e7608083018561329a565b905061083960608301846139a0565b5f60208284031215613a06575f5ffd5b81518015158114610b57575f5ffd5b6001600160a01b03861681526001600160a01b038516602082015283604082015260806060820152816080820152818360a08301375f81830160a090810191909152601f909201601f19160101949350505050565b606081525f613a7c606083018661392e565b8281036020840152613a8e818661329a565b90508281036040840152612482818561329a565b82815260408101610b5760208301846139a0565b602081525f610b57602083018461392e56fe9e7b61f58c47dc699ac88507c4f5bb9f121c03808c5676a8078fe583e4649700a164736f6c634300081b000a",
  "devdoc": {
    "errors": {
      "ECDSAInvalidSignature()": [
        {
          "details": "The signature derives the `address(0)`."
        }
      ],
      "ECDSAInvalidSignatureLength(uint256)": [
        {
          "details": "The signature has an invalid length."
        }
      ],
      "ECDSAInvalidSignatureS(bytes32)": [
        {
          "details": "The signature has an S value that is in the upper half order."
        }
      ],
      "ERC7984InvalidGatewayRequest(uint256)": [
        {
          "details": "The given gateway request ID `requestId` is invalid."
        }
      ],
      "ERC7984InvalidReceiver(address)": [
        {
          "details": "The given receiver `receiver` is invalid for transfers."
        }
      ],
      "ERC7984InvalidSender(address)": [
        {
          "details": "The given sender `sender` is invalid for transfers."
        }
      ],
      "ERC7984UnauthorizedCaller(address)": [
        {
          "details": "The given caller `caller` is not authorized for the current operation."
        }
      ],
      "ERC7984UnauthorizedSpender(address,address)": [
        {
          "details": "The given holder `holder` is not authorized to spend on behalf of `spender`."
        }
      ],
      "ERC7984UnauthorizedUseOfEncryptedAmount(bytes32,address)": [
        {
          "details": "The caller `user` does not have access to the encrypted amount `amount`. NOTE: Try using the equivalent transfer function with an input proof."
        }
      ],
      "ERC7984ZeroBalance(address)": [
        {
          "details": "The holder `holder` is trying to send tokens but has a balance of 0."
        }
      ],
      "SafeCastOverflowedUintDowncast(uint8,uint256)": [
        {
          "details": "Value doesn't fit in an uint of `bits` size."
        }
      ],
      "SafeERC20FailedOperation(address)": [
        {
          "details": "An operation with an ERC-20 token failed."
        }
      ],
      "Unauthorized()": [
        {
          "details": "Thrown when an account tries to set a `newObserver` for a given `account` without proper authority."
        }
      ]
    },
    "events": {
      "AmountDiscloseRequested(bytes32,address)": {
        "details": "Emitted when an encrypted amount `encryptedAmount` is requested for disclosure by `requester`."
      },
      "AmountDisclosed(bytes32,uint64)": {
        "details": "Emitted when an encrypted amount is disclosed. Accounts with access to the encrypted amount `encryptedAmount` that is also accessible to this contract should be able to disclose the amount. This functionality is implementation specific."
      },
      "ConfidentialPaymentExecuted(address,address,uint256,bytes32,bytes32,bytes32)": {
        "details": "Payment execution event (only emits the euint64 handle, not the plaintext amount)"
      },
      "ConfidentialTransfer(address,address,bytes32)": {
        "details": "Emitted when a confidential transfer is made from `from` to `to` of encrypted amount `amount`."
      },
      "EIP712DomainChanged()": {
        "details": "MAY be emitted to signal that the domain could have changed."
      },
      "ERC7984ObserverAccessObserverSet(address,address,address)": {
        "details": "Emitted when the observer is changed for the given account `account`."
      },
      "OperatorSet(address,address,uint48)": {
        "details": "Emitted when the expiration timestamp for an operator `operator` is updated for a given `holder`. The operator may move any amount of tokens on behalf of the holder until the timestamp `until`."
      }
    },
    "kind": "dev",
    "methods": {
      "confidentialBalanceOf(address)": {
        "details": "Returns the confidential balance of the account `account`."
      },
      "confidentialTotalSupply()": {
        "details": "Returns the confidential total supply of the token."
      },
      "confidentialTransfer(address,bytes32)": {
        "details": "Similar to {confidentialTransfer-address-externalEuint64-bytes} but without an input proof. The caller *must* already be allowed by ACL for the given `amount`."
      },
      "confidentialTransfer(address,bytes32,bytes)": {
        "details": "Transfers the encrypted amount `encryptedAmount` to `to` with the given input proof `inputProof`. Returns the encrypted amount that was actually transferred."
      },
      "confidentialTransferAndCall(address,bytes32,bytes)": {
        "details": "Similar to {confidentialTransfer-address-euint64} but with a callback to `to` after the transfer."
      },
      "confidentialTransferAndCall(address,bytes32,bytes,bytes)": {
        "details": "Similar to {confidentialTransfer-address-externalEuint64-bytes} but with a callback to `to` after the transfer. The callback is made to the {IERC7984Receiver-onConfidentialTransferReceived} function on the to address with the actual transferred amount (may differ from the given `encryptedAmount`) and the given data `data`."
      },
      "confidentialTransferFrom(address,address,bytes32)": {
        "details": "Similar to {confidentialTransferFrom-address-address-externalEuint64-bytes} but without an input proof. The caller *must* be already allowed by ACL for the given `amount`."
      },
      "confidentialTransferFrom(address,address,bytes32,bytes)": {
        "details": "Transfers the encrypted amount `encryptedAmount` from `from` to `to` with the given input proof `inputProof`. `msg.sender` must be either `from` or an operator for `from`. Returns the encrypted amount that was actually transferred."
      },
      "confidentialTransferFromAndCall(address,address,bytes32,bytes)": {
        "details": "Similar to {confidentialTransferFrom-address-address-euint64} but with a callback to `to` after the transfer."
      },
      "confidentialTransferFromAndCall(address,address,bytes32,bytes,bytes)": {
        "details": "Similar to {confidentialTransferFrom-address-address-externalEuint64-bytes} but with a callback to `to` after the transfer."
      },
      "confidentialTransferWithAuthorization((address,address,uint256,bytes32,uint48,uint48,bytes32,bytes32),bytes32,bytes,bytes)": {
        "details": "Flow:  1. Validate time window and nonce  2. Ensure encryptedAmountInput matches p.encryptedAmountHash  3. Recover signer via EIP-712 and require signer == p.holder  4. Convert to euint64 via FHE.fromExternal(...)  5. Use ERC7984 internal _transfer to move confidential balance from holder to payee",
        "params": {
          "encryptedAmountInput": "externalEuint64 handle generated by the fhEVM SDK",
          "inputProof": "fhEVM input proof",
          "p": "Payment authorization struct (typed data)",
          "sig": "Holders EIP-712 signature over the typed data"
        },
        "returns": {
          "transferred": "Encrypted amount handle that was transferred"
        }
      },
      "contractURI()": {
        "details": "Returns the contract URI. See https://eips.ethereum.org/EIPS/eip-7572[ERC-7572] for details."
      },
      "discloseEncryptedAmount(bytes32,uint64,bytes)": {
        "details": "Publicly discloses an encrypted value with a given decryption proof. Emits the {AmountDisclosed} event. NOTE: May not be tied to a prior request via {requestDiscloseEncryptedAmount}."
      },
      "eip712Domain()": {
        "details": "returns the fields and values that describe the domain separator used by this contract for EIP-712 signature."
      },
      "finalizeUnwrap(bytes32,uint64,bytes)": {
        "details": "Fills an unwrap request for a given cipher-text `burntAmount` with the `cleartextAmount` and `decryptionProof`."
      },
      "inferredTotalSupply()": {
        "details": "Returns the underlying balance divided by the {rate}, a value greater or equal to the actual {confidentialTotalSupply}. NOTE: The return value of this function can be inflated by directly sending underlying tokens to the wrapper contract. Reductions will lag compared to {confidentialTotalSupply} since it is updated on {unwrap} while this function updates on {finalizeUnwrap}."
      },
      "isOperator(address,address)": {
        "details": "Returns true if `spender` is currently an operator for `holder`."
      },
      "maxTotalSupply()": {
        "details": "Returns the maximum total supply of wrapped tokens supported by the encrypted datatype."
      },
      "name()": {
        "details": "Returns the name of the token."
      },
      "observer(address)": {
        "details": "Returns the observer for the given account `account`."
      },
      "onTransferReceived(address,address,uint256,bytes)": {
        "details": "`ERC1363` callback function which wraps tokens to the address specified in `data` or the address `from` (if no address is specified in `data`). This function refunds any excess tokens sent beyond the nearest multiple of {rate} to `from`. See {wrap} from more details on wrapping tokens."
      },
      "rate()": {
        "details": "Returns the rate at which the underlying token is converted to the wrapped token. For example, if the `rate` is 1000, then 1000 units of the underlying token equal 1 unit of the wrapped token."
      },
      "requestDiscloseEncryptedAmount(bytes32)": {
        "details": "Starts the process to disclose an encrypted amount `encryptedAmount` publicly by making it publicly decryptable. Emits the {AmountDiscloseRequested} event. NOTE: Both `msg.sender` and `address(this)` must have permission to access the encrypted amount `encryptedAmount` to request disclosure of the encrypted amount `encryptedAmount`."
      },
      "setObserver(address,address)": {
        "details": "Sets the observer for the given account `account` to `newObserver`. Can be called by the account or the existing observer to abdicate the observer role (may only set to `address(0)`)."
      },
      "setOperator(address,uint48)": {
        "details": "Sets `operator` as an operator for `holder` until the timestamp `until`. NOTE: An operator may transfer any amount of tokens on behalf of a holder while approved."
      },
      "supportsInterface(bytes4)": {
        "details": "Returns true if this contract implements the interface defined by `interfaceId`. See the corresponding https://eips.ethereum.org/EIPS/eip-165#how-interfaces-are-identified[ERC section] to learn more about how these ids are created. This function call must use less than 30 000 gas."
      },
      "symbol()": {
        "details": "Returns the symbol of the token."
      },
      "underlying()": {
        "details": "Returns the address of the underlying ERC-20 token that is being wrapped."
      },
      "unwrap(address,address,bytes32)": {
        "details": "Unwraps tokens from `from` and sends the underlying tokens to `to`. The caller must be `from` or be an approved operator for `from`. `amount * rate()` underlying tokens are sent to `to`. NOTE: The unwrap request created by this function must be finalized by calling {finalizeUnwrap}. NOTE: The caller *must* already be approved by ACL for the given `amount`."
      },
      "unwrap(address,address,bytes32,bytes)": {
        "details": "Variant of {unwrap} that passes an `inputProof` which approves the caller for the `encryptedAmount` in the ACL."
      },
      "unwrapWithAuthorization((address,address,uint48,uint48,bytes32,bytes32),bytes32,bytes,bytes)": {
        "details": "Note: this function bypasses operator checks; authorization is enforced by the signature.",
        "params": {
          "encryptedAmountInput": "externalEuint64 handle generated by the fhEVM SDK",
          "inputProof": "fhEVM input proof",
          "p": "Unwrap authorization struct (typed data)",
          "sig": "Holders EIP-712 signature over the typed data"
        }
      },
      "wrap(address,uint256)": {
        "details": "Wraps amount `amount` of the underlying token into a confidential token and sends it to `to`. Tokens are exchanged at a fixed rate specified by {rate} such that `amount / rate()` confidential tokens are sent. Amount transferred in is rounded down to the nearest multiple of {rate}."
      }
    },
    "stateVariables": {
      "usedNonces": {
        "details": "Replay protection: each (holder, nonce) pair can be used only once"
      }
    },
    "version": 1
  },
  "userdoc": {
    "errors": {
      "InvalidKMSSignatures()": [
        {
          "notice": "Returned if the returned KMS signatures are not valid."
        }
      ],
      "SenderNotAllowedToUseHandle(bytes32,address)": [
        {
          "notice": "Returned if the sender is not allowed to use the handle."
        }
      ],
      "ZamaProtocolUnsupported()": [
        {
          "notice": "Returned if the Zama protocol is not supported on the current chain"
        }
      ]
    },
    "events": {
      "PublicDecryptionVerified(bytes32[],bytes)": {
        "notice": "This event is emitted when public decryption has been successfully verified."
      }
    },
    "kind": "user",
    "methods": {
      "confidentialTransferWithAuthorization((address,address,uint256,bytes32,uint48,uint48,bytes32,bytes32),bytes32,bytes,bytes)": {
        "notice": "Execute a confidential payment using the holders EIP-712 signature"
      },
      "unwrapWithAuthorization((address,address,uint48,uint48,bytes32,bytes32),bytes32,bytes,bytes)": {
        "notice": "Unwrap FHEToken into underlying using holders EIP-712 signature"
      }
    },
    "version": 1
  },
  "storageLayout": {
    "storage": [
      {
        "astId": 41378,
        "contract": "contracts/FHEToken.sol:FHEToken",
        "label": "_balances",
        "offset": 0,
        "slot": "0",
        "type": "t_mapping(t_address,t_userDefinedValueType(euint64)51071)"
      },
      {
        "astId": 41384,
        "contract": "contracts/FHEToken.sol:FHEToken",
        "label": "_operators",
        "offset": 0,
        "slot": "1",
        "type": "t_mapping(t_address,t_mapping(t_address,t_uint48))"
      },
      {
        "astId": 41387,
        "contract": "contracts/FHEToken.sol:FHEToken",
        "label": "_totalSupply",
        "offset": 0,
        "slot": "2",
        "type": "t_userDefinedValueType(euint64)51071"
      },
      {
        "astId": 41389,
        "contract": "contracts/FHEToken.sol:FHEToken",
        "label": "_name",
        "offset": 0,
        "slot": "3",
        "type": "t_string_storage"
      },
      {
        "astId": 41391,
        "contract": "contracts/FHEToken.sol:FHEToken",
        "label": "_symbol",
        "offset": 0,
        "slot": "4",
        "type": "t_string_storage"
      },
      {
        "astId": 41393,
        "contract": "contracts/FHEToken.sol:FHEToken",
        "label": "_contractURI",
        "offset": 0,
        "slot": "5",
        "type": "t_string_storage"
      },
      {
        "astId": 43100,
        "contract": "contracts/FHEToken.sol:FHEToken",
        "label": "_observers",
        "offset": 0,
        "slot": "6",
        "type": "t_mapping(t_address,t_address)"
      },
      {
        "astId": 42491,
        "contract": "contracts/FHEToken.sol:FHEToken",
        "label": "_unwrapRequests",
        "offset": 0,
        "slot": "7",
        "type": "t_mapping(t_userDefinedValueType(euint64)51071,t_address)"
      },
      {
        "astId": 46530,
        "contract": "contracts/FHEToken.sol:FHEToken",
        "label": "_nameFallback",
        "offset": 0,
        "slot": "8",
        "type": "t_string_storage"
      },
      {
        "astId": 46532,
        "contract": "contracts/FHEToken.sol:FHEToken",
        "label": "_versionFallback",
        "offset": 0,
        "slot": "9",
        "type": "t_string_storage"
      },
      {
        "astId": 50472,
        "contract": "contracts/FHEToken.sol:FHEToken",
        "label": "usedNonces",
        "offset": 0,
        "slot": "10",
        "type": "t_mapping(t_address,t_mapping(t_bytes32,t_bool))"
      },
      {
        "astId": 50477,
        "contract": "contracts/FHEToken.sol:FHEToken",
        "label": "_authUnwrapRequests",
        "offset": 0,
        "slot": "11",
        "type": "t_mapping(t_userDefinedValueType(euint64)51071,t_address)"
      }
    ],
    "types": {
      "t_address": {
        "encoding": "inplace",
        "label": "address",
        "numberOfBytes": "20"
      },
      "t_bool": {
        "encoding": "inplace",
        "label": "bool",
        "numberOfBytes": "1"
      },
      "t_bytes32": {
        "encoding": "inplace",
        "label": "bytes32",
        "numberOfBytes": "32"
      },
      "t_mapping(t_address,t_address)": {
        "encoding": "mapping",
        "key": "t_address",
        "label": "mapping(address => address)",
        "numberOfBytes": "32",
        "value": "t_address"
      },
      "t_mapping(t_address,t_mapping(t_address,t_uint48))": {
        "encoding": "mapping",
        "key": "t_address",
        "label": "mapping(address => mapping(address => uint48))",
        "numberOfBytes": "32",
        "value": "t_mapping(t_address,t_uint48)"
      },
      "t_mapping(t_address,t_mapping(t_bytes32,t_bool))": {
        "encoding": "mapping",
        "key": "t_address",
        "label": "mapping(address => mapping(bytes32 => bool))",
        "numberOfBytes": "32",
        "value": "t_mapping(t_bytes32,t_bool)"
      },
      "t_mapping(t_address,t_uint48)": {
        "encoding": "mapping",
        "key": "t_address",
        "label": "mapping(address => uint48)",
        "numberOfBytes": "32",
        "value": "t_uint48"
      },
      "t_mapping(t_address,t_userDefinedValueType(euint64)51071)": {
        "encoding": "mapping",
        "key": "t_address",
        "label": "mapping(address => euint64)",
        "numberOfBytes": "32",
        "value": "t_userDefinedValueType(euint64)51071"
      },
      "t_mapping(t_bytes32,t_bool)": {
        "encoding": "mapping",
        "key": "t_bytes32",
        "label": "mapping(bytes32 => bool)",
        "numberOfBytes": "32",
        "value": "t_bool"
      },
      "t_mapping(t_userDefinedValueType(euint64)51071,t_address)": {
        "encoding": "mapping",
        "key": "t_userDefinedValueType(euint64)51071",
        "label": "mapping(euint64 => address)",
        "numberOfBytes": "32",
        "value": "t_address"
      },
      "t_string_storage": {
        "encoding": "bytes",
        "label": "string",
        "numberOfBytes": "32"
      },
      "t_uint48": {
        "encoding": "inplace",
        "label": "uint48",
        "numberOfBytes": "6"
      },
      "t_userDefinedValueType(euint64)51071": {
        "encoding": "inplace",
        "label": "euint64",
        "numberOfBytes": "32"
      }
    }
  }
}