{
  "address": "0x3cF54E22ac3Ba49300bE04105C94f6fDca8B8e44",
  "abi": [
    {
      "inputs": [
        {
          "internalType": "string",
          "name": "name_",
          "type": "string"
        },
        {
          "internalType": "string",
          "name": "symbol_",
          "type": "string"
        },
        {
          "internalType": "string",
          "name": "tokenURI_",
          "type": "string"
        },
        {
          "internalType": "contract IERC20",
          "name": "underlying_",
          "type": "address"
        }
      ],
      "stateMutability": "nonpayable",
      "type": "constructor"
    },
    {
      "inputs": [],
      "name": "ECDSAInvalidSignature",
      "type": "error"
    },
    {
      "inputs": [
        {
          "internalType": "uint256",
          "name": "length",
          "type": "uint256"
        }
      ],
      "name": "ECDSAInvalidSignatureLength",
      "type": "error"
    },
    {
      "inputs": [
        {
          "internalType": "bytes32",
          "name": "s",
          "type": "bytes32"
        }
      ],
      "name": "ECDSAInvalidSignatureS",
      "type": "error"
    },
    {
      "inputs": [
        {
          "internalType": "uint256",
          "name": "requestId",
          "type": "uint256"
        }
      ],
      "name": "ERC7984InvalidGatewayRequest",
      "type": "error"
    },
    {
      "inputs": [
        {
          "internalType": "address",
          "name": "receiver",
          "type": "address"
        }
      ],
      "name": "ERC7984InvalidReceiver",
      "type": "error"
    },
    {
      "inputs": [
        {
          "internalType": "address",
          "name": "sender",
          "type": "address"
        }
      ],
      "name": "ERC7984InvalidSender",
      "type": "error"
    },
    {
      "inputs": [
        {
          "internalType": "address",
          "name": "caller",
          "type": "address"
        }
      ],
      "name": "ERC7984UnauthorizedCaller",
      "type": "error"
    },
    {
      "inputs": [
        {
          "internalType": "address",
          "name": "holder",
          "type": "address"
        },
        {
          "internalType": "address",
          "name": "spender",
          "type": "address"
        }
      ],
      "name": "ERC7984UnauthorizedSpender",
      "type": "error"
    },
    {
      "inputs": [
        {
          "internalType": "euint64",
          "name": "amount",
          "type": "bytes32"
        },
        {
          "internalType": "address",
          "name": "user",
          "type": "address"
        }
      ],
      "name": "ERC7984UnauthorizedUseOfEncryptedAmount",
      "type": "error"
    },
    {
      "inputs": [
        {
          "internalType": "address",
          "name": "holder",
          "type": "address"
        }
      ],
      "name": "ERC7984ZeroBalance",
      "type": "error"
    },
    {
      "inputs": [],
      "name": "InvalidKMSSignatures",
      "type": "error"
    },
    {
      "inputs": [],
      "name": "InvalidShortString",
      "type": "error"
    },
    {
      "inputs": [
        {
          "internalType": "euint64",
          "name": "amount",
          "type": "bytes32"
        }
      ],
      "name": "InvalidUnwrapRequest",
      "type": "error"
    },
    {
      "inputs": [
        {
          "internalType": "uint8",
          "name": "bits",
          "type": "uint8"
        },
        {
          "internalType": "uint256",
          "name": "value",
          "type": "uint256"
        }
      ],
      "name": "SafeCastOverflowedUintDowncast",
      "type": "error"
    },
    {
      "inputs": [
        {
          "internalType": "address",
          "name": "token",
          "type": "address"
        }
      ],
      "name": "SafeERC20FailedOperation",
      "type": "error"
    },
    {
      "inputs": [
        {
          "internalType": "string",
          "name": "str",
          "type": "string"
        }
      ],
      "name": "StringTooLong",
      "type": "error"
    },
    {
      "inputs": [],
      "name": "Unauthorized",
      "type": "error"
    },
    {
      "inputs": [],
      "name": "ZamaProtocolUnsupported",
      "type": "error"
    },
    {
      "anonymous": false,
      "inputs": [
        {
          "indexed": true,
          "internalType": "euint64",
          "name": "encryptedAmount",
          "type": "bytes32"
        },
        {
          "indexed": true,
          "internalType": "address",
          "name": "requester",
          "type": "address"
        }
      ],
      "name": "AmountDiscloseRequested",
      "type": "event"
    },
    {
      "anonymous": false,
      "inputs": [
        {
          "indexed": true,
          "internalType": "euint64",
          "name": "encryptedAmount",
          "type": "bytes32"
        },
        {
          "indexed": false,
          "internalType": "uint64",
          "name": "amount",
          "type": "uint64"
        }
      ],
      "name": "AmountDisclosed",
      "type": "event"
    },
    {
      "anonymous": false,
      "inputs": [
        {
          "indexed": true,
          "internalType": "address",
          "name": "holder",
          "type": "address"
        },
        {
          "indexed": true,
          "internalType": "address",
          "name": "payee",
          "type": "address"
        },
        {
          "indexed": false,
          "internalType": "uint256",
          "name": "maxClearAmount",
          "type": "uint256"
        },
        {
          "indexed": true,
          "internalType": "bytes32",
          "name": "resourceHash",
          "type": "bytes32"
        },
        {
          "indexed": false,
          "internalType": "bytes32",
          "name": "nonce",
          "type": "bytes32"
        },
        {
          "indexed": false,
          "internalType": "euint64",
          "name": "transferredAmount",
          "type": "bytes32"
        }
      ],
      "name": "ConfidentialPaymentExecuted",
      "type": "event"
    },
    {
      "anonymous": false,
      "inputs": [
        {
          "indexed": true,
          "internalType": "address",
          "name": "from",
          "type": "address"
        },
        {
          "indexed": true,
          "internalType": "address",
          "name": "to",
          "type": "address"
        },
        {
          "indexed": true,
          "internalType": "euint64",
          "name": "amount",
          "type": "bytes32"
        }
      ],
      "name": "ConfidentialTransfer",
      "type": "event"
    },
    {
      "anonymous": false,
      "inputs": [],
      "name": "EIP712DomainChanged",
      "type": "event"
    },
    {
      "anonymous": false,
      "inputs": [
        {
          "indexed": false,
          "internalType": "address",
          "name": "account",
          "type": "address"
        },
        {
          "indexed": false,
          "internalType": "address",
          "name": "oldObserver",
          "type": "address"
        },
        {
          "indexed": false,
          "internalType": "address",
          "name": "newObserver",
          "type": "address"
        }
      ],
      "name": "ERC7984ObserverAccessObserverSet",
      "type": "event"
    },
    {
      "anonymous": false,
      "inputs": [
        {
          "indexed": true,
          "internalType": "address",
          "name": "holder",
          "type": "address"
        },
        {
          "indexed": true,
          "internalType": "address",
          "name": "operator",
          "type": "address"
        },
        {
          "indexed": false,
          "internalType": "uint48",
          "name": "until",
          "type": "uint48"
        }
      ],
      "name": "OperatorSet",
      "type": "event"
    },
    {
      "anonymous": false,
      "inputs": [
        {
          "indexed": false,
          "internalType": "bytes32[]",
          "name": "handlesList",
          "type": "bytes32[]"
        },
        {
          "indexed": false,
          "internalType": "bytes",
          "name": "abiEncodedCleartexts",
          "type": "bytes"
        }
      ],
      "name": "PublicDecryptionVerified",
      "type": "event"
    },
    {
      "anonymous": false,
      "inputs": [
        {
          "indexed": true,
          "internalType": "address",
          "name": "receiver",
          "type": "address"
        },
        {
          "indexed": false,
          "internalType": "euint64",
          "name": "encryptedAmount",
          "type": "bytes32"
        },
        {
          "indexed": false,
          "internalType": "uint64",
          "name": "cleartextAmount",
          "type": "uint64"
        }
      ],
      "name": "UnwrapFinalized",
      "type": "event"
    },
    {
      "anonymous": false,
      "inputs": [
        {
          "indexed": true,
          "internalType": "address",
          "name": "receiver",
          "type": "address"
        },
        {
          "indexed": false,
          "internalType": "euint64",
          "name": "amount",
          "type": "bytes32"
        }
      ],
      "name": "UnwrapRequested",
      "type": "event"
    },
    {
      "inputs": [],
      "name": "CONFIDENTIAL_PAYMENT_TYPEHASH",
      "outputs": [
        {
          "internalType": "bytes32",
          "name": "",
          "type": "bytes32"
        }
      ],
      "stateMutability": "view",
      "type": "function"
    },
    {
      "inputs": [
        {
          "internalType": "address",
          "name": "account",
          "type": "address"
        }
      ],
      "name": "confidentialBalanceOf",
      "outputs": [
        {
          "internalType": "euint64",
          "name": "",
          "type": "bytes32"
        }
      ],
      "stateMutability": "view",
      "type": "function"
    },
    {
      "inputs": [],
      "name": "confidentialProtocolId",
      "outputs": [
        {
          "internalType": "uint256",
          "name": "",
          "type": "uint256"
        }
      ],
      "stateMutability": "view",
      "type": "function"
    },
    {
      "inputs": [],
      "name": "confidentialTotalSupply",
      "outputs": [
        {
          "internalType": "euint64",
          "name": "",
          "type": "bytes32"
        }
      ],
      "stateMutability": "view",
      "type": "function"
    },
    {
      "inputs": [
        {
          "internalType": "address",
          "name": "to",
          "type": "address"
        },
        {
          "internalType": "externalEuint64",
          "name": "encryptedAmount",
          "type": "bytes32"
        },
        {
          "internalType": "bytes",
          "name": "inputProof",
          "type": "bytes"
        }
      ],
      "name": "confidentialTransfer",
      "outputs": [
        {
          "internalType": "euint64",
          "name": "",
          "type": "bytes32"
        }
      ],
      "stateMutability": "nonpayable",
      "type": "function"
    },
    {
      "inputs": [
        {
          "internalType": "address",
          "name": "to",
          "type": "address"
        },
        {
          "internalType": "euint64",
          "name": "amount",
          "type": "bytes32"
        }
      ],
      "name": "confidentialTransfer",
      "outputs": [
        {
          "internalType": "euint64",
          "name": "",
          "type": "bytes32"
        }
      ],
      "stateMutability": "nonpayable",
      "type": "function"
    },
    {
      "inputs": [
        {
          "internalType": "address",
          "name": "to",
          "type": "address"
        },
        {
          "internalType": "euint64",
          "name": "amount",
          "type": "bytes32"
        },
        {
          "internalType": "bytes",
          "name": "data",
          "type": "bytes"
        }
      ],
      "name": "confidentialTransferAndCall",
      "outputs": [
        {
          "internalType": "euint64",
          "name": "transferred",
          "type": "bytes32"
        }
      ],
      "stateMutability": "nonpayable",
      "type": "function"
    },
    {
      "inputs": [
        {
          "internalType": "address",
          "name": "to",
          "type": "address"
        },
        {
          "internalType": "externalEuint64",
          "name": "encryptedAmount",
          "type": "bytes32"
        },
        {
          "internalType": "bytes",
          "name": "inputProof",
          "type": "bytes"
        },
        {
          "internalType": "bytes",
          "name": "data",
          "type": "bytes"
        }
      ],
      "name": "confidentialTransferAndCall",
      "outputs": [
        {
          "internalType": "euint64",
          "name": "transferred",
          "type": "bytes32"
        }
      ],
      "stateMutability": "nonpayable",
      "type": "function"
    },
    {
      "inputs": [
        {
          "internalType": "address",
          "name": "from",
          "type": "address"
        },
        {
          "internalType": "address",
          "name": "to",
          "type": "address"
        },
        {
          "internalType": "externalEuint64",
          "name": "encryptedAmount",
          "type": "bytes32"
        },
        {
          "internalType": "bytes",
          "name": "inputProof",
          "type": "bytes"
        }
      ],
      "name": "confidentialTransferFrom",
      "outputs": [
        {
          "internalType": "euint64",
          "name": "transferred",
          "type": "bytes32"
        }
      ],
      "stateMutability": "nonpayable",
      "type": "function"
    },
    {
      "inputs": [
        {
          "internalType": "address",
          "name": "from",
          "type": "address"
        },
        {
          "internalType": "address",
          "name": "to",
          "type": "address"
        },
        {
          "internalType": "euint64",
          "name": "amount",
          "type": "bytes32"
        }
      ],
      "name": "confidentialTransferFrom",
      "outputs": [
        {
          "internalType": "euint64",
          "name": "transferred",
          "type": "bytes32"
        }
      ],
      "stateMutability": "nonpayable",
      "type": "function"
    },
    {
      "inputs": [
        {
          "internalType": "address",
          "name": "from",
          "type": "address"
        },
        {
          "internalType": "address",
          "name": "to",
          "type": "address"
        },
        {
          "internalType": "externalEuint64",
          "name": "encryptedAmount",
          "type": "bytes32"
        },
        {
          "internalType": "bytes",
          "name": "inputProof",
          "type": "bytes"
        },
        {
          "internalType": "bytes",
          "name": "data",
          "type": "bytes"
        }
      ],
      "name": "confidentialTransferFromAndCall",
      "outputs": [
        {
          "internalType": "euint64",
          "name": "transferred",
          "type": "bytes32"
        }
      ],
      "stateMutability": "nonpayable",
      "type": "function"
    },
    {
      "inputs": [
        {
          "internalType": "address",
          "name": "from",
          "type": "address"
        },
        {
          "internalType": "address",
          "name": "to",
          "type": "address"
        },
        {
          "internalType": "euint64",
          "name": "amount",
          "type": "bytes32"
        },
        {
          "internalType": "bytes",
          "name": "data",
          "type": "bytes"
        }
      ],
      "name": "confidentialTransferFromAndCall",
      "outputs": [
        {
          "internalType": "euint64",
          "name": "transferred",
          "type": "bytes32"
        }
      ],
      "stateMutability": "nonpayable",
      "type": "function"
    },
    {
      "inputs": [
        {
          "components": [
            {
              "internalType": "address",
              "name": "holder",
              "type": "address"
            },
            {
              "internalType": "address",
              "name": "payee",
              "type": "address"
            },
            {
              "internalType": "uint256",
              "name": "maxClearAmount",
              "type": "uint256"
            },
            {
              "internalType": "bytes32",
              "name": "resourceHash",
              "type": "bytes32"
            },
            {
              "internalType": "uint48",
              "name": "validAfter",
              "type": "uint48"
            },
            {
              "internalType": "uint48",
              "name": "validBefore",
              "type": "uint48"
            },
            {
              "internalType": "bytes32",
              "name": "nonce",
              "type": "bytes32"
            },
            {
              "internalType": "bytes32",
              "name": "encryptedAmountHash",
              "type": "bytes32"
            }
          ],
          "internalType": "struct FHEToken.ConfidentialPayment",
          "name": "p",
          "type": "tuple"
        },
        {
          "internalType": "externalEuint64",
          "name": "encryptedAmountInput",
          "type": "bytes32"
        },
        {
          "internalType": "bytes",
          "name": "inputProof",
          "type": "bytes"
        },
        {
          "internalType": "bytes",
          "name": "sig",
          "type": "bytes"
        }
      ],
      "name": "confidentialTransferWithAuthorization",
      "outputs": [
        {
          "internalType": "euint64",
          "name": "transferred",
          "type": "bytes32"
        }
      ],
      "stateMutability": "nonpayable",
      "type": "function"
    },
    {
      "inputs": [],
      "name": "contractURI",
      "outputs": [
        {
          "internalType": "string",
          "name": "",
          "type": "string"
        }
      ],
      "stateMutability": "view",
      "type": "function"
    },
    {
      "inputs": [],
      "name": "decimals",
      "outputs": [
        {
          "internalType": "uint8",
          "name": "",
          "type": "uint8"
        }
      ],
      "stateMutability": "view",
      "type": "function"
    },
    {
      "inputs": [
        {
          "internalType": "euint64",
          "name": "encryptedAmount",
          "type": "bytes32"
        },
        {
          "internalType": "uint64",
          "name": "cleartextAmount",
          "type": "uint64"
        },
        {
          "internalType": "bytes",
          "name": "decryptionProof",
          "type": "bytes"
        }
      ],
      "name": "discloseEncryptedAmount",
      "outputs": [],
      "stateMutability": "nonpayable",
      "type": "function"
    },
    {
      "inputs": [],
      "name": "eip712Domain",
      "outputs": [
        {
          "internalType": "bytes1",
          "name": "fields",
          "type": "bytes1"
        },
        {
          "internalType": "string",
          "name": "name",
          "type": "string"
        },
        {
          "internalType": "string",
          "name": "version",
          "type": "string"
        },
        {
          "internalType": "uint256",
          "name": "chainId",
          "type": "uint256"
        },
        {
          "internalType": "address",
          "name": "verifyingContract",
          "type": "address"
        },
        {
          "internalType": "bytes32",
          "name": "salt",
          "type": "bytes32"
        },
        {
          "internalType": "uint256[]",
          "name": "extensions",
          "type": "uint256[]"
        }
      ],
      "stateMutability": "view",
      "type": "function"
    },
    {
      "inputs": [
        {
          "internalType": "euint64",
          "name": "burntAmount",
          "type": "bytes32"
        },
        {
          "internalType": "uint64",
          "name": "burntAmountCleartext",
          "type": "uint64"
        },
        {
          "internalType": "bytes",
          "name": "decryptionProof",
          "type": "bytes"
        }
      ],
      "name": "finalizeUnwrap",
      "outputs": [],
      "stateMutability": "nonpayable",
      "type": "function"
    },
    {
      "inputs": [
        {
          "internalType": "address",
          "name": "holder",
          "type": "address"
        },
        {
          "internalType": "address",
          "name": "spender",
          "type": "address"
        }
      ],
      "name": "isOperator",
      "outputs": [
        {
          "internalType": "bool",
          "name": "",
          "type": "bool"
        }
      ],
      "stateMutability": "view",
      "type": "function"
    },
    {
      "inputs": [],
      "name": "name",
      "outputs": [
        {
          "internalType": "string",
          "name": "",
          "type": "string"
        }
      ],
      "stateMutability": "view",
      "type": "function"
    },
    {
      "inputs": [
        {
          "internalType": "address",
          "name": "account",
          "type": "address"
        }
      ],
      "name": "observer",
      "outputs": [
        {
          "internalType": "address",
          "name": "",
          "type": "address"
        }
      ],
      "stateMutability": "view",
      "type": "function"
    },
    {
      "inputs": [
        {
          "internalType": "address",
          "name": "",
          "type": "address"
        },
        {
          "internalType": "address",
          "name": "from",
          "type": "address"
        },
        {
          "internalType": "uint256",
          "name": "amount",
          "type": "uint256"
        },
        {
          "internalType": "bytes",
          "name": "data",
          "type": "bytes"
        }
      ],
      "name": "onTransferReceived",
      "outputs": [
        {
          "internalType": "bytes4",
          "name": "",
          "type": "bytes4"
        }
      ],
      "stateMutability": "nonpayable",
      "type": "function"
    },
    {
      "inputs": [],
      "name": "rate",
      "outputs": [
        {
          "internalType": "uint256",
          "name": "",
          "type": "uint256"
        }
      ],
      "stateMutability": "view",
      "type": "function"
    },
    {
      "inputs": [
        {
          "internalType": "euint64",
          "name": "encryptedAmount",
          "type": "bytes32"
        }
      ],
      "name": "requestDiscloseEncryptedAmount",
      "outputs": [],
      "stateMutability": "nonpayable",
      "type": "function"
    },
    {
      "inputs": [
        {
          "internalType": "address",
          "name": "account",
          "type": "address"
        },
        {
          "internalType": "address",
          "name": "newObserver",
          "type": "address"
        }
      ],
      "name": "setObserver",
      "outputs": [],
      "stateMutability": "nonpayable",
      "type": "function"
    },
    {
      "inputs": [
        {
          "internalType": "address",
          "name": "operator",
          "type": "address"
        },
        {
          "internalType": "uint48",
          "name": "until",
          "type": "uint48"
        }
      ],
      "name": "setOperator",
      "outputs": [],
      "stateMutability": "nonpayable",
      "type": "function"
    },
    {
      "inputs": [
        {
          "internalType": "bytes4",
          "name": "interfaceId",
          "type": "bytes4"
        }
      ],
      "name": "supportsInterface",
      "outputs": [
        {
          "internalType": "bool",
          "name": "",
          "type": "bool"
        }
      ],
      "stateMutability": "view",
      "type": "function"
    },
    {
      "inputs": [],
      "name": "symbol",
      "outputs": [
        {
          "internalType": "string",
          "name": "",
          "type": "string"
        }
      ],
      "stateMutability": "view",
      "type": "function"
    },
    {
      "inputs": [],
      "name": "underlying",
      "outputs": [
        {
          "internalType": "contract IERC20",
          "name": "",
          "type": "address"
        }
      ],
      "stateMutability": "view",
      "type": "function"
    },
    {
      "inputs": [
        {
          "internalType": "address",
          "name": "from",
          "type": "address"
        },
        {
          "internalType": "address",
          "name": "to",
          "type": "address"
        },
        {
          "internalType": "externalEuint64",
          "name": "encryptedAmount",
          "type": "bytes32"
        },
        {
          "internalType": "bytes",
          "name": "inputProof",
          "type": "bytes"
        }
      ],
      "name": "unwrap",
      "outputs": [],
      "stateMutability": "nonpayable",
      "type": "function"
    },
    {
      "inputs": [
        {
          "internalType": "address",
          "name": "from",
          "type": "address"
        },
        {
          "internalType": "address",
          "name": "to",
          "type": "address"
        },
        {
          "internalType": "euint64",
          "name": "amount",
          "type": "bytes32"
        }
      ],
      "name": "unwrap",
      "outputs": [],
      "stateMutability": "nonpayable",
      "type": "function"
    },
    {
      "inputs": [
        {
          "internalType": "address",
          "name": "",
          "type": "address"
        },
        {
          "internalType": "bytes32",
          "name": "",
          "type": "bytes32"
        }
      ],
      "name": "usedNonces",
      "outputs": [
        {
          "internalType": "bool",
          "name": "",
          "type": "bool"
        }
      ],
      "stateMutability": "view",
      "type": "function"
    },
    {
      "inputs": [
        {
          "internalType": "address",
          "name": "to",
          "type": "address"
        },
        {
          "internalType": "uint256",
          "name": "amount",
          "type": "uint256"
        }
      ],
      "name": "wrap",
      "outputs": [],
      "stateMutability": "nonpayable",
      "type": "function"
    }
  ],
  "transactionHash": "0x79b1cf5127d57ed465de646c3483f3cc21d3c967ecd34ac2955827e656815626",
  "args": [
    "Confidential Token",
    "CTKN",
    "ipfs://cwtt",
    "0x9b5cb09814D1146Aa03CDf39C7C968660dFAE3A3"
  ],
  "numDeployments": 4,
  "solcInputHash": "3a6a7098c0eb32b2efef2d269be82d66",
  "bytecode": "0x6101c0604052348015610010575f5ffd5b50604051613f4c380380613f4c83398101604081905261002f91610585565b6040805180820190915260018152603160f81b6020820152849082828686610101610058610244565b80517f9e7b61f58c47dc699ac88507c4f5bb9f121c03808c5676a8078fe583e464970080546001600160a01b03199081166001600160a01b039384161790915560208301517f9e7b61f58c47dc699ac88507c4f5bb9f121c03808c5676a8078fe583e46497018054831691841691909117905560408301517f9e7b61f58c47dc699ac88507c4f5bb9f121c03808c5676a8078fe583e46497028054909216921691909117905550565b600361010d84826106b8565b50600461011a83826106b8565b50600561012782826106b8565b5050506001600160a01b038216608052505f610142826103b3565b9050600660ff82168110156101755760ff811660a0526101628183610786565b61016d90600a610882565b60c052610182565b60ff821660a052600160c0525b5061019291508390506008610470565b610180526101a1816009610470565b6101a0528151602080840191909120610140528151908201206101605246610100526102306101405161016051604080517f8b73c3c69bb8fe3d512ecc4cf759cc79239f7b179b0ffacaa9a75d522b39400f60208201529081019290925260608201524660808201523060a08201525f9060c00160405160208183030381529060405280519060200120905090565b60e052505030610120525061092592505050565b604080516060810182525f80825260208201819052918101919091524660010361029d575060408051606080820183525f8083526020808401829052928401819052835191820184528082529181018290529182015290565b4662aa36a70361031c575060408051606080820183525f8083526020808401829052928401528251908101835273f0ffdc93b7e186bc2f8cb3daa75d86d1930a433d81527392c920834ec8941d2c77d188936e1f7a6f49c1279181019190915273be0e383937d564d7ff0bc3b46c51f0bf8d5c311a9181019190915290565b46617a690361039a575060408051606080820183525f8083526020808401829052928401528251908101835273f0ffdc93b7e186bc2f8cb3daa75d86d1930a433d81527392c920834ec8941d2c77d188936e1f7a6f49c1279181019190915273be0e383937d564d7ff0bc3b46c51f0bf8d5c311a9181019190915290565b6040516373cac13b60e01b815260040160405180910390fd5b60408051600481526024810182526020810180516001600160e01b031663313ce56760e01b17905290515f91829182916001600160a01b038616916103f89190610897565b5f60405180830381855afa9150503d805f8114610430576040519150601f19603f3d011682016040523d82523d5f602084013e610435565b606091505b5091509150818015610448575080516020145b15610469578080602001905181019061046191906108ad565b949350505050565b6012610461565b5f60208351101561048b57610484836104a2565b905061049c565b8161049684826106b8565b5060ff90505b92915050565b5f5f829050601f815111156104d5578260405163305a27a960e01b81526004016104cc91906108cd565b60405180910390fd5b80516104e082610902565b179392505050565b634e487b7160e01b5f52604160045260245ffd5b5f82601f83011261050b575f5ffd5b81516001600160401b03811115610524576105246104e8565b604051601f8201601f19908116603f011681016001600160401b0381118282101715610552576105526104e8565b604052818152838201602001851015610569575f5ffd5b8160208501602083015e5f918101602001919091529392505050565b5f5f5f5f60808587031215610598575f5ffd5b84516001600160401b038111156105ad575f5ffd5b6105b9878288016104fc565b602087015190955090506001600160401b038111156105d6575f5ffd5b6105e2878288016104fc565b604087015190945090506001600160401b038111156105ff575f5ffd5b61060b878288016104fc565b606087015190935090506001600160a01b0381168114610629575f5ffd5b939692955090935050565b600181811c9082168061064857607f821691505b60208210810361066657634e487b7160e01b5f52602260045260245ffd5b50919050565b601f8211156106b357805f5260205f20601f840160051c810160208510156106915750805b601f840160051c820191505b818110156106b0575f815560010161069d565b50505b505050565b81516001600160401b038111156106d1576106d16104e8565b6106e5816106df8454610634565b8461066c565b6020601f821160018114610717575f83156107005750848201515b5f19600385901b1c1916600184901b1784556106b0565b5f84815260208120601f198516915b828110156107465787850151825560209485019460019092019101610726565b508482101561076357868401515f19600387901b60f8161c191681555b50505050600190811b01905550565b634e487b7160e01b5f52601160045260245ffd5b60ff828116828216039081111561049c5761049c610772565b6001815b60018411156107da578085048111156107be576107be610772565b60018416156107cc57908102905b60019390931c9280026107a3565b935093915050565b5f826107f05750600161049c565b816107fc57505f61049c565b8160018114610812576002811461081c57610838565b600191505061049c565b60ff84111561082d5761082d610772565b50506001821b61049c565b5060208310610133831016604e8410600b841016171561085b575081810a61049c565b6108675f19848461079f565b805f190482111561087a5761087a610772565b029392505050565b5f61089060ff8416836107e2565b9392505050565b5f82518060208501845e5f920191825250919050565b5f602082840312156108bd575f5ffd5b815160ff81168114610890575f5ffd5b602081525f82518060208401528060208501604085015e5f604082850101526040601f19601f83011684010191505092915050565b80516020808301519190811015610666575f1960209190910360031b1b16919050565b60805160a05160c05160e05161010051610120516101405161016051610180516101a0516135796109d35f395f6118ab01525f61187e01525f61237501525f61234d01525f6122a801525f6122d201525f6122fc01525f818161028e015281816109e101528181610bd501528181610c10015281816111f1015261123401525f6102cc01525f81816103b4015281816109bc01528181610b5b01528181610c4201526111cb01526135795ff3fe608060405234801561000f575f5ffd5b5060043610610201575f3560e01c806384b0196e11610123578063c7b8a75e116100b8578063de64211911610088578063e8a3d4851161006e578063e8a3d48514610519578063e8c15fd414610521578063eb3155b514610534575f5ffd5b8063de642119146104f3578063e064b9bb14610506575f5ffd5b8063c7b8a75e1461048f578063cb2ca1cd146104a2578063d4febb96146104cd578063d8061806146104e0575f5ffd5b8063a29e955a116100f3578063a29e955a14610443578063b1af281e14610456578063b6363cf214610469578063bf376c7a1461047c575f5ffd5b806384b0196e146103ec57806388a7ca5c146104075780638927b0301461043357806395d89b411461043b575f5ffd5b806334c45743116101995780635bebed7e116101695780635bebed7e1461035f5780635bf4ef06146103725780635fda04c7146103855780636f307dc3146103b2575f5ffd5b806334c457431461031e578063537d3c501461033157806354095227146103445780635bb67a051461034c575f5ffd5b80632c4e722e116101d45780632c4e722e1461028c5780632fb74e62146102b2578063313ce567146102c5578063344ff101146102f6575f5ffd5b806301ffc9a71461020557806306fdde031461022d5780631c29a51b1461024257806329a87d1814610257575b5f5ffd5b610218610213366004612d6b565b610547565b60405190151581526020015b60405180910390f35b61023561057d565b6040516102249190612dc0565b610255610250366004612ded565b61060d565b005b61027e7fbceef79abd64808802208eed9a3e076550213b3e68971ff109562bfeaa364ed981565b604051908152602001610224565b7f000000000000000000000000000000000000000000000000000000000000000061027e565b61027e6102c0366004612e53565b610744565b60405160ff7f0000000000000000000000000000000000000000000000000000000000000000168152602001610224565b61027e610304366004612ea9565b6001600160a01b03165f9081526020819052604090205490565b61027e61032c366004612ec2565b61079c565b61027e61033f366004612e53565b610845565b60025461027e565b61025561035a366004612f5b565b6108a7565b61027e61036d366004612fa7565b610a6b565b610255610380366004612fcf565b610abd565b610218610393366004612fa7565b600a60209081525f928352604080842090915290825290205460ff1681565b7f00000000000000000000000000000000000000000000000000000000000000005b6040516001600160a01b039091168152602001610224565b6103f4610b0d565b6040516102249796959493929190613039565b61041a610415366004612fcf565b610b4f565b6040516001600160e01b03199091168152602001610224565b61027e610c7c565b610235610c85565b61027e6104513660046130cf565b610c94565b610255610464366004612f5b565b61107f565b610218610477366004612ded565b611174565b61025561048a366004612fa7565b6111c6565b61027e61049d366004612fcf565b611259565b6103d46104b0366004612ea9565b6001600160a01b039081165f908152600660205260409020541690565b6102556104db366004613179565b6112fc565b6102556104ee3660046131a1565b61130b565b61027e6105013660046131b8565b611383565b61027e610514366004612fcf565b6113df565b610235611464565b61025561052f366004613223565b611473565b61027e610542366004613223565b6114bd565b5f6001600160e01b031982166312563ca960e21b148061057757506301ffc9a760e01b6001600160e01b03198316145b92915050565b60606003805461058c9061325d565b80601f01602080910402602001604051908101604052809291908181526020018280546105b89061325d565b80156106035780601f106105da57610100808354040283529160200191610603565b820191905f5260205f20905b8154815290600101906020018083116105e657829003601f168201915b5050505050905090565b6001600160a01b038281165f81815260066020526040902054909116903314806106515750336001600160a01b03821614801561065157506001600160a01b038216155b61066d576040516282b42960e81b815260040160405180910390fd5b816001600160a01b0316816001600160a01b03161461073f576001600160a01b038216156106c1576001600160a01b0383165f9081526020819052604090205480156106bf576106bd818461155c565b505b505b6001600160a01b038381165f81815260066020908152604091829020805473ffffffffffffffffffffffffffffffffffffffff19168786169081179091558251938452938516908301528101919091527fad4bc30e1189aef94c7b30a5e1268679357170a0797dccd08d578750ceee9b5a9060600160405180910390a15b505050565b5f61078e33866107898787878080601f0160208091040260200160405190810160405280939291908181526020018383808284375f9201919091525061156e92505050565b61157b565b95945050505050565b905090565b5f6107a78833611174565b883390916107e057604051630f3e596760e31b81526001600160a01b039283166004820152911660248201526044015b60405180910390fd5b505061082d88886108268989898080601f0160208091040260200160405190810160405280939291908181526020018383808284375f9201919091525061156e92505050565b86866115f9565b90506108398133611650565b50979650505050505050565b5f610850843361165b565b84339091610883576040516367cfe80560e01b815260048101929092526001600160a01b031660248201526044016107d7565b505061089233868686866115f9565b905061089e8133611650565b50949350505050565b5f848152600760205260409020546001600160a01b031684816108e0576040516368b187c760e11b81526004016107d791815260200190565b505f85815260076020526040808220805473ffffffffffffffffffffffffffffffffffffffff19169055805160018082528183019092529081602001602082028036833701905050905085815f8151811061093d5761093d613295565b6020026020010181815250505f8560405160200161096b919067ffffffffffffffff91909116815260200190565b60408051601f198184030181526020601f880181900481028401810190925286835292506109b791849184919089908990819084018382808284375f9201919091525061166692505050565b610a157f000000000000000000000000000000000000000000000000000000000000000084610a107f000000000000000000000000000000000000000000000000000000000000000067ffffffffffffffff8b166132bd565b6116d1565b6040805188815267ffffffffffffffff881660208201526001600160a01b038516917f2d4edf3c2943002120f53dab3f8940043f34799f4a92ab90f2f81f7dd004a49e910160405180910390a250505050505050565b5f610a76823361165b565b82339091610aa9576040516367cfe80560e01b815260048101929092526001600160a01b031660248201526044016107d7565b5050610ab633848461157b565b9392505050565b610b068585610b018686868080601f0160208091040260200160405190810160405280939291908181526020018383808284375f9201919091525061156e92505050565b611745565b5050505050565b5f6060805f5f5f6060610b1e611877565b610b266118a4565b604080515f80825260208201909252600f60f81b9b939a50919850469750309650945092509050565b5f336001600160a01b037f0000000000000000000000000000000000000000000000000000000000000000168114610ba65760405163782c6ffd60e01b81526001600160a01b0390911660048201526024016107d7565b505f60148310610bc257610bba83856132d4565b60601c610bc4565b855b9050610c0981610c04610bff610bfa7f00000000000000000000000000000000000000000000000000000000000000008a613335565b6118d1565b61190b565b611921565b505f610c357f000000000000000000000000000000000000000000000000000000000000000087613348565b90508015610c6857610c687f000000000000000000000000000000000000000000000000000000000000000088836116d1565b50632229f29760e21b979650505050505050565b5f610797611962565b60606004805461058c9061325d565b5f80610ca36020890189612ea9565b6001600160a01b031603610cf95760405162461bcd60e51b815260206004820152601460248201527f583430323a20696e76616c696420686f6c64657200000000000000000000000060448201526064016107d7565b5f610d0a6040890160208a01612ea9565b6001600160a01b031603610d605760405162461bcd60e51b815260206004820152601360248201527f583430323a20696e76616c69642070617965650000000000000000000000000060448201526064016107d7565b42610d7160a0890160808a0161335b565b65ffffffffffff168165ffffffffffff161015610dd05760405162461bcd60e51b815260206004820152601360248201527f583430323a206e6f74207965742076616c69640000000000000000000000000060448201526064016107d7565b610de060c0890160a08a0161335b565b65ffffffffffff168165ffffffffffff161115610e3f5760405162461bcd60e51b815260206004820152601b60248201527f583430323a20617574686f72697a6174696f6e2065787069726564000000000060448201526064016107d7565b610e59610e4f60208a018a612ea9565b8960c00135611996565b8760e0013587604051602001610e7191815260200190565b6040516020818303038152906040528051906020012014610ed45760405162461bcd60e51b815260206004820152601e60248201527f583430323a20656e63727970746564416d6f756e74206d69736d61746368000060448201526064016107d7565b5f610ee6610ee18a611a38565b611b24565b9050610ef560208a018a612ea9565b6001600160a01b0316610f3d8287878080601f0160208091040260200160405190810160405280939291908181526020018383808284375f92019190915250611b5092505050565b6001600160a01b031614610f935760405162461bcd60e51b815260206004820152601760248201527f583430323a20696e76616c6964207369676e617475726500000000000000000060448201526064016107d7565b610ff2610fa360208b018b612ea9565b610fb360408c0160208d01612ea9565b6107898b8b8b8080601f0160208091040260200160405190810160405280939291908181526020018383808284375f9201919091525061156e92505050565b9250606089013561100960408b0160208c01612ea9565b6001600160a01b031661101f60208c018c612ea9565b60408051818e0135815260c08e013560208201529081018790526001600160a01b0391909116907f89b05e4686afbee57493abedc5dead82e72c7590c3313b1ad90bf99403579efe9060600160405180910390a450509695505050505050565b6040805160018082528183019092525f916020808301908036833701905050905084815f815181106110b3576110b3613295565b6020026020010181815250505f846040516020016110e1919067ffffffffffffffff91909116815260200190565b60408051601f198184030181526020601f8701819004810284018101909252858352925061112d91849184919088908890819084018382808284375f9201919091525061166692505050565b60405167ffffffffffffffff8616815286907f83bbbc07896439e5d950a6cead04cbc676180af7a61cecf43f5296475057f5719060200160405180910390a2505050505050565b5f816001600160a01b0316836001600160a01b03161480610ab65750506001600160a01b039182165f90815260016020908152604080832093909416825291909152205465ffffffffffff1642111590565b6112257f000000000000000000000000000000000000000000000000000000000000000033306112167f000000000000000000000000000000000000000000000000000000000000000086613348565b6112209086613374565b611b78565b61073f82610c04610bff610bfa7f000000000000000000000000000000000000000000000000000000000000000086613335565b5f611264843361165b565b84339091611297576040516367cfe80560e01b815260048101929092526001600160a01b031660248201526044016107d7565b50506112a38633611174565b863390916112d757604051630f3e596760e31b81526001600160a01b039283166004820152911660248201526044016107d7565b50506112e686868686866115f9565b90506112f28133611650565b5095945050505050565b611307338383611bb7565b5050565b611315813361165b565b81339091611348576040516367cfe80560e01b815260048101929092526001600160a01b031660248201526044016107d7565b505061135381611c2e565b50604051339082907f189c3bfae2e5ce7726b29d57bb6ed0f1a7ebcd153a863ff5ecb6cd998064c98c905f90a350565b5f6113c833886108268989898080601f0160208091040260200160405190810160405280939291908181526020018383808284375f9201919091525061156e92505050565b90506113d48133611650565b509695505050505050565b5f6113ea8633611174565b8633909161141e57604051630f3e596760e31b81526001600160a01b039283166004820152911660248201526044016107d7565b50506112e686866107898787878080601f0160208091040260200160405190810160405280939291908181526020018383808284375f9201919091525061156e92505050565b60606005805461058c9061325d565b61147d813361165b565b813390916114b0576040516367cfe80560e01b815260048101929092526001600160a01b031660248201526044016107d7565b505061073f838383611745565b5f6114c8823361165b565b823390916114fb576040516367cfe80560e01b815260048101929092526001600160a01b031660248201526044016107d7565b50506115078433611174565b8433909161153b57604051630f3e596760e31b81526001600160a01b039283166004820152911660248201526044016107d7565b505061154884848461157b565b90506115548133611650565b509392505050565b5f6115678383611c38565b5090919050565b5f610ab683836005611cac565b5f806001600160a01b0385166115b05760405163ee457ebf60e01b81526001600160a01b0390911660048201526024016107d7565b505f6001600160a01b0384166115e557604051638d51880160e01b81526001600160a01b0390911660048201526024016107d7565b506115f1848484611db9565b949350505050565b5f5f61160687878761157b565b90505f611617338989858989611dc5565b90505f611637888a6116328561162c5f61190b565b88611ec9565b611db9565b90506116438382611f08565b9998505050505050505050565b5f6115678383611f36565b5f610ab68383611f7c565b5f611672848484612000565b9050806116925760405163cf6c44e960e01b815260040160405180910390fd5b7fc6366bab028b8d033cb362cfd1f2f3457ef4e92fc738b6788b90d5a7846367a084846040516116c39291906133c1565b60405180910390a150505050565b6040516001600160a01b0383811660248301526044820183905261073f91859182169063a9059cbb906064015b604051602081830303815290604052915060e01b6020820180517bffffffffffffffffffffffffffffffffffffffffffffffffffffffff83818316178352505050506120a4565b816001600160a01b03811661177957604051638d51880160e01b81526001600160a01b0390911660048201526024016107d7565b506001600160a01b03831633148061179657506117968333611174565b833390916117ca57604051630f3e596760e31b81526001600160a01b039283166004820152911660248201526044016107d7565b50505f6117d78483612110565b90506117e281611c2e565b505f818152600760205260409020546001600160a01b031615611807576118076133e5565b5f81815260076020908152604091829020805473ffffffffffffffffffffffffffffffffffffffff19166001600160a01b03871690811790915591518381527f77d02d353c5629272875d11f1b34ec4c65d7430b075575b78cd2502034c469ee910160405180910390a250505050565b60606107977f00000000000000000000000000000000000000000000000000000000000000006008612151565b60606107977f00000000000000000000000000000000000000000000000000000000000000006009612151565b5f67ffffffffffffffff82111561190757604080516306dfcc6560e41b81526004810191909152602481018390526044016107d7565b5090565b5f6105778267ffffffffffffffff1660056121fa565b5f806001600160a01b03841661195657604051638d51880160e01b81526001600160a01b0390911660048201526024016107d7565b50610ab65f8484611db9565b5f466001036119715750600190565b4662aa36a703611982575061271190565b46617a690361199157505f1990565b505f90565b6001600160a01b0382165f908152600a6020908152604080832084845290915290205460ff1615611a095760405162461bcd60e51b815260206004820152601860248201527f583430323a206e6f6e636520616c72656164792075736564000000000000000060448201526064016107d7565b6001600160a01b039091165f908152600a6020908152604080832093835292905220805460ff19166001179055565b5f7fbceef79abd64808802208eed9a3e076550213b3e68971ff109562bfeaa364ed9611a676020840184612ea9565b611a776040850160208601612ea9565b60408501356060860135611a9160a088016080890161335b565b611aa160c0890160a08a0161335b565b6040805160208101989098526001600160a01b0396871690880152949093166060860152608085019190915260a084015265ffffffffffff90811660c084810191909152911660e0838101919091529084013561010083015283013561012082015261014001604051602081830303815290604052805190602001209050919050565b5f610577611b3061229c565b8360405161190160f01b8152600281019290925260228201526042902090565b5f5f5f5f611b5e86866123c5565b925092509250611b6e828261240e565b5090949350505050565b6040516001600160a01b038481166024830152838116604483015260648201839052611bb19186918216906323b872dd906084016116fe565b50505050565b6001600160a01b038381165f81815260016020908152604080832094871680845294825291829020805465ffffffffffff191665ffffffffffff871690811790915591519182527f921a218a75d18e8ec5704851e6b234a85725b21a2521ce889622c35dedc1fa12910160405180910390a3505050565b5f611907826124c6565b5f51602061354d5f395f51905f528054604051635ca4b5b160e11b8152600481018590526001600160a01b0384811660248301529091169063b9496b62906044015b5f604051808303815f87803b158015611c91575f5ffd5b505af1158015611ca3573d5f5f3e3d5ffd5b50505050505050565b7f9e7b61f58c47dc699ac88507c4f5bb9f121c03808c5676a8078fe583e46497015460405163045fc19560e11b81525f915f51602061354d5f395f51905f52916001600160a01b03909116906308bf832a90611d1290889033908990899060040161342d565b6020604051808303815f875af1158015611d2e573d5f5f3e3d5ffd5b505050506040513d601f19601f82011682018060405250810190611d529190613463565b8154604051630f8e573b60e21b8152600481018390523360248201529193506001600160a01b031690633e395cec906044015f604051808303815f87803b158015611d9b575f5ffd5b505af1158015611dad573d5f5f3e3d5ffd5b50505050509392505050565b5f6115f1848484612544565b5f6001600160a01b0385163b15611eb2576040516346083bfd60e01b81526001600160a01b038616906346083bfd90611e0a908a908a9089908990899060040161347a565b6020604051808303815f875af1925050508015611e44575060408051601f3d908101601f19168201909252611e4191810190613463565b60015b611eab573d808015611e71576040519150601f19603f3d011682016040523d82523d5f602084013e611e76565b606091505b5080515f03611ea357604051638d51880160e01b81526001600160a01b03871660048201526024016107d7565b805181602001fd5b9050611ebf565b611ebc6001612618565b90505b9695505050505050565b5f83611edb57611ed85f612618565b93505b82611eec57611ee95f61190b565b92505b81611efd57611efa5f61190b565b91505b6115f1848484612633565b5f82611f1a57611f175f61190b565b92505b81611f2b57611f285f61190b565b91505b610ab683835f6126c0565b5f51602061354d5f395f51905f528054604051630f8e573b60e21b8152600481018590526001600160a01b03848116602483015290911690633e395cec90604401611c7a565b5f805f51602061354d5f395f51905f5280546040516382027b6d60e01b8152600481018790526001600160a01b0386811660248301529293509116906382027b6d90604401602060405180830381865afa158015611fdc573d5f5f3e3d5ffd5b505050506040513d601f19601f820116820180604052508101906115f191906134cf565b7f9e7b61f58c47dc699ac88507c4f5bb9f121c03808c5676a8078fe583e4649702546040516378542ead60e01b81525f915f51602061354d5f395f51905f52916001600160a01b03909116906378542ead90612064908890889088906004016134ee565b6020604051808303815f875af1158015612080573d5f5f3e3d5ffd5b505050506040513d601f19601f8201168201806040525081019061078e91906134cf565b5f5f60205f8451602086015f885af1806120c3576040513d5f823e3d81fd5b50505f513d915081156120da5780600114156120e7565b6001600160a01b0384163b155b15611bb157604051635274afe760e01b81526001600160a01b03851660048201526024016107d7565b5f806001600160a01b0384166121455760405163ee457ebf60e01b81526001600160a01b0390911660048201526024016107d7565b50610ab6835f84611db9565b606060ff831461216b5761216483612786565b9050610577565b8180546121779061325d565b80601f01602080910402602001604051908101604052809291908181526020018280546121a39061325d565b80156121ee5780601f106121c5576101008083540402835291602001916121ee565b820191905f5260205f20905b8154815290600101906020018083116121d157829003601f168201915b50505050509050610577565b7f9e7b61f58c47dc699ac88507c4f5bb9f121c03808c5676a8078fe583e464970154604051639cd07acb60e01b81525f915f51602061354d5f395f51905f52916001600160a01b0390911690639cd07acb9061225c9087908790600401613526565b6020604051808303815f875af1158015612278573d5f5f3e3d5ffd5b505050506040513d601f19601f820116820180604052508101906115f19190613463565b5f306001600160a01b037f0000000000000000000000000000000000000000000000000000000000000000161480156122f457507f000000000000000000000000000000000000000000000000000000000000000046145b1561231e57507f000000000000000000000000000000000000000000000000000000000000000090565b610797604080517f8b73c3c69bb8fe3d512ecc4cf759cc79239f7b179b0ffacaa9a75d522b39400f60208201527f0000000000000000000000000000000000000000000000000000000000000000918101919091527f000000000000000000000000000000000000000000000000000000000000000060608201524660808201523060a08201525f9060c00160405160208183030381529060405280519060200120905090565b5f5f5f83516041036123fc576020840151604085015160608601515f1a6123ee888285856127c3565b955095509550505050612407565b505081515f91506002905b9250925092565b5f826003811115612421576124216133f9565b0361242a575050565b600182600381111561243e5761243e6133f9565b0361245c5760405163f645eedf60e01b815260040160405180910390fd5b6002826003811115612470576124706133f9565b036124915760405163fce698f760e01b8152600481018290526024016107d7565b60038260038111156124a5576124a56133f9565b03611307576040516335e2f38360e21b8152600481018290526024016107d7565b6040805160018082528183019092525f51602061354d5f395f51905f52915f91906020808301908036833701905050905082815f8151811061250a5761250a613295565b60209081029190910101528154604051637d6e912360e11b81526001600160a01b039091169063fadd224690611c7a90849060040161353a565b5f61255084848461288b565b6001600160a01b038581165f908152600660205260408082205487841683529120549293508116911681156125b3576125a66125a0876001600160a01b03165f9081526020819052604090205490565b8361155c565b506125b1838361155c565b505b6001600160a01b0381161561260f576125e96125e3866001600160a01b03165f9081526020819052604090205490565b8261155c565b50816001600160a01b0316816001600160a01b03161461260f5761260d838261155c565b505b50509392505050565b5f61057782612627575f61262a565b60015b60ff165f6121fa565b5f805f51602061354d5f395f51905f526001810154604051637702dcff60e01b81526004810188905260248101879052604481018690529192506001600160a01b031690637702dcff906064016020604051808303815f875af115801561269c573d5f5f3e3d5ffd5b505050506040513d601f19601f8201168201806040525081019061078e9190613463565b5f5f82156126d35750600160f81b6126d6565b505f5b7f9e7b61f58c47dc699ac88507c4f5bb9f121c03808c5676a8078fe583e4649701546040516303056db360e31b815260048101879052602481018690526001600160f81b0319831660448201525f51602061354d5f395f51905f52916001600160a01b03169063182b6d98906064015b6020604051808303815f875af1158015612762573d5f5f3e3d5ffd5b505050506040513d601f19601f82011682018060405250810190611ebf9190613463565b60605f61279283612a68565b6040805160208082528183019092529192505f91906020820181803683375050509182525060208101929092525090565b5f80807f7fffffffffffffffffffffffffffffff5d576e7357a4501ddfe92f46681b20a08411156127fc57505f91506003905082612881565b604080515f808252602082018084528a905260ff891692820192909252606081018790526080810186905260019060a0016020604051602081039080840390855afa15801561284d573d5f5f3e3d5ffd5b5050604051601f1901519150506001600160a01b03811661287857505f925060019150829050612881565b92505f91508190505b9450945094915050565b5f80806001600160a01b0386166128c1576128a860025485612a8f565b90925090506128b681612ad9565b506002819055612945565b6001600160a01b0386165f908152602081905260409020548681612904576040516317fe473760e21b81526001600160a01b0390911660048201526024016107d7565b5061290f8186612ae4565b909350915061291d82612ad9565b50612928828861155c565b50506001600160a01b0386165f9081526020819052604090208190555b61295882856129535f61190b565b611ec9565b92506001600160a01b03851661298a5761297460025484611f08565b905061297f81612ad9565b5060028190556129de565b6001600160a01b0385165f908152602081905260409020546129ac9084612b49565b90506129b781612ad9565b506129c2818661155c565b506001600160a01b0385165f9081526020819052604090208190555b6001600160a01b038616156129f9576129f7838761155c565b505b6001600160a01b03851615612a1457612a12838661155c565b505b612a1d83612ad9565b5082856001600160a01b0316876001600160a01b03167f67500e8d0ed826d2194f514dd0d8124f35648ab6e3fb5e6ed867134cffe661e960405160405180910390a450509392505050565b5f60ff8216601f81111561057757604051632cd44ac360e21b815260040160405180910390fd5b5f8083612aaa57612aa06001612618565b8391509150612ad2565b5f612ab58585612b49565b9050612ac18186612b77565b9250612ace838287611ec9565b9150505b9250929050565b5f6119078230611c38565b5f8083612b205782612b0457612afa6001612618565b8491509150612ad2565b612b0e835f612ba5565b612b175f61190b565b91509150612ad2565b612b2a8484612b77565b9150612b4082612b3a8686611f08565b86611ec9565b90509250929050565b5f82612b5b57612b585f61190b565b92505b81612b6c57612b695f61190b565b91505b610ab683835f612bcd565b5f82612b8957612b865f61190b565b92505b81612b9a57612b975f61190b565b91505b610ab683835f612c57565b5f82612bb757612bb45f61190b565b92505b610ab68367ffffffffffffffff84166001612ce1565b5f5f8215612be05750600160f81b612be3565b505f5b7f9e7b61f58c47dc699ac88507c4f5bb9f121c03808c5676a8078fe583e46497015460405163022f65e760e31b815260048101879052602481018690526001600160f81b0319831660448201525f51602061354d5f395f51905f52916001600160a01b03169063117b2f3890606401612746565b5f5f8215612c6a5750600160f81b612c6d565b505f5b7f9e7b61f58c47dc699ac88507c4f5bb9f121c03808c5676a8078fe583e464970154604051631391547f60e01b815260048101879052602481018690526001600160f81b0319831660448201525f51602061354d5f395f51905f52916001600160a01b031690631391547f90606401612746565b5f5f8215612cf45750600160f81b612cf7565b505f5b7f9e7b61f58c47dc699ac88507c4f5bb9f121c03808c5676a8078fe583e46497015460405163f77f3f1d60e01b815260048101879052602481018690526001600160f81b0319831660448201525f51602061354d5f395f51905f52916001600160a01b03169063f77f3f1d90606401612746565b5f60208284031215612d7b575f5ffd5b81356001600160e01b031981168114610ab6575f5ffd5b5f81518084528060208401602086015e5f602082860101526020601f19601f83011685010191505092915050565b602081525f610ab66020830184612d92565b80356001600160a01b0381168114612de8575f5ffd5b919050565b5f5f60408385031215612dfe575f5ffd5b612e0783612dd2565b9150612b4060208401612dd2565b5f5f83601f840112612e25575f5ffd5b50813567ffffffffffffffff811115612e3c575f5ffd5b602083019150836020828501011115612ad2575f5ffd5b5f5f5f5f60608587031215612e66575f5ffd5b612e6f85612dd2565b935060208501359250604085013567ffffffffffffffff811115612e91575f5ffd5b612e9d87828801612e15565b95989497509550505050565b5f60208284031215612eb9575f5ffd5b610ab682612dd2565b5f5f5f5f5f5f5f60a0888a031215612ed8575f5ffd5b612ee188612dd2565b9650612eef60208901612dd2565b955060408801359450606088013567ffffffffffffffff811115612f11575f5ffd5b612f1d8a828b01612e15565b909550935050608088013567ffffffffffffffff811115612f3c575f5ffd5b612f488a828b01612e15565b989b979a50959850939692959293505050565b5f5f5f5f60608587031215612f6e575f5ffd5b84359350602085013567ffffffffffffffff81168114612f8c575f5ffd5b9250604085013567ffffffffffffffff811115612e91575f5ffd5b5f5f60408385031215612fb8575f5ffd5b612fc183612dd2565b946020939093013593505050565b5f5f5f5f5f60808688031215612fe3575f5ffd5b612fec86612dd2565b9450612ffa60208701612dd2565b935060408601359250606086013567ffffffffffffffff81111561301c575f5ffd5b61302888828901612e15565b969995985093965092949392505050565b60ff60f81b8816815260e060208201525f61305760e0830189612d92565b82810360408401526130698189612d92565b606084018890526001600160a01b038716608085015260a0840186905283810360c0850152845180825260208087019350909101905f5b818110156130be5783518352602093840193909201916001016130a0565b50909b9a5050505050505050505050565b5f5f5f5f5f5f8688036101608112156130e6575f5ffd5b6101008112156130f4575f5ffd5b50869550610100860135945061012086013567ffffffffffffffff81111561311a575f5ffd5b61312689828a01612e15565b90955093505061014087013567ffffffffffffffff811115613146575f5ffd5b61315289828a01612e15565b979a9699509497509295939492505050565b803565ffffffffffff81168114612de8575f5ffd5b5f5f6040838503121561318a575f5ffd5b61319383612dd2565b9150612b4060208401613164565b5f602082840312156131b1575f5ffd5b5035919050565b5f5f5f5f5f5f608087890312156131cd575f5ffd5b6131d687612dd2565b955060208701359450604087013567ffffffffffffffff8111156131f8575f5ffd5b61320489828a01612e15565b909550935050606087013567ffffffffffffffff811115613146575f5ffd5b5f5f5f60608486031215613235575f5ffd5b61323e84612dd2565b925061324c60208501612dd2565b929592945050506040919091013590565b600181811c9082168061327157607f821691505b60208210810361328f57634e487b7160e01b5f52602260045260245ffd5b50919050565b634e487b7160e01b5f52603260045260245ffd5b634e487b7160e01b5f52601160045260245ffd5b8082028115828204841417610577576105776132a9565b80356bffffffffffffffffffffffff19811690601484101561331a576bffffffffffffffffffffffff196bffffffffffffffffffffffff198560140360031b1b82161691505b5092915050565b634e487b7160e01b5f52601260045260245ffd5b5f8261334357613343613321565b500490565b5f8261335657613356613321565b500690565b5f6020828403121561336b575f5ffd5b610ab682613164565b81810381811115610577576105776132a9565b5f8151808452602084019350602083015f5b828110156133b7578151865260209586019590910190600101613399565b5093949350505050565b604081525f6133d36040830185613387565b828103602084015261078e8185612d92565b634e487b7160e01b5f52600160045260245ffd5b634e487b7160e01b5f52602160045260245ffd5b6054811061342957634e487b7160e01b5f52602160045260245ffd5b9052565b8481526001600160a01b0384166020820152608060408201525f6134546080830185612d92565b905061078e606083018461340d565b5f60208284031215613473575f5ffd5b5051919050565b6001600160a01b03861681526001600160a01b038516602082015283604082015260806060820152816080820152818360a08301375f81830160a090810191909152601f909201601f19160101949350505050565b5f602082840312156134df575f5ffd5b81518015158114610ab6575f5ffd5b606081525f6135006060830186613387565b82810360208401526135128186612d92565b90508281036040840152611ebf8185612d92565b82815260408101610ab6602083018461340d565b602081525f610ab6602083018461338756fe9e7b61f58c47dc699ac88507c4f5bb9f121c03808c5676a8078fe583e4649700a164736f6c634300081b000a",
  "devdoc": {
    "errors": {
      "ECDSAInvalidSignature()": [
        {
          "details": "The signature derives the `address(0)`."
        }
      ],
      "ECDSAInvalidSignatureLength(uint256)": [
        {
          "details": "The signature has an invalid length."
        }
      ],
      "ECDSAInvalidSignatureS(bytes32)": [
        {
          "details": "The signature has an S value that is in the upper half order."
        }
      ],
      "ERC7984InvalidGatewayRequest(uint256)": [
        {
          "details": "The given gateway request ID `requestId` is invalid."
        }
      ],
      "ERC7984InvalidReceiver(address)": [
        {
          "details": "The given receiver `receiver` is invalid for transfers."
        }
      ],
      "ERC7984InvalidSender(address)": [
        {
          "details": "The given sender `sender` is invalid for transfers."
        }
      ],
      "ERC7984UnauthorizedCaller(address)": [
        {
          "details": "The given caller `caller` is not authorized for the current operation."
        }
      ],
      "ERC7984UnauthorizedSpender(address,address)": [
        {
          "details": "The given holder `holder` is not authorized to spend on behalf of `spender`."
        }
      ],
      "ERC7984UnauthorizedUseOfEncryptedAmount(bytes32,address)": [
        {
          "details": "The caller `user` does not have access to the encrypted amount `amount`. NOTE: Try using the equivalent transfer function with an input proof."
        }
      ],
      "ERC7984ZeroBalance(address)": [
        {
          "details": "The holder `holder` is trying to send tokens but has a balance of 0."
        }
      ],
      "SafeCastOverflowedUintDowncast(uint8,uint256)": [
        {
          "details": "Value doesn't fit in an uint of `bits` size."
        }
      ],
      "SafeERC20FailedOperation(address)": [
        {
          "details": "An operation with an ERC-20 token failed."
        }
      ],
      "Unauthorized()": [
        {
          "details": "Thrown when an account tries to set a `newObserver` for a given `account` without proper authority."
        }
      ]
    },
    "events": {
      "AmountDiscloseRequested(bytes32,address)": {
        "details": "Emitted when an encrypted amount `encryptedAmount` is requested for disclosure by `requester`."
      },
      "AmountDisclosed(bytes32,uint64)": {
        "details": "Emitted when an encrypted amount is disclosed. Accounts with access to the encrypted amount `encryptedAmount` that is also accessible to this contract should be able to disclose the amount. This functionality is implementation specific."
      },
      "ConfidentialPaymentExecuted(address,address,uint256,bytes32,bytes32,bytes32)": {
        "details": "Payment execution event (only emits the euint64 handle, not the plaintext amount)"
      },
      "ConfidentialTransfer(address,address,bytes32)": {
        "details": "Emitted when a confidential transfer is made from `from` to `to` of encrypted amount `amount`."
      },
      "EIP712DomainChanged()": {
        "details": "MAY be emitted to signal that the domain could have changed."
      },
      "ERC7984ObserverAccessObserverSet(address,address,address)": {
        "details": "Emitted when the observer is changed for the given account `account`."
      },
      "OperatorSet(address,address,uint48)": {
        "details": "Emitted when the expiration timestamp for an operator `operator` is updated for a given `holder`. The operator may move any amount of tokens on behalf of the holder until the timestamp `until`."
      }
    },
    "kind": "dev",
    "methods": {
      "confidentialBalanceOf(address)": {
        "details": "Returns the confidential balance of the account `account`."
      },
      "confidentialTotalSupply()": {
        "details": "Returns the confidential total supply of the token."
      },
      "confidentialTransfer(address,bytes32)": {
        "details": "Similar to {confidentialTransfer-address-externalEuint64-bytes} but without an input proof. The caller *must* already be allowed by ACL for the given `amount`."
      },
      "confidentialTransfer(address,bytes32,bytes)": {
        "details": "Transfers the encrypted amount `encryptedAmount` to `to` with the given input proof `inputProof`. Returns the encrypted amount that was actually transferred."
      },
      "confidentialTransferAndCall(address,bytes32,bytes)": {
        "details": "Similar to {confidentialTransfer-address-euint64} but with a callback to `to` after the transfer."
      },
      "confidentialTransferAndCall(address,bytes32,bytes,bytes)": {
        "details": "Similar to {confidentialTransfer-address-externalEuint64-bytes} but with a callback to `to` after the transfer. The callback is made to the {IERC7984Receiver-onConfidentialTransferReceived} function on the to address with the actual transferred amount (may differ from the given `encryptedAmount`) and the given data `data`."
      },
      "confidentialTransferFrom(address,address,bytes32)": {
        "details": "Similar to {confidentialTransferFrom-address-address-externalEuint64-bytes} but without an input proof. The caller *must* be already allowed by ACL for the given `amount`."
      },
      "confidentialTransferFrom(address,address,bytes32,bytes)": {
        "details": "Transfers the encrypted amount `encryptedAmount` from `from` to `to` with the given input proof `inputProof`. `msg.sender` must be either `from` or an operator for `from`. Returns the encrypted amount that was actually transferred."
      },
      "confidentialTransferFromAndCall(address,address,bytes32,bytes)": {
        "details": "Similar to {confidentialTransferFrom-address-address-euint64} but with a callback to `to` after the transfer."
      },
      "confidentialTransferFromAndCall(address,address,bytes32,bytes,bytes)": {
        "details": "Similar to {confidentialTransferFrom-address-address-externalEuint64-bytes} but with a callback to `to` after the transfer."
      },
      "confidentialTransferWithAuthorization((address,address,uint256,bytes32,uint48,uint48,bytes32,bytes32),bytes32,bytes,bytes)": {
        "details": "Flow:  1. Validate time window and nonce  2. Ensure encryptedAmountInput matches p.encryptedAmountHash  3. Recover signer via EIP-712 and require signer == p.holder  4. Convert to euint64 via FHE.fromExternal(...)  5. Use ERC7984 internal _transfer to move confidential balance from holder to payee",
        "params": {
          "encryptedAmountInput": "externalEuint64 handle generated by the fhEVM SDK",
          "inputProof": "fhEVM input proof",
          "p": "Payment authorization struct (typed data)",
          "sig": "Holders EIP-712 signature over the typed data"
        },
        "returns": {
          "transferred": "Encrypted amount handle that was transferred"
        }
      },
      "contractURI()": {
        "details": "Returns the contract URI. See https://eips.ethereum.org/EIPS/eip-7572[ERC-7572] for details."
      },
      "discloseEncryptedAmount(bytes32,uint64,bytes)": {
        "details": "Publicly discloses an encrypted value with a given decryption proof. Emits the {AmountDisclosed} event. NOTE: May not be tied to a prior request via {requestDiscloseEncryptedAmount}."
      },
      "eip712Domain()": {
        "details": "returns the fields and values that describe the domain separator used by this contract for EIP-712 signature."
      },
      "finalizeUnwrap(bytes32,uint64,bytes)": {
        "details": "Fills an unwrap request for a given cipher-text `burntAmount` with the `cleartextAmount` and `decryptionProof`."
      },
      "isOperator(address,address)": {
        "details": "Returns true if `spender` is currently an operator for `holder`."
      },
      "name()": {
        "details": "Returns the name of the token."
      },
      "observer(address)": {
        "details": "Returns the observer for the given account `account`."
      },
      "onTransferReceived(address,address,uint256,bytes)": {
        "details": "`ERC1363` callback function which wraps tokens to the address specified in `data` or the address `from` (if no address is specified in `data`). This function refunds any excess tokens sent beyond the nearest multiple of {rate}. See {wrap} from more details on wrapping tokens."
      },
      "rate()": {
        "details": "Returns the rate at which the underlying token is converted to the wrapped token. For example, if the `rate` is 1000, then 1000 units of the underlying token equal 1 unit of the wrapped token."
      },
      "requestDiscloseEncryptedAmount(bytes32)": {
        "details": "Starts the process to disclose an encrypted amount `encryptedAmount` publicly by making it publicly decryptable. Emits the {AmountDiscloseRequested} event. NOTE: Both `msg.sender` and `address(this)` must have permission to access the encrypted amount `encryptedAmount` to request disclosure of the encrypted amount `encryptedAmount`."
      },
      "setObserver(address,address)": {
        "details": "Sets the observer for the given account `account` to `newObserver`. Can be called by the account or the existing observer to abdicate the observer role (may only set to `address(0)`)."
      },
      "setOperator(address,uint48)": {
        "details": "Sets `operator` as an operator for `holder` until the timestamp `until`. NOTE: An operator may transfer any amount of tokens on behalf of a holder while approved."
      },
      "supportsInterface(bytes4)": {
        "details": "Returns true if this contract implements the interface defined by `interfaceId`. See the corresponding https://eips.ethereum.org/EIPS/eip-165#how-interfaces-are-identified[ERC section] to learn more about how these ids are created. This function call must use less than 30 000 gas."
      },
      "symbol()": {
        "details": "Returns the symbol of the token."
      },
      "underlying()": {
        "details": "Returns the address of the underlying ERC-20 token that is being wrapped."
      },
      "unwrap(address,address,bytes32)": {
        "details": "Unwraps tokens from `from` and sends the underlying tokens to `to`. The caller must be `from` or be an approved operator for `from`. `amount * rate()` underlying tokens are sent to `to`. NOTE: The unwrap request created by this function must be finalized by calling {finalizeUnwrap}. NOTE: The caller *must* already be approved by ACL for the given `amount`."
      },
      "unwrap(address,address,bytes32,bytes)": {
        "details": "Variant of {unwrap} that passes an `inputProof` which approves the caller for the `encryptedAmount` in the ACL."
      },
      "wrap(address,uint256)": {
        "details": "Wraps amount `amount` of the underlying token into a confidential token and sends it to `to`. Tokens are exchanged at a fixed rate specified by {rate} such that `amount / rate()` confidential tokens are sent. Amount transferred in is rounded down to the nearest multiple of {rate}."
      }
    },
    "stateVariables": {
      "usedNonces": {
        "details": "Replay protection: each (holder, nonce) pair can be used only once"
      }
    },
    "version": 1
  },
  "userdoc": {
    "errors": {
      "InvalidKMSSignatures()": [
        {
          "notice": "Returned if the returned KMS signatures are not valid."
        }
      ],
      "ZamaProtocolUnsupported()": [
        {
          "notice": "Returned if the Zama protocol is not supported on the current chain"
        }
      ]
    },
    "events": {
      "PublicDecryptionVerified(bytes32[],bytes)": {
        "notice": "This event is emitted when public decryption has been successfully verified."
      }
    },
    "kind": "user",
    "methods": {
      "confidentialTransferWithAuthorization((address,address,uint256,bytes32,uint48,uint48,bytes32,bytes32),bytes32,bytes,bytes)": {
        "notice": "Execute a confidential payment using the holders EIP-712 signature"
      }
    },
    "version": 1
  },
  "storageLayout": {
    "storage": [
      {
        "astId": 39437,
        "contract": "contracts/FHEToken.sol:FHEToken",
        "label": "_balances",
        "offset": 0,
        "slot": "0",
        "type": "t_mapping(t_address,t_userDefinedValueType(euint64)48700)"
      },
      {
        "astId": 39443,
        "contract": "contracts/FHEToken.sol:FHEToken",
        "label": "_operators",
        "offset": 0,
        "slot": "1",
        "type": "t_mapping(t_address,t_mapping(t_address,t_uint48))"
      },
      {
        "astId": 39446,
        "contract": "contracts/FHEToken.sol:FHEToken",
        "label": "_totalSupply",
        "offset": 0,
        "slot": "2",
        "type": "t_userDefinedValueType(euint64)48700"
      },
      {
        "astId": 39448,
        "contract": "contracts/FHEToken.sol:FHEToken",
        "label": "_name",
        "offset": 0,
        "slot": "3",
        "type": "t_string_storage"
      },
      {
        "astId": 39450,
        "contract": "contracts/FHEToken.sol:FHEToken",
        "label": "_symbol",
        "offset": 0,
        "slot": "4",
        "type": "t_string_storage"
      },
      {
        "astId": 39452,
        "contract": "contracts/FHEToken.sol:FHEToken",
        "label": "_contractURI",
        "offset": 0,
        "slot": "5",
        "type": "t_string_storage"
      },
      {
        "astId": 41075,
        "contract": "contracts/FHEToken.sol:FHEToken",
        "label": "_observers",
        "offset": 0,
        "slot": "6",
        "type": "t_mapping(t_address,t_address)"
      },
      {
        "astId": 40550,
        "contract": "contracts/FHEToken.sol:FHEToken",
        "label": "_unwrapRequests",
        "offset": 0,
        "slot": "7",
        "type": "t_mapping(t_userDefinedValueType(euint64)48700,t_address)"
      },
      {
        "astId": 44505,
        "contract": "contracts/FHEToken.sol:FHEToken",
        "label": "_nameFallback",
        "offset": 0,
        "slot": "8",
        "type": "t_string_storage"
      },
      {
        "astId": 44507,
        "contract": "contracts/FHEToken.sol:FHEToken",
        "label": "_versionFallback",
        "offset": 0,
        "slot": "9",
        "type": "t_string_storage"
      },
      {
        "astId": 48410,
        "contract": "contracts/FHEToken.sol:FHEToken",
        "label": "usedNonces",
        "offset": 0,
        "slot": "10",
        "type": "t_mapping(t_address,t_mapping(t_bytes32,t_bool))"
      }
    ],
    "types": {
      "t_address": {
        "encoding": "inplace",
        "label": "address",
        "numberOfBytes": "20"
      },
      "t_bool": {
        "encoding": "inplace",
        "label": "bool",
        "numberOfBytes": "1"
      },
      "t_bytes32": {
        "encoding": "inplace",
        "label": "bytes32",
        "numberOfBytes": "32"
      },
      "t_mapping(t_address,t_address)": {
        "encoding": "mapping",
        "key": "t_address",
        "label": "mapping(address => address)",
        "numberOfBytes": "32",
        "value": "t_address"
      },
      "t_mapping(t_address,t_mapping(t_address,t_uint48))": {
        "encoding": "mapping",
        "key": "t_address",
        "label": "mapping(address => mapping(address => uint48))",
        "numberOfBytes": "32",
        "value": "t_mapping(t_address,t_uint48)"
      },
      "t_mapping(t_address,t_mapping(t_bytes32,t_bool))": {
        "encoding": "mapping",
        "key": "t_address",
        "label": "mapping(address => mapping(bytes32 => bool))",
        "numberOfBytes": "32",
        "value": "t_mapping(t_bytes32,t_bool)"
      },
      "t_mapping(t_address,t_uint48)": {
        "encoding": "mapping",
        "key": "t_address",
        "label": "mapping(address => uint48)",
        "numberOfBytes": "32",
        "value": "t_uint48"
      },
      "t_mapping(t_address,t_userDefinedValueType(euint64)48700)": {
        "encoding": "mapping",
        "key": "t_address",
        "label": "mapping(address => euint64)",
        "numberOfBytes": "32",
        "value": "t_userDefinedValueType(euint64)48700"
      },
      "t_mapping(t_bytes32,t_bool)": {
        "encoding": "mapping",
        "key": "t_bytes32",
        "label": "mapping(bytes32 => bool)",
        "numberOfBytes": "32",
        "value": "t_bool"
      },
      "t_mapping(t_userDefinedValueType(euint64)48700,t_address)": {
        "encoding": "mapping",
        "key": "t_userDefinedValueType(euint64)48700",
        "label": "mapping(euint64 => address)",
        "numberOfBytes": "32",
        "value": "t_address"
      },
      "t_string_storage": {
        "encoding": "bytes",
        "label": "string",
        "numberOfBytes": "32"
      },
      "t_uint48": {
        "encoding": "inplace",
        "label": "uint48",
        "numberOfBytes": "6"
      },
      "t_userDefinedValueType(euint64)48700": {
        "encoding": "inplace",
        "label": "euint64",
        "numberOfBytes": "32"
      }
    }
  }
}