{
  "address": "0x3980D42941FDEE176f3bA22a77bcf37C897F785f",
  "abi": [
    {
      "inputs": [
        {
          "internalType": "address",
          "name": "token_",
          "type": "address"
        },
        {
          "internalType": "uint256",
          "name": "amount_",
          "type": "uint256"
        },
        {
          "internalType": "address",
          "name": "owner_",
          "type": "address"
        }
      ],
      "stateMutability": "nonpayable",
      "type": "constructor"
    },
    {
      "inputs": [
        {
          "internalType": "address",
          "name": "owner",
          "type": "address"
        }
      ],
      "name": "OwnableInvalidOwner",
      "type": "error"
    },
    {
      "inputs": [
        {
          "internalType": "address",
          "name": "account",
          "type": "address"
        }
      ],
      "name": "OwnableUnauthorizedAccount",
      "type": "error"
    },
    {
      "inputs": [
        {
          "internalType": "address",
          "name": "token",
          "type": "address"
        }
      ],
      "name": "SafeERC20FailedOperation",
      "type": "error"
    },
    {
      "anonymous": false,
      "inputs": [
        {
          "indexed": false,
          "internalType": "uint256",
          "name": "amount",
          "type": "uint256"
        }
      ],
      "name": "AmountUpdated",
      "type": "event"
    },
    {
      "anonymous": false,
      "inputs": [
        {
          "indexed": true,
          "internalType": "address",
          "name": "account",
          "type": "address"
        },
        {
          "indexed": false,
          "internalType": "uint256",
          "name": "amount",
          "type": "uint256"
        }
      ],
      "name": "Claimed",
      "type": "event"
    },
    {
      "anonymous": false,
      "inputs": [
        {
          "indexed": true,
          "internalType": "address",
          "name": "previousOwner",
          "type": "address"
        },
        {
          "indexed": true,
          "internalType": "address",
          "name": "newOwner",
          "type": "address"
        }
      ],
      "name": "OwnershipTransferred",
      "type": "event"
    },
    {
      "anonymous": false,
      "inputs": [
        {
          "indexed": true,
          "internalType": "address",
          "name": "to",
          "type": "address"
        },
        {
          "indexed": false,
          "internalType": "uint256",
          "name": "amount",
          "type": "uint256"
        }
      ],
      "name": "Withdrawn",
      "type": "event"
    },
    {
      "inputs": [],
      "name": "amount",
      "outputs": [
        {
          "internalType": "uint256",
          "name": "",
          "type": "uint256"
        }
      ],
      "stateMutability": "view",
      "type": "function"
    },
    {
      "inputs": [],
      "name": "claim",
      "outputs": [],
      "stateMutability": "nonpayable",
      "type": "function"
    },
    {
      "inputs": [],
      "name": "owner",
      "outputs": [
        {
          "internalType": "address",
          "name": "",
          "type": "address"
        }
      ],
      "stateMutability": "view",
      "type": "function"
    },
    {
      "inputs": [],
      "name": "renounceOwnership",
      "outputs": [],
      "stateMutability": "nonpayable",
      "type": "function"
    },
    {
      "inputs": [
        {
          "internalType": "uint256",
          "name": "newAmount",
          "type": "uint256"
        }
      ],
      "name": "setAmount",
      "outputs": [],
      "stateMutability": "nonpayable",
      "type": "function"
    },
    {
      "inputs": [],
      "name": "token",
      "outputs": [
        {
          "internalType": "contract IERC20",
          "name": "",
          "type": "address"
        }
      ],
      "stateMutability": "view",
      "type": "function"
    },
    {
      "inputs": [
        {
          "internalType": "address",
          "name": "newOwner",
          "type": "address"
        }
      ],
      "name": "transferOwnership",
      "outputs": [],
      "stateMutability": "nonpayable",
      "type": "function"
    },
    {
      "inputs": [
        {
          "internalType": "address",
          "name": "to",
          "type": "address"
        },
        {
          "internalType": "uint256",
          "name": "amount_",
          "type": "uint256"
        }
      ],
      "name": "withdraw",
      "outputs": [],
      "stateMutability": "nonpayable",
      "type": "function"
    }
  ],
  "transactionHash": "0xa7d2ba2d29b301f751a76e314d7dd62b2204ecd49b1a51af9846fa323464051b",
  "args": [
    "0x24AD8c259865b26570d0743254bDAdCaCb7F7D61",
    "100000000",
    "0x64c72c20587bceFbB74D286D63432cCE19A4FbDA"
  ],
  "numDeployments": 1,
  "solcInputHash": "d0d0594d587ed20ecd5ae94cd9b7675d",
  "bytecode": "0x60a060405234801561000f575f5ffd5b506040516106a73803806106a783398101604081905261002e9161013e565b806001600160a01b03811661005d57604051631e4fbdf760e01b81525f60048201526024015b60405180910390fd5b610066816100d4565b506001600160a01b0383166100bd5760405162461bcd60e51b815260206004820152601560248201527f4661756365743a20746f6b656e206973207a65726f00000000000000000000006044820152606401610054565b506001600160a01b03909116608052600155610177565b5f80546001600160a01b038381166001600160a01b0319831681178455604051919092169283917f8be0079c531659141344cd1fd0a4f28419497f9722a3daafe3b4186f6b6457e09190a35050565b80516001600160a01b0381168114610139575f5ffd5b919050565b5f5f5f60608486031215610150575f5ffd5b61015984610123565b92506020840151915061016e60408501610123565b90509250925092565b60805161050a61019d5f395f8181610119015281816101e001526102a4015261050a5ff3fe608060405234801561000f575f5ffd5b5060043610610085575f3560e01c8063aa8c217c11610058578063aa8c217c146100d7578063f2fde38b146100ee578063f3fef3a314610101578063fc0c546a14610114575f5ffd5b8063271f88b4146100895780634e71d92d1461009e578063715018a6146100a65780638da5cb5b146100ae575b5f5ffd5b61009c610097366004610483565b61013b565b005b61009c61017e565b61009c61023f565b5f546001600160a01b03165b6040516001600160a01b0390911681526020015b60405180910390f35b6100e060015481565b6040519081526020016100ce565b61009c6100fc3660046104b5565b610252565b61009c61010f3660046104d5565b61028f565b6100ba7f000000000000000000000000000000000000000000000000000000000000000081565b610143610312565b60018190556040518181527fa8df00a7e42dfb60b1830a1be2aebb12610b5430dccf608528cc0aa7675dfcf39060200160405180910390a150565b600154806101d35760405162461bcd60e51b815260206004820152601660248201527f4661756365743a20616d6f756e74206973207a65726f0000000000000000000060448201526064015b60405180910390fd5b6102076001600160a01b037f000000000000000000000000000000000000000000000000000000000000000016338361033e565b60405181815233907fd8138f8a3f377c5259ca548e70e4c2de94f129f5a11036a15b69513cba2b426a9060200160405180910390a250565b610247610312565b6102505f6103aa565b565b61025a610312565b6001600160a01b03811661028357604051631e4fbdf760e01b81525f60048201526024016101ca565b61028c816103aa565b50565b610297610312565b6102cb6001600160a01b037f000000000000000000000000000000000000000000000000000000000000000016838361033e565b816001600160a01b03167f7084f5476618d8e60b11ef0d7d3f06914655adb8793e28ff7f018d4c76d505d58260405161030691815260200190565b60405180910390a25050565b5f546001600160a01b031633146102505760405163118cdaa760e01b81523360048201526024016101ca565b604080516001600160a01b038416602482015260448082018490528251808303909101815260649091019091526020810180517bffffffffffffffffffffffffffffffffffffffffffffffffffffffff1663a9059cbb60e01b1790526103a5908490610411565b505050565b5f80546001600160a01b038381167fffffffffffffffffffffffff0000000000000000000000000000000000000000831681178455604051919092169283917f8be0079c531659141344cd1fd0a4f28419497f9722a3daafe3b4186f6b6457e09190a35050565b5f5f60205f8451602086015f885af180610430576040513d5f823e3d81fd5b50505f513d91508115610447578060011415610454565b6001600160a01b0384163b155b1561047d57604051635274afe760e01b81526001600160a01b03851660048201526024016101ca565b50505050565b5f60208284031215610493575f5ffd5b5035919050565b80356001600160a01b03811681146104b0575f5ffd5b919050565b5f602082840312156104c5575f5ffd5b6104ce8261049a565b9392505050565b5f5f604083850312156104e6575f5ffd5b6104ef8361049a565b94602093909301359350505056fea164736f6c634300081b000a",
  "devdoc": {
    "details": "Simple faucet that dispenses a fixed amount of TestERC20 per claim.",
    "errors": {
      "OwnableInvalidOwner(address)": [
        {
          "details": "The owner is not a valid owner account. (eg. `address(0)`)"
        }
      ],
      "OwnableUnauthorizedAccount(address)": [
        {
          "details": "The caller account is not authorized to perform an operation."
        }
      ],
      "SafeERC20FailedOperation(address)": [
        {
          "details": "An operation with an ERC-20 token failed."
        }
      ]
    },
    "kind": "dev",
    "methods": {
      "owner()": {
        "details": "Returns the address of the current owner."
      },
      "renounceOwnership()": {
        "details": "Leaves the contract without owner. It will not be possible to call `onlyOwner` functions. Can only be called by the current owner. NOTE: Renouncing ownership will leave the contract without an owner, thereby disabling any functionality that is only available to the owner."
      },
      "transferOwnership(address)": {
        "details": "Transfers ownership of the contract to a new account (`newOwner`). Can only be called by the current owner."
      }
    },
    "version": 1
  },
  "userdoc": {
    "kind": "user",
    "methods": {},
    "version": 1
  },
  "storageLayout": {
    "storage": [
      {
        "astId": 43654,
        "contract": "contracts/TestERC20Faucet.sol:TestERC20Faucet",
        "label": "_owner",
        "offset": 0,
        "slot": "0",
        "type": "t_address"
      },
      {
        "astId": 52099,
        "contract": "contracts/TestERC20Faucet.sol:TestERC20Faucet",
        "label": "amount",
        "offset": 0,
        "slot": "1",
        "type": "t_uint256"
      }
    ],
    "types": {
      "t_address": {
        "encoding": "inplace",
        "label": "address",
        "numberOfBytes": "20"
      },
      "t_uint256": {
        "encoding": "inplace",
        "label": "uint256",
        "numberOfBytes": "32"
      }
    }
  }
}